{
  "contractName": "DigitalOracles",
  "abi": [
    {
      "constant": false,
      "inputs": [
        {
          "name": "account",
          "type": "address"
        }
      ],
      "name": "addWhitelisted",
      "outputs": [],
      "payable": false,
      "stateMutability": "nonpayable",
      "type": "function",
      "signature": "0x10154bad"
    },
    {
      "constant": false,
      "inputs": [
        {
          "name": "account",
          "type": "address"
        }
      ],
      "name": "removeWhitelisted",
      "outputs": [],
      "payable": false,
      "stateMutability": "nonpayable",
      "type": "function",
      "signature": "0x291d9549"
    },
    {
      "constant": true,
      "inputs": [
        {
          "name": "account",
          "type": "address"
        }
      ],
      "name": "isWhitelisted",
      "outputs": [
        {
          "name": "",
          "type": "bool"
        }
      ],
      "payable": false,
      "stateMutability": "view",
      "type": "function",
      "signature": "0x3af32abf"
    },
    {
      "constant": false,
      "inputs": [],
      "name": "renounceWhitelistAdmin",
      "outputs": [],
      "payable": false,
      "stateMutability": "nonpayable",
      "type": "function",
      "signature": "0x4c5a628c"
    },
    {
      "constant": false,
      "inputs": [
        {
          "name": "account",
          "type": "address"
        }
      ],
      "name": "addWhitelistAdmin",
      "outputs": [],
      "payable": false,
      "stateMutability": "nonpayable",
      "type": "function",
      "signature": "0x7362d9c8"
    },
    {
      "constant": true,
      "inputs": [
        {
          "name": "account",
          "type": "address"
        }
      ],
      "name": "isWhitelistAdmin",
      "outputs": [
        {
          "name": "",
          "type": "bool"
        }
      ],
      "payable": false,
      "stateMutability": "view",
      "type": "function",
      "signature": "0xbb5f747b"
    },
    {
      "constant": false,
      "inputs": [],
      "name": "renounceWhitelisted",
      "outputs": [],
      "payable": false,
      "stateMutability": "nonpayable",
      "type": "function",
      "signature": "0xd6cd9473"
    },
    {
      "inputs": [],
      "payable": false,
      "stateMutability": "nonpayable",
      "type": "constructor",
      "signature": "constructor"
    },
    {
      "anonymous": false,
      "inputs": [
        {
          "indexed": true,
          "name": "contractId",
          "type": "uint256"
        },
        {
          "indexed": true,
          "name": "partyA",
          "type": "uint256"
        }
      ],
      "name": "ContractCreated",
      "type": "event",
      "signature": "0xf9b35b99c874e29dc89fd22e00a5ee1d8c2947af038de771d92b37edc70274b2"
    },
    {
      "anonymous": false,
      "inputs": [
        {
          "indexed": true,
          "name": "contractId",
          "type": "uint256"
        },
        {
          "indexed": true,
          "name": "partyB",
          "type": "uint256"
        }
      ],
      "name": "ContractPartyBAdded",
      "type": "event",
      "signature": "0x204d8cd5497d47b1c5bd0a781a893304305bfeb2a03627bb37ccca07a0afc8eb"
    },
    {
      "anonymous": false,
      "inputs": [
        {
          "indexed": true,
          "name": "contractId",
          "type": "uint256"
        },
        {
          "indexed": true,
          "name": "contractData",
          "type": "bytes32"
        }
      ],
      "name": "ContractApproved",
      "type": "event",
      "signature": "0x4515be6e857bd693ad54fadbc2e3066f0305783d258be5f2d8ed37b875ee6d6d"
    },
    {
      "anonymous": false,
      "inputs": [
        {
          "indexed": true,
          "name": "contractId",
          "type": "uint256"
        },
        {
          "indexed": true,
          "name": "state",
          "type": "uint8"
        }
      ],
      "name": "ContractStateChanged",
      "type": "event",
      "signature": "0x9457c2cd66a144975542c6fa2d94bc9e2fc20b498caaca45052ded00530d899e"
    },
    {
      "anonymous": false,
      "inputs": [
        {
          "indexed": true,
          "name": "contractId",
          "type": "uint256"
        }
      ],
      "name": "ContractTerminated",
      "type": "event",
      "signature": "0x5760684a9ae00ee4a9ccadd1b4cc0c9bc48ff36d7c91399445204ca23ec18857"
    },
    {
      "anonymous": false,
      "inputs": [
        {
          "indexed": true,
          "name": "contractId",
          "type": "uint256"
        },
        {
          "indexed": true,
          "name": "invoiceId",
          "type": "uint256"
        }
      ],
      "name": "InvoiceAdded",
      "type": "event",
      "signature": "0x4ec82c3ca9651aadf9d7220ebe32718733753b49d058d5a237b32f9dee0c0633"
    },
    {
      "anonymous": false,
      "inputs": [
        {
          "indexed": true,
          "name": "account",
          "type": "address"
        }
      ],
      "name": "WhitelistedAdded",
      "type": "event",
      "signature": "0xee1504a83b6d4a361f4c1dc78ab59bfa30d6a3b6612c403e86bb01ef2984295f"
    },
    {
      "anonymous": false,
      "inputs": [
        {
          "indexed": true,
          "name": "account",
          "type": "address"
        }
      ],
      "name": "WhitelistedRemoved",
      "type": "event",
      "signature": "0x270d9b30cf5b0793bbfd54c9d5b94aeb49462b8148399000265144a8722da6b6"
    },
    {
      "anonymous": false,
      "inputs": [
        {
          "indexed": true,
          "name": "account",
          "type": "address"
        }
      ],
      "name": "WhitelistAdminAdded",
      "type": "event",
      "signature": "0x22380c05984257a1cb900161c713dd71d39e74820f1aea43bd3f1bdd20961299"
    },
    {
      "anonymous": false,
      "inputs": [
        {
          "indexed": true,
          "name": "account",
          "type": "address"
        }
      ],
      "name": "WhitelistAdminRemoved",
      "type": "event",
      "signature": "0x0a8eb35e5ca14b3d6f28e4abf2f128dbab231a58b56e89beb5d636115001e165"
    },
    {
      "constant": false,
      "inputs": [
        {
          "name": "_contractId",
          "type": "uint256"
        },
        {
          "name": "_partyA",
          "type": "uint256"
        }
      ],
      "name": "createContract",
      "outputs": [
        {
          "name": "_id",
          "type": "uint256"
        }
      ],
      "payable": false,
      "stateMutability": "nonpayable",
      "type": "function",
      "signature": "0xdb5271d3"
    },
    {
      "constant": false,
      "inputs": [
        {
          "name": "_contractId",
          "type": "uint256"
        },
        {
          "name": "_partyB",
          "type": "uint256"
        }
      ],
      "name": "setPartyBToContract",
      "outputs": [
        {
          "name": "_id",
          "type": "uint256"
        }
      ],
      "payable": false,
      "stateMutability": "nonpayable",
      "type": "function",
      "signature": "0x9dfe5642"
    },
    {
      "constant": false,
      "inputs": [
        {
          "name": "_contractId",
          "type": "uint256"
        },
        {
          "name": "_state",
          "type": "uint8"
        }
      ],
      "name": "setContractState",
      "outputs": [
        {
          "name": "_id",
          "type": "uint256"
        }
      ],
      "payable": false,
      "stateMutability": "nonpayable",
      "type": "function",
      "signature": "0xb58f97bb"
    },
    {
      "constant": false,
      "inputs": [
        {
          "name": "_contractId",
          "type": "uint256"
        },
        {
          "name": "_partyB",
          "type": "uint256"
        },
        {
          "name": "_contractData",
          "type": "bytes32"
        }
      ],
      "name": "approveContract",
      "outputs": [
        {
          "name": "_id",
          "type": "uint256"
        }
      ],
      "payable": false,
      "stateMutability": "nonpayable",
      "type": "function",
      "signature": "0x251ad0a6"
    },
    {
      "constant": false,
      "inputs": [
        {
          "name": "_contractId",
          "type": "uint256"
        },
        {
          "name": "_partyB",
          "type": "uint256"
        },
        {
          "name": "_contractData",
          "type": "bytes32"
        },
        {
          "name": "_invoiceId",
          "type": "uint256"
        }
      ],
      "name": "approveContract",
      "outputs": [
        {
          "name": "_id",
          "type": "uint256"
        }
      ],
      "payable": false,
      "stateMutability": "nonpayable",
      "type": "function",
      "signature": "0x2b4ea1c3"
    },
    {
      "constant": false,
      "inputs": [
        {
          "name": "_contractId",
          "type": "uint256"
        }
      ],
      "name": "terminateContract",
      "outputs": [
        {
          "name": "_id",
          "type": "uint256"
        }
      ],
      "payable": false,
      "stateMutability": "nonpayable",
      "type": "function",
      "signature": "0x263e3d5d"
    },
    {
      "constant": false,
      "inputs": [
        {
          "name": "_contractId",
          "type": "uint256"
        },
        {
          "name": "_invoiceId",
          "type": "uint256"
        }
      ],
      "name": "addInvoiceToContract",
      "outputs": [
        {
          "name": "_id",
          "type": "uint256"
        }
      ],
      "payable": false,
      "stateMutability": "nonpayable",
      "type": "function",
      "signature": "0x2206a5d4"
    },
    {
      "constant": true,
      "inputs": [
        {
          "name": "_contractId",
          "type": "uint256"
        }
      ],
      "name": "getContract",
      "outputs": [
        {
          "name": "creationDate",
          "type": "uint256"
        },
        {
          "name": "partyA",
          "type": "uint256"
        },
        {
          "name": "partyB",
          "type": "uint256"
        },
        {
          "name": "state",
          "type": "uint8"
        },
        {
          "name": "contractData",
          "type": "bytes32"
        },
        {
          "name": "invoiceIds",
          "type": "uint256[]"
        }
      ],
      "payable": false,
      "stateMutability": "view",
      "type": "function",
      "signature": "0x6ebc8c86"
    },
    {
      "constant": true,
      "inputs": [
        {
          "name": "_contractId",
          "type": "uint256"
        }
      ],
      "name": "getContractInvoices",
      "outputs": [
        {
          "name": "invoiceIds",
          "type": "uint256[]"
        }
      ],
      "payable": false,
      "stateMutability": "view",
      "type": "function",
      "signature": "0xe5c945cc"
    }
  ],
  "bytecode": "0x60806040523480156200001157600080fd5b50620000263364010000000062000045810204565b6200003f33640100000000620004c36200009782021704565b620001d5565b6200006060008264010000000062001217620000ce82021704565b604051600160a060020a038216907f22380c05984257a1cb900161c713dd71d39e74820f1aea43bd3f1bdd2096129990600090a250565b620000ab3364010000000062000129810204565b1515620000b757600080fd5b620000cb816401000000006200014b810204565b50565b600160a060020a0381161515620000e457600080fd5b620000f982826401000000006200019d810204565b156200010457600080fd5b600160a060020a0316600090815260209190915260409020805460ff19166001179055565b6000620001458183640100000000620011506200019d82021704565b92915050565b6200016660018264010000000062001217620000ce82021704565b604051600160a060020a038216907fee1504a83b6d4a361f4c1dc78ab59bfa30d6a3b6612c403e86bb01ef2984295f90600090a250565b6000600160a060020a0382161515620001b557600080fd5b50600160a060020a03166000908152602091909152604090205460ff1690565b61135f80620001e56000396000f3fe6080604052600436106100e55763ffffffff7c010000000000000000000000000000000000000000000000000000000060003504166310154bad81146100ea5780632206a5d41461011f578063251ad0a614610161578063263e3d5d14610197578063291d9549146101c15780632b4ea1c3146101f45780633af32abf146102305780634c5a628c146102775780636ebc8c861461028c5780637362d9c81461033b5780639dfe56421461036e578063b58f97bb1461039e578063bb5f747b146103d1578063d6cd947314610404578063db5271d314610419578063e5c945cc14610449575b600080fd5b3480156100f657600080fd5b5061011d6004803603602081101561010d57600080fd5b5035600160a060020a03166104c3565b005b34801561012b57600080fd5b5061014f6004803603604081101561014257600080fd5b50803590602001356104e3565b60408051918252519081900360200190f35b34801561016d57600080fd5b5061014f6004803603606081101561018457600080fd5b5080359060208101359060400135610624565b3480156101a357600080fd5b5061014f600480360360208110156101ba57600080fd5b503561079c565b3480156101cd57600080fd5b5061011d600480360360208110156101e457600080fd5b5035600160a060020a03166108a3565b34801561020057600080fd5b5061014f6004803603608081101561021757600080fd5b50803590602081013590604081013590606001356108c0565b34801561023c57600080fd5b506102636004803603602081101561025357600080fd5b5035600160a060020a0316610a52565b604080519115158252519081900360200190f35b34801561028357600080fd5b5061011d610a6b565b34801561029857600080fd5b506102b6600480360360208110156102af57600080fd5b5035610a76565b604051808781526020018681526020018581526020018460038111156102d857fe5b60ff16815260200183815260200180602001828103825283818151815260200191508051906020019060200280838360005b8381101561032257818101518382015260200161030a565b5050505090500197505050505050505060405180910390f35b34801561034757600080fd5b5061011d6004803603602081101561035e57600080fd5b5035600160a060020a0316610b90565b34801561037a57600080fd5b5061014f6004803603604081101561039157600080fd5b5080359060200135610bad565b3480156103aa57600080fd5b5061014f600480360360408110156103c157600080fd5b508035906020013560ff16610d09565b3480156103dd57600080fd5b50610263600480360360208110156103f457600080fd5b5035600160a060020a0316610e44565b34801561041057600080fd5b5061011d610e56565b34801561042557600080fd5b5061014f6004803603604081101561043c57600080fd5b5080359060200135610e5f565b34801561045557600080fd5b506104736004803603602081101561046c57600080fd5b503561105e565b60408051602080825283518183015283519192839290830191858101910280838360005b838110156104af578181015183820152602001610497565b505050509050019250505060405180910390f35b6104cc33610e44565b15156104d757600080fd5b6104e0816110c0565b50565b60006104ee33610a52565b15156104f957600080fd5b82151561053e576040805160e560020a62461bcd0281526020600482015260136024820152600080516020611314833981519152604482015290519081900360640190fd5b600160008481526002602052604090206004015460ff16600381111561056057fe5b148061058b5750600260008481526002602052604090206004015460ff16600381111561058957fe5b145b15156105cf576040805160e560020a62461bcd02815260206004820152601d60248201526000805160206112f4833981519152604482015290519081900360640190fd5b6000838152600360209081526040808320805460018101825590845291832090910184905551839185917f4ec82c3ca9651aadf9d7220ebe32718733753b49d058d5a237b32f9dee0c06339190a35090919050565b600061062f33610a52565b151561063a57600080fd5b83151561067f576040805160e560020a62461bcd0281526020600482015260136024820152600080516020611314833981519152604482015290519081900360640190fd5b8215156106d6576040805160e560020a62461bcd02815260206004820152601160248201527f496e76616c696420706172747942204944000000000000000000000000000000604482015290519081900360640190fd5b600160008581526002602052604090206004015460ff1660038111156106f857fe5b1461073b576040805160e560020a62461bcd02815260206004820152601d60248201526000805160206112f4833981519152604482015290519081900360640190fd5b600084815260026020819052604080832060048101805460ff191690931790925560038201869055600590910184905551839186917f4515be6e857bd693ad54fadbc2e3066f0305783d258be5f2d8ed37b875ee6d6d9190a3509192915050565b60006107a733610a52565b15156107b257600080fd5b8115156107f7576040805160e560020a62461bcd0281526020600482015260136024820152600080516020611314833981519152604482015290519081900360640190fd5b600160008381526002602052604090206004015460ff16600381111561081957fe5b1461085c576040805160e560020a62461bcd02815260206004820152601d60248201526000805160206112f4833981519152604482015290519081900360640190fd5b600082815260026020526040808220600401805460ff191660031790555183917f5760684a9ae00ee4a9ccadd1b4cc0c9bc48ff36d7c91399445204ca23ec1885791a25090565b6108ac33610e44565b15156108b757600080fd5b6104e081611108565b60006108cb33610a52565b15156108d657600080fd5b84151561091b576040805160e560020a62461bcd0281526020600482015260136024820152600080516020611314833981519152604482015290519081900360640190fd5b831515610972576040805160e560020a62461bcd02815260206004820152601160248201527f496e76616c696420706172747942204944000000000000000000000000000000604482015290519081900360640190fd5b600160008681526002602052604090206004015460ff16600381111561099457fe5b146109d7576040805160e560020a62461bcd02815260206004820152601d60248201526000805160206112f4833981519152604482015290519081900360640190fd5b600085815260026020818152604080842060048101805460ff19169094179093556003808401899055600590930187905591815281832080546001810182559084529083200184905551849187917f4515be6e857bd693ad54fadbc2e3066f0305783d258be5f2d8ed37b875ee6d6d9190a350929392505050565b6000610a6560018363ffffffff61115016565b92915050565b610a7433611187565b565b60008060008060006060610a886112b1565b600088815260026020818152604092839020835160c08101855281548152600182015492810192909252918201549281019290925260038082015460608401526004820154608084019160ff90911690811115610ae157fe5b6003811115610aec57fe5b8152602001600582015481525050905080602001518160400151826060015183608001518460a00151600360008e815260200190815260200160002080805480602002602001604051908101604052809291908181526020018280548015610b7357602002820191906000526020600020905b815481526020019060010190808311610b5f575b505050505090509650965096509650965096505091939550919395565b610b9933610e44565b1515610ba457600080fd5b6104e0816111cf565b6000610bb833610a52565b1515610bc357600080fd5b821515610c08576040805160e560020a62461bcd0281526020600482015260136024820152600080516020611314833981519152604482015290519081900360640190fd5b811515610c5f576040805160e560020a62461bcd02815260206004820152601060248201527f496e76616c696420706172747920494400000000000000000000000000000000604482015290519081900360640190fd5b600160008481526002602052604090206004015460ff166003811115610c8157fe5b14610cc4576040805160e560020a62461bcd02815260206004820152601d60248201526000805160206112f4833981519152604482015290519081900360640190fd5b60008381526002602052604080822060030184905551839185917f204d8cd5497d47b1c5bd0a781a893304305bfeb2a03627bb37ccca07a0afc8eb9190a35090919050565b6000610d1433610a52565b1515610d1f57600080fd5b821515610d64576040805160e560020a62461bcd0281526020600482015260136024820152600080516020611314833981519152604482015290519081900360640190fd5b60008381526002602052604081206004015460ff166003811115610d8457fe5b14610dd9576040805160e560020a62461bcd02815260206004820152601460248201527f436f6e7472616374206e6f742063726561746564000000000000000000000000604482015290519081900360640190fd5b6000838152600260205260409020600401805483919060ff19166001836003811115610e0157fe5b0217905550816003811115610e1257fe5b60405184907f9457c2cd66a144975542c6fa2d94bc9e2fc20b498caaca45052ded00530d899e90600090a35090919050565b6000610a65818363ffffffff61115016565b610a7433611108565b6000610e6a33610a52565b1515610e7557600080fd5b821515610eba576040805160e560020a62461bcd0281526020600482015260136024820152600080516020611314833981519152604482015290519081900360640190fd5b811515610f11576040805160e560020a62461bcd02815260206004820152601060248201527f496e76616c696420706172747920494400000000000000000000000000000000604482015290519081900360640190fd5b60008381526002602052604081206004015460ff166003811115610f3157fe5b14610f86576040805160e560020a62461bcd02815260206004820152601860248201527f436f6e747261637420616c726561647920637265617465640000000000000000604482015290519081900360640190fd5b6040805160c0810182528481524260208201529081018390526000606082015260808101600181526020016000600102815250600260008581526020019081526020016000206000820151816000015560208201518160010155604082015181600201556060820151816003015560808201518160040160006101000a81548160ff0219169083600381111561101857fe5b021790555060a09190910151600590910155604051829084907ff9b35b99c874e29dc89fd22e00a5ee1d8c2947af038de771d92b37edc70274b290600090a35090919050565b6000818152600360209081526040918290208054835181840281018401909452808452606093928301828280156110b457602002820191906000526020600020905b8154815260200190600101908083116110a0575b50505050509050919050565b6110d160018263ffffffff61121716565b604051600160a060020a038216907fee1504a83b6d4a361f4c1dc78ab59bfa30d6a3b6612c403e86bb01ef2984295f90600090a250565b61111960018263ffffffff61126516565b604051600160a060020a038216907f270d9b30cf5b0793bbfd54c9d5b94aeb49462b8148399000265144a8722da6b690600090a250565b6000600160a060020a038216151561116757600080fd5b50600160a060020a03166000908152602091909152604090205460ff1690565b61119860008263ffffffff61126516565b604051600160a060020a038216907f0a8eb35e5ca14b3d6f28e4abf2f128dbab231a58b56e89beb5d636115001e16590600090a250565b6111e060008263ffffffff61121716565b604051600160a060020a038216907f22380c05984257a1cb900161c713dd71d39e74820f1aea43bd3f1bdd2096129990600090a250565b600160a060020a038116151561122c57600080fd5b6112368282611150565b1561124057600080fd5b600160a060020a0316600090815260209190915260409020805460ff19166001179055565b600160a060020a038116151561127a57600080fd5b6112848282611150565b151561128f57600080fd5b600160a060020a0316600090815260209190915260409020805460ff19169055565b60c06040519081016040528060008152602001600081526020016000815260200160008152602001600060038111156112e657fe5b815260006020909101529056fe436f6e7472616374206e6f7420696e2070656e64696e67207374617465000000496e76616c696420636f6e747261637420494400000000000000000000000000a165627a7a72305820593caa73514d4b9cd680b32b356a6acf419ec9b5fa76aa2763a50397f3273d5d0029",
  "source": "pragma solidity ^0.5.0;\n\nimport \"openzeppelin-solidity/contracts/access/roles/WhitelistedRole.sol\";\n\ncontract DigitalOracles is WhitelistedRole {\n\n    struct Contract {\n        uint256 contractId;     // The contract ID\n        uint256 creationDate;   // When the contract was created\n        uint256 partyA;         // Party B ID\n        uint256 partyB;         // Party A ID\n        State state;            // The contract state\n        bytes32 contractData;   // The IPFS hash of the approved contract\n    }\n\n    enum State {Blank, Pending, Approved, Terminated}\n\n    ////////////\n    // Events //\n    ////////////\n\n    event ContractCreated(uint256 indexed contractId, uint256 indexed partyA);\n    event ContractPartyBAdded(uint256 indexed contractId, uint256 indexed partyB);\n    event ContractApproved(uint256 indexed contractId, bytes32 indexed contractData);\n    event ContractStateChanged(uint256 indexed contractId, State indexed state);\n    event ContractTerminated(uint256 indexed contractId);\n    event InvoiceAdded(uint256 indexed contractId, uint256 indexed invoiceId);\n\n    // contract ID -> Contract\n    mapping(uint256 => Contract) contracts;\n\n    // contract ID -> invoice array\n    mapping(uint256 => uint256[]) invoices;\n\n    /////////////////\n    // Constructor //\n    /////////////////\n\n    constructor () public{\n        super.addWhitelisted(msg.sender);\n    }\n\n    /////////////////////\n    // Contract Setup //\n    /////////////////////\n\n    function createContract(uint256 _contractId, uint256 _partyA)\n    onlyWhitelisted\n    public returns (uint256 _id) {\n        require(_contractId != 0, \"Invalid contract ID\");\n        require(_partyA != 0, \"Invalid party ID\");\n        require(contracts[_contractId].state == State.Blank, \"Contract already created\");\n\n        // Create Contract\n        contracts[_contractId] = Contract(_contractId, now, _partyA, 0, State.Pending, bytes32(0x0));\n\n        emit ContractCreated(_contractId, _partyA);\n\n        return _contractId;\n    }\n\n    function setPartyBToContract(uint256 _contractId, uint256 _partyB)\n    onlyWhitelisted\n    public returns (uint256 _id) {\n        require(_contractId != 0, \"Invalid contract ID\");\n        require(_partyB != 0, \"Invalid party ID\");\n        require(contracts[_contractId].state == State.Pending, \"Contract not in pending state\");\n\n        // Update state\n        contracts[_contractId].partyB = _partyB;\n\n        emit ContractPartyBAdded(_contractId, _partyB);\n\n        return _contractId;\n    }\n\n    function setContractState(uint256 _contractId, State _state)\n    onlyWhitelisted\n    public returns (uint256 _id) {\n        require(_contractId != 0, \"Invalid contract ID\");\n        require(contracts[_contractId].state == State.Blank, \"Contract not created\");\n\n        contracts[_contractId].state = _state;\n\n        emit ContractStateChanged(_contractId, _state);\n\n        return _contractId;\n    }\n\n    function approveContract(uint256 _contractId, uint256 _partyB, bytes32 _contractData)\n    onlyWhitelisted\n    public returns (uint256 _id) {\n        require(_contractId != 0, \"Invalid contract ID\");\n        require(_partyB != 0, \"Invalid partyB ID\");\n        require(contracts[_contractId].state == State.Pending, \"Contract not in pending state\");\n\n        contracts[_contractId].state = State.Approved;\n        contracts[_contractId].partyB = _partyB;\n        contracts[_contractId].contractData = _contractData;\n\n        emit ContractApproved(_contractId, _contractData);\n\n        return _contractId;\n    }\n\n    function approveContract(uint256 _contractId, uint256 _partyB, bytes32 _contractData, uint256 _invoiceId)\n    onlyWhitelisted\n    public returns (uint256 _id) {\n        require(_contractId != 0, \"Invalid contract ID\");\n        require(_partyB != 0, \"Invalid partyB ID\");\n        require(contracts[_contractId].state == State.Pending, \"Contract not in pending state\");\n\n        contracts[_contractId].state = State.Approved;\n        contracts[_contractId].partyB = _partyB;\n        contracts[_contractId].contractData = _contractData;\n\n        invoices[_contractId].push(_invoiceId);\n\n        emit ContractApproved(_contractId, _contractData);\n\n        return _contractId;\n    }\n\n    function terminateContract(uint256 _contractId)\n    onlyWhitelisted\n    public returns (uint256 _id) {\n        require(_contractId != 0, \"Invalid contract ID\");\n        require(contracts[_contractId].state == State.Pending, \"Contract not in pending state\");\n\n        contracts[_contractId].state = State.Terminated;\n\n        emit ContractTerminated(_contractId);\n\n        return _contractId;\n    }\n\n\n    function addInvoiceToContract(uint256 _contractId, uint256 _invoiceId)\n    onlyWhitelisted\n    public returns (uint256 _id) {\n        require(_contractId != 0, \"Invalid contract ID\");\n        require(contracts[_contractId].state == State.Pending || contracts[_contractId].state == State.Approved, \"Contract not in pending state\");\n\n        invoices[_contractId].push(_invoiceId);\n\n        emit InvoiceAdded(_contractId, _invoiceId);\n\n        return _contractId;\n    }\n\n    ///////////////////\n    // Query Methods //\n    ///////////////////\n\n    function getContract(uint256 _contractId)\n    external view\n    returns (uint256 creationDate, uint256 partyA, uint256 partyB, State state, bytes32 contractData, uint256[] memory invoiceIds) {\n        Contract memory _contract = contracts[_contractId];\n        return (\n        _contract.creationDate,\n        _contract.partyA,\n        _contract.partyB,\n        _contract.state,\n        _contract.contractData,\n        invoices[_contractId]\n        );\n    }\n\n    function getContractInvoices(uint256 _contractId)\n    external view\n    returns (uint256[] memory invoiceIds) {\n        return invoices[_contractId];\n    }\n\n}\n",
  "sourcePath": "/Users/jamesmorgan/Dropbox/workspace-blockrocket/digital-oracles-prototype/contracts/DigitalOracles.sol",
  "compiler": {
    "name": "solc",
    "version": "0.5.0+commit.1d4f565a.Emscripten.clang"
  },
  "schemaVersion": "3.0.1",
  "updatedAt": "2019-02-07T11:57:04.545Z",
  "devdoc": {
    "methods": {}
  },
  "userdoc": {
    "methods": {
      "constructor": "//////////////",
      "createContract(uint256,uint256)": {
        "notice": "//////////////////"
      },
      "getContract(uint256)": {
        "notice": "////////////////"
      }
    }
  }
}