{
  "contractName": "DigitalOracles",
  "abi": [
    {
      "constant": false,
      "inputs": [
        {
          "name": "account",
          "type": "address"
        }
      ],
      "name": "addWhitelisted",
      "outputs": [],
      "payable": false,
      "stateMutability": "nonpayable",
      "type": "function",
      "signature": "0x10154bad"
    },
    {
      "constant": false,
      "inputs": [
        {
          "name": "account",
          "type": "address"
        }
      ],
      "name": "removeWhitelisted",
      "outputs": [],
      "payable": false,
      "stateMutability": "nonpayable",
      "type": "function",
      "signature": "0x291d9549"
    },
    {
      "constant": true,
      "inputs": [
        {
          "name": "account",
          "type": "address"
        }
      ],
      "name": "isWhitelisted",
      "outputs": [
        {
          "name": "",
          "type": "bool"
        }
      ],
      "payable": false,
      "stateMutability": "view",
      "type": "function",
      "signature": "0x3af32abf"
    },
    {
      "constant": false,
      "inputs": [],
      "name": "renounceWhitelistAdmin",
      "outputs": [],
      "payable": false,
      "stateMutability": "nonpayable",
      "type": "function",
      "signature": "0x4c5a628c"
    },
    {
      "constant": false,
      "inputs": [
        {
          "name": "account",
          "type": "address"
        }
      ],
      "name": "addWhitelistAdmin",
      "outputs": [],
      "payable": false,
      "stateMutability": "nonpayable",
      "type": "function",
      "signature": "0x7362d9c8"
    },
    {
      "constant": true,
      "inputs": [
        {
          "name": "account",
          "type": "address"
        }
      ],
      "name": "isWhitelistAdmin",
      "outputs": [
        {
          "name": "",
          "type": "bool"
        }
      ],
      "payable": false,
      "stateMutability": "view",
      "type": "function",
      "signature": "0xbb5f747b"
    },
    {
      "constant": false,
      "inputs": [],
      "name": "renounceWhitelisted",
      "outputs": [],
      "payable": false,
      "stateMutability": "nonpayable",
      "type": "function",
      "signature": "0xd6cd9473"
    },
    {
      "inputs": [],
      "payable": false,
      "stateMutability": "nonpayable",
      "type": "constructor",
      "signature": "constructor"
    },
    {
      "anonymous": false,
      "inputs": [
        {
          "indexed": true,
          "name": "contractId",
          "type": "uint256"
        },
        {
          "indexed": true,
          "name": "partyA",
          "type": "uint256"
        }
      ],
      "name": "ContractCreated",
      "type": "event",
      "signature": "0xf9b35b99c874e29dc89fd22e00a5ee1d8c2947af038de771d92b37edc70274b2"
    },
    {
      "anonymous": false,
      "inputs": [
        {
          "indexed": true,
          "name": "contractId",
          "type": "uint256"
        },
        {
          "indexed": true,
          "name": "partyB",
          "type": "uint256"
        }
      ],
      "name": "ContractPartyBAdded",
      "type": "event",
      "signature": "0x204d8cd5497d47b1c5bd0a781a893304305bfeb2a03627bb37ccca07a0afc8eb"
    },
    {
      "anonymous": false,
      "inputs": [
        {
          "indexed": true,
          "name": "contractId",
          "type": "uint256"
        },
        {
          "indexed": true,
          "name": "contractData",
          "type": "string"
        }
      ],
      "name": "ContractApproved",
      "type": "event",
      "signature": "0xc888d2b0d0827ea1566096858f633ed53e752ed7d47341294d174c45ab0252a1"
    },
    {
      "anonymous": false,
      "inputs": [
        {
          "indexed": true,
          "name": "contractId",
          "type": "uint256"
        },
        {
          "indexed": true,
          "name": "state",
          "type": "uint8"
        }
      ],
      "name": "ContractStateChanged",
      "type": "event",
      "signature": "0x9457c2cd66a144975542c6fa2d94bc9e2fc20b498caaca45052ded00530d899e"
    },
    {
      "anonymous": false,
      "inputs": [
        {
          "indexed": true,
          "name": "contractId",
          "type": "uint256"
        }
      ],
      "name": "ContractTerminated",
      "type": "event",
      "signature": "0x5760684a9ae00ee4a9ccadd1b4cc0c9bc48ff36d7c91399445204ca23ec18857"
    },
    {
      "anonymous": false,
      "inputs": [
        {
          "indexed": true,
          "name": "contractId",
          "type": "uint256"
        },
        {
          "indexed": true,
          "name": "invoiceId",
          "type": "uint256"
        }
      ],
      "name": "InvoiceAdded",
      "type": "event",
      "signature": "0x4ec82c3ca9651aadf9d7220ebe32718733753b49d058d5a237b32f9dee0c0633"
    },
    {
      "anonymous": false,
      "inputs": [
        {
          "indexed": true,
          "name": "account",
          "type": "address"
        }
      ],
      "name": "WhitelistedAdded",
      "type": "event",
      "signature": "0xee1504a83b6d4a361f4c1dc78ab59bfa30d6a3b6612c403e86bb01ef2984295f"
    },
    {
      "anonymous": false,
      "inputs": [
        {
          "indexed": true,
          "name": "account",
          "type": "address"
        }
      ],
      "name": "WhitelistedRemoved",
      "type": "event",
      "signature": "0x270d9b30cf5b0793bbfd54c9d5b94aeb49462b8148399000265144a8722da6b6"
    },
    {
      "anonymous": false,
      "inputs": [
        {
          "indexed": true,
          "name": "account",
          "type": "address"
        }
      ],
      "name": "WhitelistAdminAdded",
      "type": "event",
      "signature": "0x22380c05984257a1cb900161c713dd71d39e74820f1aea43bd3f1bdd20961299"
    },
    {
      "anonymous": false,
      "inputs": [
        {
          "indexed": true,
          "name": "account",
          "type": "address"
        }
      ],
      "name": "WhitelistAdminRemoved",
      "type": "event",
      "signature": "0x0a8eb35e5ca14b3d6f28e4abf2f128dbab231a58b56e89beb5d636115001e165"
    },
    {
      "constant": false,
      "inputs": [
        {
          "name": "_contractId",
          "type": "uint256"
        },
        {
          "name": "_partyA",
          "type": "uint256"
        }
      ],
      "name": "createContract",
      "outputs": [
        {
          "name": "_id",
          "type": "uint256"
        }
      ],
      "payable": false,
      "stateMutability": "nonpayable",
      "type": "function",
      "signature": "0xdb5271d3"
    },
    {
      "constant": false,
      "inputs": [
        {
          "name": "_contractId",
          "type": "uint256"
        },
        {
          "name": "_partyB",
          "type": "uint256"
        }
      ],
      "name": "setPartyBToContract",
      "outputs": [
        {
          "name": "_id",
          "type": "uint256"
        }
      ],
      "payable": false,
      "stateMutability": "nonpayable",
      "type": "function",
      "signature": "0x9dfe5642"
    },
    {
      "constant": false,
      "inputs": [
        {
          "name": "_contractId",
          "type": "uint256"
        },
        {
          "name": "_state",
          "type": "uint8"
        }
      ],
      "name": "setContractState",
      "outputs": [
        {
          "name": "_id",
          "type": "uint256"
        }
      ],
      "payable": false,
      "stateMutability": "nonpayable",
      "type": "function",
      "signature": "0xb58f97bb"
    },
    {
      "constant": false,
      "inputs": [
        {
          "name": "_contractId",
          "type": "uint256"
        },
        {
          "name": "_partyB",
          "type": "uint256"
        },
        {
          "name": "_contractData",
          "type": "string"
        }
      ],
      "name": "approveContract",
      "outputs": [
        {
          "name": "_id",
          "type": "uint256"
        }
      ],
      "payable": false,
      "stateMutability": "nonpayable",
      "type": "function",
      "signature": "0x8d606a8f"
    },
    {
      "constant": false,
      "inputs": [
        {
          "name": "_contractId",
          "type": "uint256"
        },
        {
          "name": "_partyB",
          "type": "uint256"
        },
        {
          "name": "_contractData",
          "type": "string"
        },
        {
          "name": "_invoiceId",
          "type": "uint256"
        }
      ],
      "name": "approveContract",
      "outputs": [
        {
          "name": "_id",
          "type": "uint256"
        }
      ],
      "payable": false,
      "stateMutability": "nonpayable",
      "type": "function",
      "signature": "0xa50045ea"
    },
    {
      "constant": false,
      "inputs": [
        {
          "name": "_contractId",
          "type": "uint256"
        }
      ],
      "name": "terminateContract",
      "outputs": [
        {
          "name": "_id",
          "type": "uint256"
        }
      ],
      "payable": false,
      "stateMutability": "nonpayable",
      "type": "function",
      "signature": "0x263e3d5d"
    },
    {
      "constant": false,
      "inputs": [
        {
          "name": "_contractId",
          "type": "uint256"
        },
        {
          "name": "_invoiceId",
          "type": "uint256"
        }
      ],
      "name": "addInvoiceToContract",
      "outputs": [
        {
          "name": "_id",
          "type": "uint256"
        }
      ],
      "payable": false,
      "stateMutability": "nonpayable",
      "type": "function",
      "signature": "0x2206a5d4"
    },
    {
      "constant": true,
      "inputs": [
        {
          "name": "_contractId",
          "type": "uint256"
        }
      ],
      "name": "getContract",
      "outputs": [
        {
          "name": "creationDate",
          "type": "uint256"
        },
        {
          "name": "partyA",
          "type": "uint256"
        },
        {
          "name": "partyB",
          "type": "uint256"
        },
        {
          "name": "state",
          "type": "uint8"
        },
        {
          "name": "contractData",
          "type": "string"
        },
        {
          "name": "invoiceIds",
          "type": "uint256[]"
        }
      ],
      "payable": false,
      "stateMutability": "view",
      "type": "function",
      "signature": "0x6ebc8c86"
    },
    {
      "constant": true,
      "inputs": [
        {
          "name": "_contractId",
          "type": "uint256"
        }
      ],
      "name": "getContractInvoices",
      "outputs": [
        {
          "name": "invoiceIds",
          "type": "uint256[]"
        }
      ],
      "payable": false,
      "stateMutability": "view",
      "type": "function",
      "signature": "0xe5c945cc"
    }
  ],
  "bytecode": "0x60806040523480156200001157600080fd5b50620000263364010000000062000045810204565b6200003f336401000000006200062f6200009782021704565b620001d5565b62000060600082640100000000620014f3620000ce82021704565b604051600160a060020a038216907f22380c05984257a1cb900161c713dd71d39e74820f1aea43bd3f1bdd2096129990600090a250565b620000ab3364010000000062000129810204565b1515620000b757600080fd5b620000cb816401000000006200014b810204565b50565b600160a060020a0381161515620000e457600080fd5b620000f982826401000000006200019d810204565b156200010457600080fd5b600160a060020a0316600090815260209190915260409020805460ff19166001179055565b60006200014581836401000000006200142c6200019d82021704565b92915050565b62000166600182640100000000620014f3620000ce82021704565b604051600160a060020a038216907fee1504a83b6d4a361f4c1dc78ab59bfa30d6a3b6612c403e86bb01ef2984295f90600090a250565b6000600160a060020a0382161515620001b557600080fd5b50600160a060020a03166000908152602091909152604090205460ff1690565b6116d680620001e56000396000f3fe6080604052600436106100e55763ffffffff7c010000000000000000000000000000000000000000000000000000000060003504166310154bad81146100ea5780632206a5d41461011f578063263e3d5d14610161578063291d95491461018b5780633af32abf146101be5780634c5a628c146102055780636ebc8c861461021a5780637362d9c8146103275780638d606a8f1461035a5780639dfe564214610419578063a50045ea14610449578063b58f97bb1461050a578063bb5f747b1461053d578063d6cd947314610570578063db5271d314610585578063e5c945cc146105b5575b600080fd5b3480156100f657600080fd5b5061011d6004803603602081101561010d57600080fd5b5035600160a060020a031661062f565b005b34801561012b57600080fd5b5061014f6004803603604081101561014257600080fd5b508035906020013561064f565b60408051918252519081900360200190f35b34801561016d57600080fd5b5061014f6004803603602081101561018457600080fd5b5035610790565b34801561019757600080fd5b5061011d600480360360208110156101ae57600080fd5b5035600160a060020a0316610897565b3480156101ca57600080fd5b506101f1600480360360208110156101e157600080fd5b5035600160a060020a03166108b4565b604080519115158252519081900360200190f35b34801561021157600080fd5b5061011d6108cd565b34801561022657600080fd5b506102446004803603602081101561023d57600080fd5b50356108d8565b6040518087815260200186815260200185815260200184600381111561026657fe5b60ff1681526020018060200180602001838103835285818151815260200191508051906020019080838360005b838110156102ab578181015183820152602001610293565b50505050905090810190601f1680156102d85780820380516001836020036101000a031916815260200191505b508381038252845181528451602091820191808701910280838360005b8381101561030d5781810151838201526020016102f5565b505050509050019850505050505050505060405180910390f35b34801561033357600080fd5b5061011d6004803603602081101561034a57600080fd5b5035600160a060020a0316610a7d565b34801561036657600080fd5b5061014f6004803603606081101561037d57600080fd5b8135916020810135918101906060810160408201356401000000008111156103a457600080fd5b8201836020820111156103b657600080fd5b803590602001918460018302840111640100000000831117156103d857600080fd5b91908080601f016020809104026020016040519081016040528093929190818152602001838380828437600092019190915250929550610a9a945050505050565b34801561042557600080fd5b5061014f6004803603604081101561043c57600080fd5b5080359060200135610c7a565b34801561045557600080fd5b5061014f6004803603608081101561046c57600080fd5b81359160208101359181019060608101604082013564010000000081111561049357600080fd5b8201836020820111156104a557600080fd5b803590602001918460018302840111640100000000831117156104c757600080fd5b91908080601f0160208091040260200160405190810160405280939291908181526020018383808284376000920191909152509295505091359250610dd6915050565b34801561051657600080fd5b5061014f6004803603604081101561052d57600080fd5b508035906020013560ff16610fdc565b34801561054957600080fd5b506101f16004803603602081101561056057600080fd5b5035600160a060020a0316611117565b34801561057c57600080fd5b5061011d611129565b34801561059157600080fd5b5061014f600480360360408110156105a857600080fd5b5080359060200135611132565b3480156105c157600080fd5b506105df600480360360208110156105d857600080fd5b503561133a565b60408051602080825283518183015283519192839290830191858101910280838360005b8381101561061b578181015183820152602001610603565b505050509050019250505060405180910390f35b61063833611117565b151561064357600080fd5b61064c8161139c565b50565b600061065a336108b4565b151561066557600080fd5b8215156106aa576040805160e560020a62461bcd028152602060048201526013602482015260008051602061168b833981519152604482015290519081900360640190fd5b600160008481526002602052604090206004015460ff1660038111156106cc57fe5b14806106f75750600260008481526002602052604090206004015460ff1660038111156106f557fe5b145b151561073b576040805160e560020a62461bcd02815260206004820152601d602482015260008051602061166b833981519152604482015290519081900360640190fd5b6000838152600360209081526040808320805460018101825590845291832090910184905551839185917f4ec82c3ca9651aadf9d7220ebe32718733753b49d058d5a237b32f9dee0c06339190a35090919050565b600061079b336108b4565b15156107a657600080fd5b8115156107eb576040805160e560020a62461bcd028152602060048201526013602482015260008051602061168b833981519152604482015290519081900360640190fd5b600160008381526002602052604090206004015460ff16600381111561080d57fe5b14610850576040805160e560020a62461bcd02815260206004820152601d602482015260008051602061166b833981519152604482015290519081900360640190fd5b600082815260026020526040808220600401805460ff191660031790555183917f5760684a9ae00ee4a9ccadd1b4cc0c9bc48ff36d7c91399445204ca23ec1885791a25090565b6108a033611117565b15156108ab57600080fd5b61064c816113e4565b60006108c760018363ffffffff61142c16565b92915050565b6108d633611463565b565b6000806000806060806108e961158d565b600088815260026020818152604092839020835160c08101855281548152600182015492810192909252918201549281019290925260038082015460608401526004820154608084019160ff9091169081111561094257fe5b600381111561094d57fe5b815260058201805460408051602060026001851615610100026000190190941693909304601f81018490048402820184019092528181529382019392918301828280156109db5780601f106109b0576101008083540402835291602001916109db565b820191906000526020600020905b8154815290600101906020018083116109be57829003601f168201915b505050505081525050905080602001518160400151826060015183608001518460a00151600360008e815260200190815260200160002081915080805480602002602001604051908101604052809291908181526020018280548015610a6057602002820191906000526020600020905b815481526020019060010190808311610a4c575b505050505090509650965096509650965096505091939550919395565b610a8633611117565b1515610a9157600080fd5b61064c816114ab565b6000610aa5336108b4565b1515610ab057600080fd5b831515610af5576040805160e560020a62461bcd028152602060048201526013602482015260008051602061168b833981519152604482015290519081900360640190fd5b821515610b4c576040805160e560020a62461bcd02815260206004820152601160248201527f496e76616c696420706172747942204944000000000000000000000000000000604482015290519081900360640190fd5b600160008581526002602052604090206004015460ff166003811115610b6e57fe5b14610bb1576040805160e560020a62461bcd02815260206004820152601d602482015260008051602061166b833981519152604482015290519081900360640190fd5b600084815260026020818152604090922060048101805460ff1916909217909155600381018590558351610bed926005909201918501906115cf565b50816040518082805190602001908083835b60208310610c1e5780518252601f199092019160209182019101610bff565b5181516020939093036101000a60001901801990911692169190911790526040519201829003822093508792507fc888d2b0d0827ea1566096858f633ed53e752ed7d47341294d174c45ab0252a19160009150a3509192915050565b6000610c85336108b4565b1515610c9057600080fd5b821515610cd5576040805160e560020a62461bcd028152602060048201526013602482015260008051602061168b833981519152604482015290519081900360640190fd5b811515610d2c576040805160e560020a62461bcd02815260206004820152601060248201527f496e76616c696420706172747920494400000000000000000000000000000000604482015290519081900360640190fd5b600160008481526002602052604090206004015460ff166003811115610d4e57fe5b14610d91576040805160e560020a62461bcd02815260206004820152601d602482015260008051602061166b833981519152604482015290519081900360640190fd5b60008381526002602052604080822060030184905551839185917f204d8cd5497d47b1c5bd0a781a893304305bfeb2a03627bb37ccca07a0afc8eb9190a35090919050565b6000610de1336108b4565b1515610dec57600080fd5b841515610e31576040805160e560020a62461bcd028152602060048201526013602482015260008051602061168b833981519152604482015290519081900360640190fd5b831515610e88576040805160e560020a62461bcd02815260206004820152601160248201527f496e76616c696420706172747942204944000000000000000000000000000000604482015290519081900360640190fd5b600160008681526002602052604090206004015460ff166003811115610eaa57fe5b14610eed576040805160e560020a62461bcd02815260206004820152601d602482015260008051602061166b833981519152604482015290519081900360640190fd5b600085815260026020818152604090922060048101805460ff1916909217909155600381018690558451610f29926005909201918601906115cf565b5060008581526003602090815260408083208054600181018255908452928290209092018490559051845185928291908401908083835b60208310610f7f5780518252601f199092019160209182019101610f60565b5181516020939093036101000a60001901801990911692169190911790526040519201829003822093508892507fc888d2b0d0827ea1566096858f633ed53e752ed7d47341294d174c45ab0252a19160009150a350929392505050565b6000610fe7336108b4565b1515610ff257600080fd5b821515611037576040805160e560020a62461bcd028152602060048201526013602482015260008051602061168b833981519152604482015290519081900360640190fd5b60008381526002602052604081206004015460ff16600381111561105757fe5b146110ac576040805160e560020a62461bcd02815260206004820152601460248201527f436f6e7472616374206e6f742063726561746564000000000000000000000000604482015290519081900360640190fd5b6000838152600260205260409020600401805483919060ff191660018360038111156110d457fe5b02179055508160038111156110e557fe5b60405184907f9457c2cd66a144975542c6fa2d94bc9e2fc20b498caaca45052ded00530d899e90600090a35090919050565b60006108c7818363ffffffff61142c16565b6108d6336113e4565b600061113d336108b4565b151561114857600080fd5b82151561118d576040805160e560020a62461bcd028152602060048201526013602482015260008051602061168b833981519152604482015290519081900360640190fd5b8115156111e4576040805160e560020a62461bcd02815260206004820152601060248201527f496e76616c696420706172747920494400000000000000000000000000000000604482015290519081900360640190fd5b60008381526002602052604081206004015460ff16600381111561120457fe5b14611259576040805160e560020a62461bcd02815260206004820152601860248201527f436f6e747261637420616c726561647920637265617465640000000000000000604482015290519081900360640190fd5b6040805160c08101825284815242602080830191825282840186815260006060850181815260016080870181815288518087018a5284815260a08901528b84526002958690529790922086518155945185830155915192840192909255516003808401919091559351600483018054949593949193909260ff19909216919084908111156112e357fe5b021790555060a082015180516113039160058401916020909101906115cf565b505060405183915084907ff9b35b99c874e29dc89fd22e00a5ee1d8c2947af038de771d92b37edc70274b290600090a35090919050565b60008181526003602090815260409182902080548351818402810184019094528084526060939283018282801561139057602002820191906000526020600020905b81548152602001906001019080831161137c575b50505050509050919050565b6113ad60018263ffffffff6114f316565b604051600160a060020a038216907fee1504a83b6d4a361f4c1dc78ab59bfa30d6a3b6612c403e86bb01ef2984295f90600090a250565b6113f560018263ffffffff61154116565b604051600160a060020a038216907f270d9b30cf5b0793bbfd54c9d5b94aeb49462b8148399000265144a8722da6b690600090a250565b6000600160a060020a038216151561144357600080fd5b50600160a060020a03166000908152602091909152604090205460ff1690565b61147460008263ffffffff61154116565b604051600160a060020a038216907f0a8eb35e5ca14b3d6f28e4abf2f128dbab231a58b56e89beb5d636115001e16590600090a250565b6114bc60008263ffffffff6114f316565b604051600160a060020a038216907f22380c05984257a1cb900161c713dd71d39e74820f1aea43bd3f1bdd2096129990600090a250565b600160a060020a038116151561150857600080fd5b611512828261142c565b1561151c57600080fd5b600160a060020a0316600090815260209190915260409020805460ff19166001179055565b600160a060020a038116151561155657600080fd5b611560828261142c565b151561156b57600080fd5b600160a060020a0316600090815260209190915260409020805460ff19169055565b60c06040519081016040528060008152602001600081526020016000815260200160008152602001600060038111156115c257fe5b8152602001606081525090565b828054600181600116156101000203166002900490600052602060002090601f016020900481019282601f1061161057805160ff191683800117855561163d565b8280016001018555821561163d579182015b8281111561163d578251825591602001919060010190611622565b5061164992915061164d565b5090565b61166791905b808211156116495760008155600101611653565b9056fe436f6e7472616374206e6f7420696e2070656e64696e67207374617465000000496e76616c696420636f6e747261637420494400000000000000000000000000a165627a7a72305820f6e1ea61a081215666696b737380d4dad86ccc0613953faf3528a08bfdf03e880029",
  "source": "pragma solidity ^0.5.0;\n\nimport \"openzeppelin-solidity/contracts/access/roles/WhitelistedRole.sol\";\n\ncontract DigitalOracles is WhitelistedRole {\n\n    struct Contract {\n        uint256 contractId;     // The contract ID\n        uint256 creationDate;   // When the contract was created\n        uint256 partyA;         // Party B ID\n        uint256 partyB;         // Party A ID\n        State state;            // The contract state\n        string contractData;   // The IPFS hash of the approved contract\n    }\n\n    enum State {Blank, Pending, Approved, Terminated}\n\n    ////////////\n    // Events //\n    ////////////\n\n    event ContractCreated(uint256 indexed contractId, uint256 indexed partyA);\n    event ContractPartyBAdded(uint256 indexed contractId, uint256 indexed partyB);\n    event ContractApproved(uint256 indexed contractId, string indexed contractData);\n    event ContractStateChanged(uint256 indexed contractId, State indexed state);\n    event ContractTerminated(uint256 indexed contractId);\n    event InvoiceAdded(uint256 indexed contractId, uint256 indexed invoiceId);\n\n    // Contract ID -> Contract\n    mapping(uint256 => Contract) contracts;\n\n    // Contract ID -> Invoice IDs\n    mapping(uint256 => uint256[]) invoices;\n\n    /////////////////\n    // Constructor //\n    /////////////////\n\n    constructor () public{\n        super.addWhitelisted(msg.sender);\n    }\n\n    /////////////////////\n    // Contract Setup //\n    /////////////////////\n\n    function createContract(uint256 _contractId, uint256 _partyA)\n    onlyWhitelisted\n    public returns (uint256 _id) {\n        require(_contractId != 0, \"Invalid contract ID\");\n        require(_partyA != 0, \"Invalid party ID\");\n        require(contracts[_contractId].state == State.Blank, \"Contract already created\");\n\n        // Create Contract\n        contracts[_contractId] = Contract(_contractId, now, _partyA, 0, State.Pending, \"\");\n\n        emit ContractCreated(_contractId, _partyA);\n\n        return _contractId;\n    }\n\n    function setPartyBToContract(uint256 _contractId, uint256 _partyB)\n    onlyWhitelisted\n    public returns (uint256 _id) {\n        require(_contractId != 0, \"Invalid contract ID\");\n        require(_partyB != 0, \"Invalid party ID\");\n        require(contracts[_contractId].state == State.Pending, \"Contract not in pending state\");\n\n        // Update state\n        contracts[_contractId].partyB = _partyB;\n\n        emit ContractPartyBAdded(_contractId, _partyB);\n\n        return _contractId;\n    }\n\n    function setContractState(uint256 _contractId, State _state)\n    onlyWhitelisted\n    public returns (uint256 _id) {\n        require(_contractId != 0, \"Invalid contract ID\");\n        require(contracts[_contractId].state == State.Blank, \"Contract not created\");\n\n        contracts[_contractId].state = _state;\n\n        emit ContractStateChanged(_contractId, _state);\n\n        return _contractId;\n    }\n\n    function approveContract(uint256 _contractId, uint256 _partyB, string memory _contractData)\n    onlyWhitelisted\n    public returns (uint256 _id) {\n        require(_contractId != 0, \"Invalid contract ID\");\n        require(_partyB != 0, \"Invalid partyB ID\");\n        require(contracts[_contractId].state == State.Pending, \"Contract not in pending state\");\n\n        contracts[_contractId].state = State.Approved;\n        contracts[_contractId].partyB = _partyB;\n        contracts[_contractId].contractData = _contractData;\n\n        emit ContractApproved(_contractId, _contractData);\n\n        return _contractId;\n    }\n\n    function approveContract(uint256 _contractId, uint256 _partyB, string memory _contractData, uint256 _invoiceId)\n    onlyWhitelisted\n    public returns (uint256 _id) {\n        require(_contractId != 0, \"Invalid contract ID\");\n        require(_partyB != 0, \"Invalid partyB ID\");\n        require(contracts[_contractId].state == State.Pending, \"Contract not in pending state\");\n\n        contracts[_contractId].state = State.Approved;\n        contracts[_contractId].partyB = _partyB;\n        contracts[_contractId].contractData = _contractData;\n\n        invoices[_contractId].push(_invoiceId);\n\n        emit ContractApproved(_contractId, _contractData);\n\n        return _contractId;\n    }\n\n    function terminateContract(uint256 _contractId)\n    onlyWhitelisted\n    public returns (uint256 _id) {\n        require(_contractId != 0, \"Invalid contract ID\");\n        require(contracts[_contractId].state == State.Pending, \"Contract not in pending state\");\n\n        contracts[_contractId].state = State.Terminated;\n\n        emit ContractTerminated(_contractId);\n\n        return _contractId;\n    }\n\n\n    function addInvoiceToContract(uint256 _contractId, uint256 _invoiceId)\n    onlyWhitelisted\n    public returns (uint256 _id) {\n        require(_contractId != 0, \"Invalid contract ID\");\n        require(contracts[_contractId].state == State.Pending || contracts[_contractId].state == State.Approved, \"Contract not in pending state\");\n\n        invoices[_contractId].push(_invoiceId);\n\n        emit InvoiceAdded(_contractId, _invoiceId);\n\n        return _contractId;\n    }\n\n    ///////////////////\n    // Query Methods //\n    ///////////////////\n\n    function getContract(uint256 _contractId)\n    external view\n    returns (uint256 creationDate, uint256 partyA, uint256 partyB, State state, string memory contractData, uint256[] memory invoiceIds) {\n        Contract memory _contract = contracts[_contractId];\n        return (\n        _contract.creationDate,\n        _contract.partyA,\n        _contract.partyB,\n        _contract.state,\n        _contract.contractData,\n        invoices[_contractId]\n        );\n    }\n\n    function getContractInvoices(uint256 _contractId)\n    external view\n    returns (uint256[] memory invoiceIds) {\n        return invoices[_contractId];\n    }\n\n}\n",
  "sourcePath": "/Users/jamesmorgan/Dropbox/workspace-blockrocket/digital-oracles-prototype/contracts/DigitalOracles.sol",
  "compiler": {
    "name": "solc",
    "version": "0.5.0+commit.1d4f565a.Emscripten.clang"
  },
  "schemaVersion": "3.0.1",
  "updatedAt": "2019-02-07T15:01:37.303Z",
  "devdoc": {
    "methods": {}
  },
  "userdoc": {
    "methods": {
      "constructor": "//////////////",
      "createContract(uint256,uint256)": {
        "notice": "//////////////////"
      },
      "getContract(uint256)": {
        "notice": "////////////////"
      }
    }
  }
}