{
  "contractName": "DigitalOracles",
  "abi": [
    {
      "constant": false,
      "inputs": [],
      "name": "renounceOwnership",
      "outputs": [],
      "payable": false,
      "stateMutability": "nonpayable",
      "type": "function",
      "signature": "0x715018a6"
    },
    {
      "constant": true,
      "inputs": [],
      "name": "owner",
      "outputs": [
        {
          "name": "",
          "type": "address"
        }
      ],
      "payable": false,
      "stateMutability": "view",
      "type": "function",
      "signature": "0x8da5cb5b"
    },
    {
      "constant": true,
      "inputs": [],
      "name": "isOwner",
      "outputs": [
        {
          "name": "",
          "type": "bool"
        }
      ],
      "payable": false,
      "stateMutability": "view",
      "type": "function",
      "signature": "0x8f32d59b"
    },
    {
      "constant": false,
      "inputs": [
        {
          "name": "newOwner",
          "type": "address"
        }
      ],
      "name": "transferOwnership",
      "outputs": [],
      "payable": false,
      "stateMutability": "nonpayable",
      "type": "function",
      "signature": "0xf2fde38b"
    },
    {
      "anonymous": false,
      "inputs": [
        {
          "indexed": true,
          "name": "previousOwner",
          "type": "address"
        },
        {
          "indexed": true,
          "name": "newOwner",
          "type": "address"
        }
      ],
      "name": "OwnershipTransferred",
      "type": "event",
      "signature": "0x8be0079c531659141344cd1fd0a4f28419497f9722a3daafe3b4186f6b6457e0"
    },
    {
      "constant": false,
      "inputs": [
        {
          "name": "contractTypeId",
          "type": "uint256"
        },
        {
          "name": "name",
          "type": "string"
        },
        {
          "name": "active",
          "type": "bool"
        }
      ],
      "name": "createContractType",
      "outputs": [
        {
          "name": "_id",
          "type": "uint256"
        }
      ],
      "payable": false,
      "stateMutability": "nonpayable",
      "type": "function",
      "signature": "0xd0ff81e9"
    },
    {
      "constant": false,
      "inputs": [
        {
          "name": "contractTypeId",
          "type": "uint256"
        }
      ],
      "name": "disableContractType",
      "outputs": [
        {
          "name": "_id",
          "type": "uint256"
        }
      ],
      "payable": false,
      "stateMutability": "nonpayable",
      "type": "function",
      "signature": "0x5bf6b9c1"
    },
    {
      "constant": false,
      "inputs": [
        {
          "name": "partyId",
          "type": "uint256"
        },
        {
          "name": "name",
          "type": "string"
        },
        {
          "name": "active",
          "type": "bool"
        }
      ],
      "name": "createParty",
      "outputs": [
        {
          "name": "_id",
          "type": "uint256"
        }
      ],
      "payable": false,
      "stateMutability": "nonpayable",
      "type": "function",
      "signature": "0x983dbdaf"
    },
    {
      "constant": false,
      "inputs": [
        {
          "name": "partyId",
          "type": "uint256"
        }
      ],
      "name": "disableParty",
      "outputs": [
        {
          "name": "_id",
          "type": "uint256"
        }
      ],
      "payable": false,
      "stateMutability": "nonpayable",
      "type": "function",
      "signature": "0x2772111d"
    },
    {
      "constant": false,
      "inputs": [
        {
          "name": "contractId",
          "type": "uint256"
        },
        {
          "name": "name",
          "type": "string"
        },
        {
          "name": "contractTypeId",
          "type": "uint256"
        },
        {
          "name": "partyAId",
          "type": "uint256"
        },
        {
          "name": "partyBId",
          "type": "uint256"
        }
      ],
      "name": "createContract",
      "outputs": [
        {
          "name": "_id",
          "type": "uint256"
        }
      ],
      "payable": false,
      "stateMutability": "nonpayable",
      "type": "function",
      "signature": "0xe451de99"
    },
    {
      "constant": false,
      "inputs": [
        {
          "name": "contractId",
          "type": "uint256"
        },
        {
          "name": "name",
          "type": "string"
        },
        {
          "name": "contractTypeId",
          "type": "uint256"
        },
        {
          "name": "partyAId",
          "type": "uint256"
        },
        {
          "name": "partyBId",
          "type": "uint256"
        }
      ],
      "name": "updateContract",
      "outputs": [
        {
          "name": "_id",
          "type": "uint256"
        }
      ],
      "payable": false,
      "stateMutability": "nonpayable",
      "type": "function",
      "signature": "0xe71a89e8"
    },
    {
      "constant": false,
      "inputs": [
        {
          "name": "contractId",
          "type": "uint256"
        },
        {
          "name": "partyId",
          "type": "uint256"
        },
        {
          "name": "state",
          "type": "uint8"
        }
      ],
      "name": "settleContract",
      "outputs": [
        {
          "name": "_id",
          "type": "uint256"
        }
      ],
      "payable": false,
      "stateMutability": "nonpayable",
      "type": "function",
      "signature": "0x11b81fdb"
    }
  ],
  "bytecode": "0x6080604081905260008054600160a060020a0319163317808255600160a060020a0316917f8be0079c531659141344cd1fd0a4f28419497f9722a3daafe3b4186f6b6457e0908290a361100e806100576000396000f3fe6080604052600436106100ae5763ffffffff7c010000000000000000000000000000000000000000000000000000000060003504166311b81fdb81146100b35780632772111d146100fe5780635bf6b9c114610128578063715018a6146101525780638da5cb5b146101695780638f32d59b1461019a578063983dbdaf146101c3578063d0ff81e91461027f578063e451de991461033b578063e71a89e814610400578063f2fde38b146104c5575b600080fd5b3480156100bf57600080fd5b506100ec600480360360608110156100d657600080fd5b508035906020810135906040013560ff166104f8565b60408051918252519081900360200190f35b34801561010a57600080fd5b506100ec6004803603602081101561012157600080fd5b50356106e0565b34801561013457600080fd5b506100ec6004803603602081101561014b57600080fd5b5035610765565b34801561015e57600080fd5b506101676107ea565b005b34801561017557600080fd5b5061017e610854565b60408051600160a060020a039092168252519081900360200190f35b3480156101a657600080fd5b506101af610864565b604080519115158252519081900360200190f35b3480156101cf57600080fd5b506100ec600480360360608110156101e657600080fd5b8135919081019060408101602082013564010000000081111561020857600080fd5b82018360208201111561021a57600080fd5b8035906020019184600183028401116401000000008311171561023c57600080fd5b91908080601f0160208091040260200160405190810160405280939291908181526020018383808284376000920191909152509295505050503515159050610875565b34801561028b57600080fd5b506100ec600480360360608110156102a257600080fd5b813591908101906040810160208201356401000000008111156102c457600080fd5b8201836020820111156102d657600080fd5b803590602001918460018302840111640100000000831117156102f857600080fd5b91908080601f01602080910402602001604051908101604052809392919081815260200183838082843760009201919091525092955050505035151590506109d0565b34801561034757600080fd5b506100ec600480360360a081101561035e57600080fd5b8135919081019060408101602082013564010000000081111561038057600080fd5b82018360208201111561039257600080fd5b803590602001918460018302840111640100000000831117156103b457600080fd5b91908080601f0160208091040260200160405190810160405280939291908181526020018383808284376000920191909152509295505082359350505060208101359060400135610b0a565b34801561040c57600080fd5b506100ec600480360360a081101561042357600080fd5b8135919081019060408101602082013564010000000081111561044557600080fd5b82018360208201111561045757600080fd5b8035906020019184600183028401116401000000008311171561047957600080fd5b91908080601f0160208091040260200160405190810160405280939291908181526020018383808284376000920191909152509295505082359350505060208101359060400135610da9565b3480156104d157600080fd5b50610167600480360360208110156104e857600080fd5b5035600160a060020a0316610e8e565b6000610502610864565b151561050d57600080fd5b831515610552576040805160e560020a62461bcd02815260206004820152600a6024820152600080516020610fc3833981519152604482015290519081900360640190fd5b6000848152600360205260409020805415156105b8576040805160e560020a62461bcd02815260206004820152601160248201527f4e6f20636f6e747261637420666f756e64000000000000000000000000000000604482015290519081900360640190fd5b600085815260046020819052604090912090820154851415610636576060604051908101604052808681526020018560018111156105f257fe5b8152426020918201528151600284019081559082015160038401805460ff19166001838181111561061f57fe5b02179055506040820151816002015590505061068d565b848260040154141561068d5760606040519081016040528086815260200185600181111561066057fe5b8152426020918201528151600584019081559082015160068401805460ff19166001838181111561061f57fe5b6000600382015460ff1660018111156106a257fe5b1480156106c157506000600682015460ff1660018111156106bf57fe5b145b156106cf57805460ff191681555b426001919091015550929392505050565b60006106ea610864565b15156106f557600080fd5b6000828152600260205260409020541515610748576040805160e560020a62461bcd02815260206004820152600a6024820152600080516020610fc3833981519152604482015290519081900360640190fd5b506000818152600260205260409020600301805460ff1916905590565b600061076f610864565b151561077a57600080fd5b60008281526001602052604090205415156107cd576040805160e560020a62461bcd02815260206004820152600a6024820152600080516020610fc3833981519152604482015290519081900360640190fd5b506000818152600160205260409020600301805460ff1916905590565b6107f2610864565b15156107fd57600080fd5b60008054604051600160a060020a03909116907f8be0079c531659141344cd1fd0a4f28419497f9722a3daafe3b4186f6b6457e0908390a36000805473ffffffffffffffffffffffffffffffffffffffff19169055565b600054600160a060020a03165b90565b600054600160a060020a0316331490565b600061087f610864565b151561088a57600080fd5b8315156108cf576040805160e560020a62461bcd02815260206004820152600a6024820152600080516020610fc3833981519152604482015290519081900360640190fd5b60008481526002602052604090205415610958576040805160e560020a62461bcd028152602060048201526024808201527f43616e742063726561746520612070617274792077697468207468652073616d60448201527f6520494400000000000000000000000000000000000000000000000000000000606482015290519081900360840190fd5b604080516080810182528581524260208083019182528284018781528615156060850152600089815260028084529590208451815592516001840155518051939492936109ac938501929190910190610f2a565b50606091909101516003909101805460ff1916911515919091179055509192915050565b60006109da610864565b15156109e557600080fd5b831515610a2a576040805160e560020a62461bcd02815260206004820152600a6024820152600080516020610fc3833981519152604482015290519081900360640190fd5b60008481526001602052604090205415610ab4576040805160e560020a62461bcd02815260206004820152602360248201527f43616e7420637265617465206120747970652077697468207468652073616d6560448201527f2049440000000000000000000000000000000000000000000000000000000000606482015290519081900360840190fd5b604080516080810182528581524260208083019182528284018781528615156060850152600089815260018084529590208451815592519483019490945592518051929391926109ac9260028501920190610f2a565b6000610b14610864565b1515610b1f57600080fd5b851515610b64576040805160e560020a62461bcd02815260206004820152600a6024820152600080516020610fc3833981519152604482015290519081900360640190fd5b60008681526003602052604090205415610bee576040805160e560020a62461bcd02815260206004820152602760248201527f43616e7420637265617465206120636f6e74726163742077697468207468652060448201527f73616d6520494400000000000000000000000000000000000000000000000000606482015290519081900360840190fd5b6000838152600260205260409020541515610c53576040805160e560020a62461bcd02815260206004820152601260248201527f496e76616c696420506172747920412049440000000000000000000000000000604482015290519081900360640190fd5b6000828152600260205260409020541515610cb8576040805160e560020a62461bcd02815260206004820152601260248201527f496e76616c696420506172747920422049440000000000000000000000000000604482015290519081900360640190fd5b6000848152600160205260409020541515610d1d576040805160e560020a62461bcd02815260206004820152601860248201527f496e76616c696420636f6e747261637420747970652049440000000000000000604482015290519081900360640190fd5b6040805160c081018252878152426020808301918252828401898152606084018990526080840188905260a0840187905260008b8152600383529490942083518155915160018301559251805192939192610d7e9260028501920190610f2a565b50606082015160038201556080820151600482015560a0909101516005909101555093949350505050565b6000610db3610864565b1515610dbe57600080fd5b851515610e03576040805160e560020a62461bcd02815260206004820152600a6024820152600080516020610fc3833981519152604482015290519081900360640190fd5b6000868152600360205260409020541515610bee576040805160e560020a62461bcd02815260206004820152602760248201527f43616e7420637265617465206120636f6e74726163742077697468207468652060448201527f73616d6520494400000000000000000000000000000000000000000000000000606482015290519081900360840190fd5b610e96610864565b1515610ea157600080fd5b610eaa81610ead565b50565b600160a060020a0381161515610ec257600080fd5b60008054604051600160a060020a03808516939216917f8be0079c531659141344cd1fd0a4f28419497f9722a3daafe3b4186f6b6457e091a36000805473ffffffffffffffffffffffffffffffffffffffff1916600160a060020a0392909216919091179055565b828054600181600116156101000203166002900490600052602060002090601f016020900481019282601f10610f6b57805160ff1916838001178555610f98565b82800160010185558215610f98579182015b82811115610f98578251825591602001919060010190610f7d565b50610fa4929150610fa8565b5090565b61086191905b80821115610fa45760008155600101610fae56fe496e76616c696420494400000000000000000000000000000000000000000000a165627a7a723058206f9d246536f31eb116973e82dc3b123551094c8da8b83d363db219d942f1a46f0029",
  "source": "pragma solidity ^0.5.0;\n\nimport 'openzeppelin-solidity/contracts/ownership/Ownable.sol';\n\ncontract DigitalOracles is Ownable {\n\n    struct Party {\n        uint256 id;\n        uint256 creationDate;\n        string name;\n        bool active;\n    }\n\n    struct ContractType {\n        uint256 id;\n        uint256 creationDate;\n        string name;\n        bool active;\n    }\n\n    struct Contract {\n        uint256 id;\n        uint256 creationDate;\n        string name;\n        uint256 contractType;\n        uint256 partyA;\n        uint256 partyB;\n    }\n\n    enum ApprovalState {Approved, Rejected}\n\n    struct Approval {\n        uint256 partyId;\n        ApprovalState state;\n        uint256 updateDatetime;\n    }\n\n    struct Settlement {\n        ApprovalState state;\n        uint256 updateDatetime;\n        Approval partyASig;\n        Approval partyBSig;\n    }\n\n    // type ID -> ContractType\n    mapping(uint256 => ContractType) contractTypes;\n\n    // party ID -> Party\n    mapping(uint256 => Party) parties;\n\n    // contract ID -> Contract\n    mapping(uint256 => Contract) contractToContract;\n\n    // contract ID -> Settlement\n    mapping(uint256 => Settlement) contractToSettlement;\n\n    ///////////////////////////\n    // Contract Types Setup //\n    ///////////////////////////\n\n    function createContractType(uint256 contractTypeId, string memory name, bool active) public onlyOwner returns (uint256 _id) {\n        require(contractTypeId != 0, \"Invalid ID\");\n        require(contractTypes[contractTypeId].id == 0, \"Cant create a type with the same ID\");\n\n        contractTypes[contractTypeId] = ContractType(contractTypeId, now, name, active);\n\n        return contractTypeId;\n    }\n\n    function disableContractType(uint256 contractTypeId) public onlyOwner returns (uint256 _id)  {\n        require(contractTypes[contractTypeId].id != 0, \"Invalid ID\");\n\n        contractTypes[contractTypeId].active = false;\n\n        return contractTypeId;\n    }\n\n    /////////////////\n    // Party Setup //\n    /////////////////\n\n    function createParty(uint256 partyId, string memory name, bool active) public onlyOwner returns (uint256 _id) {\n        require(partyId != 0, \"Invalid ID\");\n        require(parties[partyId].id == 0, \"Cant create a party with the same ID\");\n\n        parties[partyId] = Party(partyId, now, name, active);\n\n        return partyId;\n    }\n\n    function disableParty(uint256 partyId) public onlyOwner returns (uint256 _id) {\n        require(parties[partyId].id != 0, \"Invalid ID\");\n\n        parties[partyId].active = false;\n\n        return partyId;\n    }\n\n    /////////////////////\n    // Contract Setup //\n    /////////////////////\n\n    function createContract(uint256 contractId, string memory name, uint256 contractTypeId, uint256 partyAId, uint256 partyBId) public onlyOwner returns (uint256 _id) {\n        require(contractId != 0, \"Invalid ID\");\n        require(contractToContract[contractId].id == 0, \"Cant create a contract with the same ID\");\n        require(parties[partyAId].id != 0, \"Invalid Party A ID\");\n        require(parties[partyBId].id != 0, \"Invalid Party B ID\");\n        require(contractTypes[contractTypeId].id != 0, \"Invalid contract type ID\");\n\n        contractToContract[contractId] = Contract(contractId, now, name, contractTypeId, partyAId, partyBId);\n\n        return contractId;\n    }\n\n    function updateContract(uint256 contractId, string memory name, uint256 contractTypeId, uint256 partyAId, uint256 partyBId) public onlyOwner returns (uint256 _id) {\n        require(contractId != 0, \"Invalid ID\");\n        require(contractToContract[contractId].id != 0, \"Cant create a contract with the same ID\");\n        require(parties[partyAId].id != 0, \"Invalid Party A ID\");\n        require(parties[partyBId].id != 0, \"Invalid Party B ID\");\n        require(contractTypes[contractTypeId].id != 0, \"Invalid contract type ID\");\n\n        contractToContract[contractId] = Contract(contractId, now, name, contractTypeId, partyAId, partyBId);\n\n        return contractId;\n    }\n\n    /////////////////////////\n    // Contract Settlement //\n    /////////////////////////\n\n    function settleContract(uint256 contractId, uint256 partyId, ApprovalState state) public onlyOwner returns (uint256 _id) {\n        require(contractId != 0, \"Invalid ID\");\n\n        Contract storage con = contractToContract[contractId];\n        require(con.id != 0, \"No contract found\");\n\n        Settlement storage settlement = contractToSettlement[contractId];\n\n        if (con.partyA == partyId) {\n            settlement.partyASig = Approval(partyId, state, now);\n        }\n        else if (con.partyA == partyId) {\n            settlement.partyBSig = Approval(partyId, state, now);\n        }\n        else {\n            // TODO throw error as not matching either party\n        }\n\n        // Update to fully approved if match\n        if (settlement.partyASig.state == ApprovalState.Approved && settlement.partyBSig.state == ApprovalState.Approved) {\n            settlement.state = ApprovalState.Approved;\n        }\n\n        // Always save last updated\n        settlement.updateDatetime = now;\n\n        return contractId;\n    }\n\n}\n",
  "sourcePath": "/Users/jamesmorgan/Dropbox/workspace-blockrocket/digital-oracles-prototype/contracts/DigitalOracles.sol",
  "compiler": {
    "name": "solc",
    "version": "0.5.0+commit.1d4f565a.Emscripten.clang"
  },
  "schemaVersion": "3.0.1",
  "updatedAt": "2019-01-21T13:15:46.417Z",
  "devdoc": {
    "methods": {
      "isOwner()": {
        "return": "true if `msg.sender` is the owner of the contract."
      },
      "owner()": {
        "return": "the address of the owner."
      },
      "renounceOwnership()": {
        "details": "Allows the current owner to relinquish control of the contract."
      },
      "transferOwnership(address)": {
        "details": "Allows the current owner to transfer control of the contract to a newOwner.",
        "params": {
          "newOwner": "The address to transfer ownership to."
        }
      }
    }
  },
  "userdoc": {
    "methods": {
      "createContract(uint256,string,uint256,uint256,uint256)": {
        "notice": "//////////////////"
      },
      "createContractType(uint256,string,bool)": {
        "notice": "////////////////////////"
      },
      "createParty(uint256,string,bool)": {
        "notice": "//////////////"
      },
      "renounceOwnership()": {
        "notice": "Renouncing to ownership will leave the contract without an owner. It will not be possible to call the functions with the `onlyOwner` modifier anymore."
      },
      "settleContract(uint256,uint256,uint8)": {
        "notice": "//////////////////////"
      }
    }
  }
}