{
  "contractName": "DigitalOracles",
  "abi": [
    {
      "constant": false,
      "inputs": [
        {
          "name": "account",
          "type": "address"
        }
      ],
      "name": "addWhitelisted",
      "outputs": [],
      "payable": false,
      "stateMutability": "nonpayable",
      "type": "function"
    },
    {
      "constant": false,
      "inputs": [
        {
          "name": "account",
          "type": "address"
        }
      ],
      "name": "removeWhitelisted",
      "outputs": [],
      "payable": false,
      "stateMutability": "nonpayable",
      "type": "function"
    },
    {
      "constant": true,
      "inputs": [
        {
          "name": "account",
          "type": "address"
        }
      ],
      "name": "isWhitelisted",
      "outputs": [
        {
          "name": "",
          "type": "bool"
        }
      ],
      "payable": false,
      "stateMutability": "view",
      "type": "function"
    },
    {
      "constant": false,
      "inputs": [],
      "name": "renounceWhitelistAdmin",
      "outputs": [],
      "payable": false,
      "stateMutability": "nonpayable",
      "type": "function"
    },
    {
      "constant": false,
      "inputs": [
        {
          "name": "account",
          "type": "address"
        }
      ],
      "name": "addWhitelistAdmin",
      "outputs": [],
      "payable": false,
      "stateMutability": "nonpayable",
      "type": "function"
    },
    {
      "constant": true,
      "inputs": [
        {
          "name": "account",
          "type": "address"
        }
      ],
      "name": "isWhitelistAdmin",
      "outputs": [
        {
          "name": "",
          "type": "bool"
        }
      ],
      "payable": false,
      "stateMutability": "view",
      "type": "function"
    },
    {
      "constant": false,
      "inputs": [],
      "name": "renounceWhitelisted",
      "outputs": [],
      "payable": false,
      "stateMutability": "nonpayable",
      "type": "function"
    },
    {
      "inputs": [],
      "payable": false,
      "stateMutability": "nonpayable",
      "type": "constructor"
    },
    {
      "anonymous": false,
      "inputs": [
        {
          "indexed": true,
          "name": "contractId",
          "type": "uint256"
        },
        {
          "indexed": true,
          "name": "partyA",
          "type": "uint256"
        },
        {
          "indexed": true,
          "name": "_partyB",
          "type": "uint256"
        },
        {
          "indexed": false,
          "name": "_contractData",
          "type": "string"
        }
      ],
      "name": "ContractCreated",
      "type": "event"
    },
    {
      "anonymous": false,
      "inputs": [
        {
          "indexed": true,
          "name": "contractId",
          "type": "uint256"
        },
        {
          "indexed": true,
          "name": "originalState",
          "type": "uint8"
        },
        {
          "indexed": true,
          "name": "state",
          "type": "uint8"
        }
      ],
      "name": "ContractStateChanged",
      "type": "event"
    },
    {
      "anonymous": false,
      "inputs": [
        {
          "indexed": true,
          "name": "contractId",
          "type": "uint256"
        }
      ],
      "name": "ContractApproved",
      "type": "event"
    },
    {
      "anonymous": false,
      "inputs": [
        {
          "indexed": true,
          "name": "contractId",
          "type": "uint256"
        }
      ],
      "name": "ContractTerminated",
      "type": "event"
    },
    {
      "anonymous": false,
      "inputs": [
        {
          "indexed": true,
          "name": "contractId",
          "type": "uint256"
        },
        {
          "indexed": true,
          "name": "replacementContractId",
          "type": "uint256"
        }
      ],
      "name": "ContractReplaced",
      "type": "event"
    },
    {
      "anonymous": false,
      "inputs": [
        {
          "indexed": true,
          "name": "contractId",
          "type": "uint256"
        },
        {
          "indexed": true,
          "name": "invoiceId",
          "type": "uint256"
        },
        {
          "indexed": true,
          "name": "invoiceStatus",
          "type": "uint8"
        }
      ],
      "name": "InvoiceAdded",
      "type": "event"
    },
    {
      "anonymous": false,
      "inputs": [
        {
          "indexed": true,
          "name": "contractId",
          "type": "uint256"
        },
        {
          "indexed": true,
          "name": "invoiceId",
          "type": "uint256"
        },
        {
          "indexed": false,
          "name": "originalState",
          "type": "uint8"
        },
        {
          "indexed": false,
          "name": "newStatus",
          "type": "uint8"
        }
      ],
      "name": "InvoiceStateChanged",
      "type": "event"
    },
    {
      "anonymous": false,
      "inputs": [
        {
          "indexed": true,
          "name": "account",
          "type": "address"
        }
      ],
      "name": "WhitelistedAdded",
      "type": "event"
    },
    {
      "anonymous": false,
      "inputs": [
        {
          "indexed": true,
          "name": "account",
          "type": "address"
        }
      ],
      "name": "WhitelistedRemoved",
      "type": "event"
    },
    {
      "anonymous": false,
      "inputs": [
        {
          "indexed": true,
          "name": "account",
          "type": "address"
        }
      ],
      "name": "WhitelistAdminAdded",
      "type": "event"
    },
    {
      "anonymous": false,
      "inputs": [
        {
          "indexed": true,
          "name": "account",
          "type": "address"
        }
      ],
      "name": "WhitelistAdminRemoved",
      "type": "event"
    },
    {
      "constant": false,
      "inputs": [
        {
          "name": "_contractId",
          "type": "uint256"
        },
        {
          "name": "_startDate",
          "type": "uint256"
        },
        {
          "name": "_endDate",
          "type": "uint256"
        },
        {
          "name": "_partyA",
          "type": "uint256"
        },
        {
          "name": "_partyB",
          "type": "uint256"
        },
        {
          "name": "_contractData",
          "type": "string"
        },
        {
          "name": "_duration",
          "type": "uint8"
        },
        {
          "name": "_contractHasValue",
          "type": "bool"
        },
        {
          "name": "_paymentFrequency",
          "type": "uint8"
        },
        {
          "name": "_paymentFrequencyValue",
          "type": "uint256"
        },
        {
          "name": "_clientPaymentTerms",
          "type": "uint8"
        },
        {
          "name": "_clientPaymentTermsValue",
          "type": "uint256"
        }
      ],
      "name": "createContract",
      "outputs": [
        {
          "name": "_id",
          "type": "uint256"
        }
      ],
      "payable": false,
      "stateMutability": "nonpayable",
      "type": "function"
    },
    {
      "constant": false,
      "inputs": [
        {
          "name": "_contractId",
          "type": "uint256"
        },
        {
          "name": "_state",
          "type": "uint8"
        }
      ],
      "name": "updateContractState",
      "outputs": [
        {
          "name": "_id",
          "type": "uint256"
        }
      ],
      "payable": false,
      "stateMutability": "nonpayable",
      "type": "function"
    },
    {
      "constant": false,
      "inputs": [
        {
          "name": "_contractId",
          "type": "uint256"
        },
        {
          "name": "_replacementContractId",
          "type": "uint256"
        }
      ],
      "name": "replaceContract",
      "outputs": [
        {
          "name": "_id",
          "type": "uint256"
        }
      ],
      "payable": false,
      "stateMutability": "nonpayable",
      "type": "function"
    },
    {
      "constant": false,
      "inputs": [
        {
          "name": "_contractId",
          "type": "uint256"
        }
      ],
      "name": "approveContract",
      "outputs": [
        {
          "name": "_id",
          "type": "uint256"
        }
      ],
      "payable": false,
      "stateMutability": "nonpayable",
      "type": "function"
    },
    {
      "constant": false,
      "inputs": [
        {
          "name": "_contractId",
          "type": "uint256"
        }
      ],
      "name": "terminateContract",
      "outputs": [
        {
          "name": "_id",
          "type": "uint256"
        }
      ],
      "payable": false,
      "stateMutability": "nonpayable",
      "type": "function"
    },
    {
      "constant": false,
      "inputs": [
        {
          "name": "_contractId",
          "type": "uint256"
        },
        {
          "name": "_invoiceId",
          "type": "uint256"
        },
        {
          "name": "_invoiceStatus",
          "type": "uint8"
        }
      ],
      "name": "addInvoiceToContract",
      "outputs": [
        {
          "name": "_id",
          "type": "uint256"
        }
      ],
      "payable": false,
      "stateMutability": "nonpayable",
      "type": "function"
    },
    {
      "constant": false,
      "inputs": [
        {
          "name": "_contractId",
          "type": "uint256"
        },
        {
          "name": "_invoiceId",
          "type": "uint256"
        },
        {
          "name": "_invoiceStatus",
          "type": "uint8"
        }
      ],
      "name": "updateInvoiceState",
      "outputs": [
        {
          "name": "_id",
          "type": "uint256"
        }
      ],
      "payable": false,
      "stateMutability": "nonpayable",
      "type": "function"
    },
    {
      "constant": true,
      "inputs": [
        {
          "name": "_contractId",
          "type": "uint256"
        }
      ],
      "name": "getContractDetails",
      "outputs": [
        {
          "name": "creationDate",
          "type": "uint256"
        },
        {
          "name": "startDate",
          "type": "uint256"
        },
        {
          "name": "endDate",
          "type": "uint256"
        },
        {
          "name": "partyA",
          "type": "uint256"
        },
        {
          "name": "partyB",
          "type": "uint256"
        },
        {
          "name": "state",
          "type": "uint8"
        },
        {
          "name": "duration",
          "type": "uint8"
        },
        {
          "name": "contractData",
          "type": "string"
        }
      ],
      "payable": false,
      "stateMutability": "view",
      "type": "function"
    },
    {
      "constant": true,
      "inputs": [
        {
          "name": "_contractId",
          "type": "uint256"
        }
      ],
      "name": "getContractTerms",
      "outputs": [
        {
          "name": "contractHasValue",
          "type": "bool"
        },
        {
          "name": "paymentFrequency",
          "type": "uint8"
        },
        {
          "name": "paymentFrequencyValue",
          "type": "uint256"
        },
        {
          "name": "clientPaymentTerms",
          "type": "uint8"
        },
        {
          "name": "clientPaymentTermsValue",
          "type": "uint256"
        }
      ],
      "payable": false,
      "stateMutability": "view",
      "type": "function"
    },
    {
      "constant": true,
      "inputs": [
        {
          "name": "_contractId",
          "type": "uint256"
        }
      ],
      "name": "getContractInvoices",
      "outputs": [
        {
          "name": "invoiceIds",
          "type": "uint256[]"
        }
      ],
      "payable": false,
      "stateMutability": "view",
      "type": "function"
    },
    {
      "constant": true,
      "inputs": [
        {
          "name": "_invoiceId",
          "type": "uint256"
        }
      ],
      "name": "getContractInvoiceDetails",
      "outputs": [
        {
          "name": "invoiceStatus",
          "type": "uint8"
        },
        {
          "name": "contractId",
          "type": "uint256"
        }
      ],
      "payable": false,
      "stateMutability": "view",
      "type": "function"
    }
  ],
  "bytecode": "0x60806040523480156200001157600080fd5b50620000263364010000000062000045810204565b6200003f33640100000000620006ac6200009782021704565b620001d5565b6200006060008264010000000062001e35620000ce82021704565b604051600160a060020a038216907f22380c05984257a1cb900161c713dd71d39e74820f1aea43bd3f1bdd2096129990600090a250565b620000ab3364010000000062000129810204565b1515620000b757600080fd5b620000cb816401000000006200014b810204565b50565b600160a060020a0381161515620000e457600080fd5b620000f982826401000000006200019d810204565b156200010457600080fd5b600160a060020a0316600090815260209190915260409020805460ff19166001179055565b600062000145818364010000000062001d6e6200019d82021704565b92915050565b6200016660018264010000000062001e35620000ce82021704565b604051600160a060020a038216907fee1504a83b6d4a361f4c1dc78ab59bfa30d6a3b6612c403e86bb01ef2984295f90600090a250565b6000600160a060020a0382161515620001b557600080fd5b50600160a060020a03166000908152602091909152604090205460ff1690565b61204380620001e56000396000f3fe6080604052600436106100fb5763ffffffff7c010000000000000000000000000000000000000000000000000000000060003504166310154bad81146101005780631187497e14610135578063263e3d5d1461017a578063291d9549146101a457806333ca0e9b146101d75780633af32abf1461021057806340757f38146102575780634c5a628c146102875780634d6d6a9c1461029c57806362c35c011461038b5780636ff42c38146103b55780637362d9c8146103ee57806373b732b1146104215780638247a1901461051b578063bb5f747b14610595578063c5cb4e7a146105c8578063d6cd94731461061d578063e5c945cc14610632575b600080fd5b34801561010c57600080fd5b506101336004803603602081101561012357600080fd5b5035600160a060020a03166106ac565b005b34801561014157600080fd5b506101686004803603604081101561015857600080fd5b508035906020013560ff166106cc565b60408051918252519081900360200190f35b34801561018657600080fd5b506101686004803603602081101561019d57600080fd5b5035610818565b3480156101b057600080fd5b50610133600480360360208110156101c757600080fd5b5035600160a060020a0316610983565b3480156101e357600080fd5b50610168600480360360608110156101fa57600080fd5b508035906020810135906040013560ff166109a0565b34801561021c57600080fd5b506102436004803603602081101561023357600080fd5b5035600160a060020a0316610d5f565b604080519115158252519081900360200190f35b34801561026357600080fd5b506101686004803603604081101561027a57600080fd5b5080359060200135610d78565b34801561029357600080fd5b50610133610f15565b3480156102a857600080fd5b506102c6600480360360208110156102bf57600080fd5b5035610f20565b604051808981526020018881526020018781526020018681526020018581526020018460048111156102f457fe5b60ff16815260200183600281111561030857fe5b60ff16815260200180602001828103825283818151815260200191508051906020019080838360005b83811015610349578181015183820152602001610331565b50505050905090810190601f1680156103765780820380516001836020036101000a031916815260200191505b50995050505050505050505060405180910390f35b34801561039757600080fd5b50610168600480360360208110156103ae57600080fd5b503561112e565b3480156103c157600080fd5b50610168600480360360608110156103d857600080fd5b508035906020810135906040013560ff1661124a565b3480156103fa57600080fd5b506101336004803603602081101561041157600080fd5b5035600160a060020a031661164b565b34801561042d57600080fd5b50610168600480360361018081101561044557600080fd5b8135916020810135916040820135916060810135916080820135919081019060c0810160a082013564010000000081111561047f57600080fd5b82018360208201111561049157600080fd5b803590602001918460018302840111640100000000831117156104b357600080fd5b91908080601f0160208091040260200160405190810160405280939291908181526020018383808284376000920191909152509295505050813560ff908116935060208301351515926040810135821692506060810135916080820135169060a00135611668565b34801561052757600080fd5b506105456004803603602081101561053e57600080fd5b5035611a4e565b60405185151581526020810185600881111561055d57fe5b60ff16815260200184815260200183600281111561057757fe5b60ff1681526020018281526020019550505050505060405180910390f35b3480156105a157600080fd5b50610243600480360360208110156105b857600080fd5b5035600160a060020a0316611c3e565b3480156105d457600080fd5b506105f2600480360360208110156105eb57600080fd5b5035611c50565b6040518083600481111561060257fe5b60ff1681526020018281526020019250505060405180910390f35b34801561062957600080fd5b50610133611c73565b34801561063e57600080fd5b5061065c6004803603602081101561065557600080fd5b5035611c7c565b60408051602080825283518183015283519192839290830191858101910280838360005b83811015610698578181015183820152602001610680565b505050509050019250505060405180910390f35b6106b533611c3e565b15156106c057600080fd5b6106c981611cde565b50565b60006106d733610d5f565b15156106e257600080fd5b821515610727576040805160e560020a62461bcd0281526020600482015260136024820152600080516020611ff8833981519152604482015290519081900360640190fd5b60008381526002602052604081206005015460ff16600481111561074757fe5b1461079c576040805160e560020a62461bcd02815260206004820152601460248201527f436f6e7472616374206e6f742063726561746564000000000000000000000000604482015290519081900360640190fd5b6000838152600260205260409020600501805460ff811691849160ff191660018360048111156107c857fe5b02179055508260048111156107d957fe5b8160048111156107e557fe5b60405186907fc440e03d4d90d134cb8debb8402e5978e150052e37d6c52c9bcac6113312138390600090a4509192915050565b600061082333610d5f565b151561082e57600080fd5b811515610873576040805160e560020a62461bcd0281526020600482015260136024820152600080516020611ff8833981519152604482015290519081900360640190fd5b600160008381526002602052604090206005015460ff16600481111561089557fe5b14806108c05750600260008381526002602052604090206005015460ff1660048111156108be57fe5b145b151561093c576040805160e560020a62461bcd02815260206004820152602960248201527f436f6e7472616374206e6f7420696e2070656e64696e67206f7220617070726f60448201527f7665642073746174650000000000000000000000000000000000000000000000606482015290519081900360840190fd5b600082815260026020526040808220600501805460ff191660031790555183917f5760684a9ae00ee4a9ccadd1b4cc0c9bc48ff36d7c91399445204ca23ec1885791a25090565b61098c33611c3e565b151561099757600080fd5b6106c981611d26565b60006109ab33610d5f565b15156109b657600080fd5b8315156109fb576040805160e560020a62461bcd0281526020600482015260136024820152600080516020611ff8833981519152604482015290519081900360640190fd5b821515610a52576040805160e560020a62461bcd02815260206004820152601260248201527f496e76616c696420696e766f6963652049440000000000000000000000000000604482015290519081900360640190fd5b6000826004811115610a6057fe5b14610adb576040805160e560020a62461bcd02815260206004820152602760248201527f43616e6e6f7420616464206120696e766f69636520696e20746865207374617460448201527f6520626c616e6b00000000000000000000000000000000000000000000000000606482015290519081900360840190fd5b600160008581526002602052604090206005015460ff166004811115610afd57fe5b1480610b285750600260008581526002602052604090206005015460ff166004811115610b2657fe5b145b1515610ba4576040805160e560020a62461bcd02815260206004820152602960248201527f436f6e7472616374206e6f7420696e2070656e64696e67206f7220617070726f60448201527f7665642073746174650000000000000000000000000000000000000000000000606482015290519081900360840190fd5b60008381526005602052604090205415610c2e576040805160e560020a62461bcd02815260206004820152602a60248201527f436f6e74726163742061646420696e766f69636520746f206d756c7469706c6560448201527f20636f6e74726163747300000000000000000000000000000000000000000000606482015290519081900360840190fd5b600083815260046020819052604082205460ff1690811115610c4c57fe5b14610cc7576040805160e560020a62461bcd02815260206004820152602760248201527f43616e6e6f7420616464206120696e766f69636520617320616c72656164792060448201527f6372656174656400000000000000000000000000000000000000000000000000606482015290519081900360840190fd5b60008481526003602090815260408083208054600181810183559185528385200187905586845260058352818420889055600492839052922080548593919260ff1990911691908490811115610d1957fe5b0217905550816004811115610d2a57fe5b604051849086907ff641e196cd8402aad8ef015c33100d57f636908e91058db02561590d48d253bd90600090a4509092915050565b6000610d7260018363ffffffff611d6e16565b92915050565b6000610d8333610d5f565b1515610d8e57600080fd5b821515610dd3576040805160e560020a62461bcd0281526020600482015260136024820152600080516020611ff8833981519152604482015290519081900360640190fd5b600360008481526002602052604090206005015460ff166004811115610df557fe5b1415610e4b576040805160e560020a62461bcd02815260206004820152601e60248201527f436f6e747261637420697320616c7265616479207465726d696e617465640000604482015290519081900360640190fd5b60008281526002602052604081206005015460ff166004811115610e6b57fe5b1415610ec1576040805160e560020a62461bcd02815260206004820181905260248201527f5265706c6163656d656e7420636f6e7472616374206e6f742063726561746564604482015290519081900360640190fd5b60008381526002602052604080822060058101805460ff1916600417905560060184905551839185917fac5a4dd5bfca5fea47b1d5861065a9c55c252b3464443b299207430c2bd9bd709190a35090919050565b610f1e33611da5565b565b60008060008060008060006060610f35611ecf565b60008a81526002602081815260409283902083516101e081018552815481526001808301548285015282850154828701526003830154606083015260048301805487519281161561010002600019011695909504601f810185900485028201850190965285815290949193608086019391929091830182828015610ffa5780601f10610fcf57610100808354040283529160200191610ffa565b820191906000526020600020905b815481529060010190602001808311610fdd57829003601f168201915b5050509183525050600582015460209091019060ff16600481111561101b57fe5b600481111561102657fe5b8152600682015460208201526007820154604082015260088201546060820152600982015460809091019060ff16600281111561105f57fe5b600281111561106a57fe5b8152600982015460ff61010082048116151560208401526040909201916201000090910416600881111561109a57fe5b60088111156110a557fe5b8152600a8201546020820152600b82015460409091019060ff1660028111156110ca57fe5b60028111156110d557fe5b8152602001600c82015481525050905080602001518160e00151826101000151836040015184606001518560a0015186610120015187608001518090509850985098509850985098509850985050919395975091939597565b600061113933610d5f565b151561114457600080fd5b811515611189576040805160e560020a62461bcd0281526020600482015260136024820152600080516020611ff8833981519152604482015290519081900360640190fd5b600160008381526002602052604090206005015460ff1660048111156111ab57fe5b14611200576040805160e560020a62461bcd02815260206004820152601d60248201527f436f6e7472616374206e6f7420696e2070656e64696e67207374617465000000604482015290519081900360640190fd5b6000828152600260208190526040808320600501805460ff19169092179091555183917fd197ef70dfa5d30c3e023138d4396103a72967d6a6ab897fdd1eecb9427e7e4c91a25090565b600061125533610d5f565b151561126057600080fd5b8315156112a5576040805160e560020a62461bcd0281526020600482015260136024820152600080516020611ff8833981519152604482015290519081900360640190fd5b8215156112fc576040805160e560020a62461bcd02815260206004820152601260248201527f496e76616c696420696e766f6963652049440000000000000000000000000000604482015290519081900360640190fd5b600082600481111561130a57fe5b1415611386576040805160e560020a62461bcd02815260206004820152602760248201527f43616e6e6f7420616464206120696e766f69636520696e20746865207374617460448201527f6520626c616e6b00000000000000000000000000000000000000000000000000606482015290519081900360840190fd5b600182600481111561139457fe5b14156113ea576040805160e560020a62461bcd02815260206004820152601b60248201527f43616e6e6f74206d6f7665206261636b20746f2070656e64696e670000000000604482015290519081900360640190fd5b600160008581526002602052604090206005015460ff16600481111561140c57fe5b14806114375750600260008581526002602052604090206005015460ff16600481111561143557fe5b145b15156114b3576040805160e560020a62461bcd02815260206004820152602960248201527f436f6e7472616374206e6f7420696e2070656e64696e67206f7220617070726f60448201527f7665642073746174650000000000000000000000000000000000000000000000606482015290519081900360840190fd5b600083815260056020526040902054841461153e576040805160e560020a62461bcd02815260206004820152602260248201527f436f6e7472616374206e6f74206173736f63696174656420746f20696e766f6960448201527f6365000000000000000000000000000000000000000000000000000000000000606482015290519081900360840190fd5b600083815260046020819052604082205460ff169081111561155c57fe5b14156115b2576040805160e560020a62461bcd02815260206004820152601760248201527f496e766f696365206e6f74206372656174656420796574000000000000000000604482015290519081900360640190fd5b6000838152600460208190526040909120805460ff81169285929160ff19169060019084908111156115e057fe5b021790555083857f40546da51610fcef64a3a9b7cdd0b269fdda56d71ce874390150b52e829b4c0983866040518083600481111561161a57fe5b60ff16815260200182600481111561162e57fe5b60ff1681526020019250505060405180910390a350919392505050565b61165433611c3e565b151561165f57600080fd5b6106c981611ded565b600061167333610d5f565b151561167e57600080fd5b8c15156116c3576040805160e560020a62461bcd0281526020600482015260136024820152600080516020611ff8833981519152604482015290519081900360640190fd5b89151561171a576040805160e560020a62461bcd02815260206004820152601060248201527f496e76616c696420706172747920494400000000000000000000000000000000604482015290519081900360640190fd5b881515611771576040805160e560020a62461bcd02815260206004820152601060248201527f496e76616c696420706172747920494400000000000000000000000000000000604482015290519081900360640190fd5b60008d81526002602052604081206005015460ff16600481111561179157fe5b146117e6576040805160e560020a62461bcd02815260206004820152601860248201527f436f6e747261637420616c726561647920637265617465640000000000000000604482015290519081900360640190fd5b604080516101e0810182528e81524260208201529081018b9052606081018a90526080810189905260a0810160018152602001600081526020018d81526020018c815260200188600281111561183857fe5b8152602001871515815260200186600881111561185157fe5b815260200185815260200184600281111561186857fe5b8152602090810184905260008f81526002808352604091829020845181558484015160018201559184015190820155606083015160038201556080830151805191926118bc92600485019290910190611f5c565b5060a082015160058201805460ff191660018360048111156118da57fe5b021790555060c0820151600682015560e08201516007820155610100820151600882015561012082015160098201805460ff1916600183600281111561191c57fe5b02179055506101408201516009820180549115156101000261ff001990921691909117808255610160840151919062ff000019166201000083600881111561196057fe5b0217905550610180820151600a8201556101a0820151600b8201805460ff1916600183600281111561198e57fe5b02179055506101c082015181600c0155905050888a8e7fc2ac6aa92d8f896141b5a8ecb40b8b5124ea7fef469ed8e85fce90a2a70aaafd8b6040518080602001828103825283818151815260200191508051906020019080838360005b83811015611a035781810151838201526020016119eb565b50505050905090810190601f168015611a305780820380516001836020036101000a031916815260200191505b509250505060405180910390a4509a9b9a5050505050505050505050565b6000806000806000611a5e611ecf565b60008781526002602081815260409283902083516101e081018552815481526001808301548285015282850154828701526003830154606083015260048301805487519281161561010002600019011695909504601f810185900485028201850190965285815290949193608086019391929091830182828015611b235780601f10611af857610100808354040283529160200191611b23565b820191906000526020600020905b815481529060010190602001808311611b0657829003601f168201915b5050509183525050600582015460209091019060ff166004811115611b4457fe5b6004811115611b4f57fe5b8152600682015460208201526007820154604082015260088201546060820152600982015460809091019060ff166002811115611b8857fe5b6002811115611b9357fe5b8152600982015460ff610100820481161515602084015260409092019162010000909104166008811115611bc357fe5b6008811115611bce57fe5b8152600a8201546020820152600b82015460409091019060ff166002811115611bf357fe5b6002811115611bfe57fe5b8152600c91909101546020909101526101408101516101608201516101808301516101a08401516101c090940151929b919a509850919650945092505050565b6000610d72818363ffffffff611d6e16565b60009081526004602090815260408083205460059092529091205460ff90911691565b610f1e33611d26565b600081815260036020908152604091829020805483518184028101840190945280845260609392830182828015611cd257602002820191906000526020600020905b815481526020019060010190808311611cbe575b50505050509050919050565b611cef60018263ffffffff611e3516565b604051600160a060020a038216907fee1504a83b6d4a361f4c1dc78ab59bfa30d6a3b6612c403e86bb01ef2984295f90600090a250565b611d3760018263ffffffff611e8316565b604051600160a060020a038216907f270d9b30cf5b0793bbfd54c9d5b94aeb49462b8148399000265144a8722da6b690600090a250565b6000600160a060020a0382161515611d8557600080fd5b50600160a060020a03166000908152602091909152604090205460ff1690565b611db660008263ffffffff611e8316565b604051600160a060020a038216907f0a8eb35e5ca14b3d6f28e4abf2f128dbab231a58b56e89beb5d636115001e16590600090a250565b611dfe60008263ffffffff611e3516565b604051600160a060020a038216907f22380c05984257a1cb900161c713dd71d39e74820f1aea43bd3f1bdd2096129990600090a250565b600160a060020a0381161515611e4a57600080fd5b611e548282611d6e565b15611e5e57600080fd5b600160a060020a0316600090815260209190915260409020805460ff19166001179055565b600160a060020a0381161515611e9857600080fd5b611ea28282611d6e565b1515611ead57600080fd5b600160a060020a0316600090815260209190915260409020805460ff19169055565b6101e060405190810160405280600081526020016000815260200160008152602001600081526020016060815260200160006004811115611f0c57fe5b815260200160008152602001600081526020016000815260200160006002811115611f3357fe5b815260006020820181905260408201819052606082018190526080820181905260a09091015290565b828054600181600116156101000203166002900490600052602060002090601f016020900481019282601f10611f9d57805160ff1916838001178555611fca565b82800160010185558215611fca579182015b82811115611fca578251825591602001919060010190611faf565b50611fd6929150611fda565b5090565b611ff491905b80821115611fd65760008155600101611fe0565b9056fe496e76616c696420636f6e747261637420494400000000000000000000000000a165627a7a72305820101b487820b57c84feedeb50a82a71465d1ec5715e7b50e88564b22771804f920029",
  "source": "pragma solidity ^0.5.0;\n\nimport \"openzeppelin-solidity/contracts/access/roles/WhitelistedRole.sol\";\n\ncontract DigitalOracles is WhitelistedRole {\n\n    struct Contract {\n        uint256 contractId;          // The contract ID\n        uint256 creationDate;        // When the contract was created\n        uint256 partyA;              // Party B ID\n        uint256 partyB;              // Party A ID\n        string contractData;         // The IPFS hash of the approved contract\n        State state;                 // The contract state\n\n        uint256 replacementContractId; // This ID will be set when the contract moves into the state\n\n        uint256 startDate;           // Project start date\n        uint256 endDate;             // Project end date\n\n        ContractDuration duration;  // Duration of the project (indefinitely or fixed term)\n        bool contractHasValue;      // Will the Parties receive remuneration for work done?\n\n        PaymentFrequency paymentFrequency;  // When will the client be paid?\n        uint256 paymentFrequencyValue;      // The corresponding payment terms value e.g. a percentage, a date or a monetary value\n\n        ClientPaymentTerms clientPaymentTerms;  // The client will pay the invoice\n        uint256 clientPaymentTermsValue;        // The corresponding client payment terms value e.g. a number of dates\n    }\n\n    enum State {\n        Blank, // not set\n        Pending, // pending awaiting details\n        Approved, // approved, details received\n        Terminated, // terminated the contract\n        Replaced    // replaced by new contract\n    }\n\n    enum ContractDuration {\n        Blank, // not set\n        Indefinite, // indefinitely until termination\n        FixedTerm // based on project start/end\n    }\n\n    enum PaymentFrequency {\n        Blank, // not set\n        HourlyRate, // A set hourly rate\n        Daily, // invoiceable daily\n        Weekly, // invoiceable weekly\n        Monthly, // invoiceable monthly\n        Yearly, // invoiceable yearly\n        OnCompletion, // when work is complete\n        PercentageUpFront, // a percentage upfront, remaining on completion\n        OnDate // On a specific date\n    }\n\n    enum ClientPaymentTerms {\n        Blank, // not set\n        UponReceipt, // when receipt is received\n        WithXDays // within a certain number of days\n    }\n\n    enum InvoiceStatus {\n        Blank,\n        Pending,\n        Paid,\n        Refunded,\n        Delayed\n    }\n\n    ////////////\n    // Events //\n    ////////////\n\n    // Contract events\n    event ContractCreated(uint256 indexed contractId, uint256 indexed partyA, uint256 indexed _partyB, string _contractData);\n    event ContractStateChanged(uint256 indexed contractId, State indexed originalState, State indexed state);\n    event ContractApproved(uint256 indexed contractId);\n    event ContractTerminated(uint256 indexed contractId);\n    event ContractReplaced(uint256 indexed contractId, uint256 indexed replacementContractId);\n\n    // Invoice events\n    event InvoiceAdded(uint256 indexed contractId, uint256 indexed invoiceId, InvoiceStatus indexed invoiceStatus);\n    event InvoiceStateChanged(uint256 indexed contractId, uint256 indexed invoiceId, InvoiceStatus originalState, InvoiceStatus newStatus);\n\n    // Contract ID -> Contract\n    mapping(uint256 => Contract) contracts;\n\n    // Contract ID -> Invoice IDs\n    mapping(uint256 => uint256[]) invoicesIds;\n\n    // Invoice ID -> Invoice\n    mapping(uint256 => InvoiceStatus) invoiceToInvoiceStatus; // once in state Pending, dont allow to move back to this state\n\n    // Invoice ID => Contract ID\n    mapping(uint256 => uint256) invoiceToContractId; // reverse lookups and checking if invoice is attached to another contract\n\n    /////////////////\n    // Constructor //\n    /////////////////\n\n    constructor () public{\n        super.addWhitelisted(msg.sender);\n    }\n\n    /////////////////////\n    // Contract Setup //\n    /////////////////////\n\n    function createContract(\n        uint256 _contractId,\n        uint256 _startDate,\n        uint256 _endDate,\n        uint256 _partyA,\n        uint256 _partyB,\n        string memory _contractData,\n        ContractDuration _duration,\n        bool _contractHasValue,\n        PaymentFrequency _paymentFrequency,\n        uint256 _paymentFrequencyValue,\n        ClientPaymentTerms _clientPaymentTerms,\n        uint256 _clientPaymentTermsValue\n    )\n    onlyWhitelisted\n    public returns (uint256 _id) {\n        require(_contractId != 0, \"Invalid contract ID\");\n        require(_partyA != 0, \"Invalid party ID\");\n        require(_partyB != 0, \"Invalid party ID\");\n        require(contracts[_contractId].state == State.Blank, \"Contract already created\");\n\n        // Create Contract\n        contracts[_contractId] = Contract(\n            _contractId,\n            now, // creation date\n            _partyA,\n            _partyB,\n            _contractData,\n            State.Pending,\n            0, // set replacement ID to blank on creation\n            _startDate,\n            _endDate,\n            _duration,\n            _contractHasValue,\n            _paymentFrequency,\n            _paymentFrequencyValue,\n            _clientPaymentTerms,\n            _clientPaymentTermsValue\n        );\n\n        emit ContractCreated(_contractId, _partyA, _partyB, _contractData);\n\n        return _contractId;\n    }\n\n    function updateContractState(uint256 _contractId, State _state)\n    onlyWhitelisted\n    public returns (uint256 _id) {\n        require(_contractId != 0, \"Invalid contract ID\");\n        require(contracts[_contractId].state == State.Blank, \"Contract not created\");\n\n        State originalState = contracts[_contractId].state;\n\n        contracts[_contractId].state = _state;\n\n        emit ContractStateChanged(_contractId, originalState, _state);\n\n        return _contractId;\n    }\n\n    // TODO new test\n    function replaceContract(uint256 _contractId, uint256 _replacementContractId)\n    onlyWhitelisted\n    public returns (uint256 _id) {\n        require(_contractId != 0, \"Invalid contract ID\");\n        require(contracts[_contractId].state != State.Terminated, \"Contract is already terminated\");\n        require(contracts[_replacementContractId].state != State.Blank, \"Replacement contract not created\");\n\n        contracts[_contractId].state = State.Replaced;\n        contracts[_contractId].replacementContractId = _replacementContractId;\n\n        emit ContractReplaced(_contractId, _replacementContractId);\n\n        return _contractId;\n    }\n\n    function approveContract(uint256 _contractId)\n    onlyWhitelisted\n    public returns (uint256 _id) {\n        require(_contractId != 0, \"Invalid contract ID\");\n        require(contracts[_contractId].state == State.Pending, \"Contract not in pending state\");\n\n        contracts[_contractId].state = State.Approved;\n\n        emit ContractApproved(_contractId);\n\n        return _contractId;\n    }\n\n    function terminateContract(uint256 _contractId)\n    onlyWhitelisted\n    public returns (uint256 _id) {\n        require(_contractId != 0, \"Invalid contract ID\");\n        require(contracts[_contractId].state == State.Pending || contracts[_contractId].state == State.Approved, \"Contract not in pending or approved state\");\n\n        contracts[_contractId].state = State.Terminated;\n\n        emit ContractTerminated(_contractId);\n\n        return _contractId;\n    }\n\n    function addInvoiceToContract(uint256 _contractId, uint256 _invoiceId, InvoiceStatus _invoiceStatus)\n    onlyWhitelisted\n    public returns (uint256 _id) {\n        // Method arg validation\n        require(_contractId != 0, \"Invalid contract ID\");\n        require(_invoiceId != 0, \"Invalid invoice ID\");\n        require(_invoiceStatus == InvoiceStatus.Blank, \"Cannot add a invoice in the state blank\");\n\n        // Invoice mapping validation\n        require(contracts[_contractId].state == State.Pending || contracts[_contractId].state == State.Approved, \"Contract not in pending or approved state\");\n        require(invoiceToContractId[_invoiceId] == 0, \"Contract add invoice to multiple contracts\");\n        require(invoiceToInvoiceStatus[_invoiceId] == InvoiceStatus.Blank, \"Cannot add a invoice as already created\");\n\n        // Update contract to invoice mapping\n        invoicesIds[_contractId].push(_invoiceId);\n\n        // Update invoice to contract mapping\n        invoiceToContractId[_invoiceId] = _contractId;\n\n        // Update invoice state\n        invoiceToInvoiceStatus[_invoiceId] = _invoiceStatus;\n\n        emit InvoiceAdded(_contractId, _invoiceId, _invoiceStatus);\n\n        return _invoiceId;\n    }\n\n    function updateInvoiceState(uint256 _contractId, uint256 _invoiceId, InvoiceStatus _invoiceStatus)\n    onlyWhitelisted\n    public returns (uint256 _id) {\n        // Method arg validation\n        require(_contractId != 0, \"Invalid contract ID\");\n        require(_invoiceId != 0, \"Invalid invoice ID\");\n        require(_invoiceStatus != InvoiceStatus.Blank, \"Cannot add a invoice in the state blank\");\n        require(_invoiceStatus != InvoiceStatus.Pending, \"Cannot move back to pending\");\n\n        // Invoice mapping validation\n        require(contracts[_contractId].state == State.Pending || contracts[_contractId].state == State.Approved, \"Contract not in pending or approved state\");\n        require(invoiceToContractId[_invoiceId] == _contractId, \"Contract not associated to invoice\");\n        require(invoiceToInvoiceStatus[_invoiceId] != InvoiceStatus.Blank, \"Invoice not created yet\");\n\n        InvoiceStatus originalStatus = invoiceToInvoiceStatus[_invoiceId];\n\n        // Update invoice state\n        invoiceToInvoiceStatus[_invoiceId] = _invoiceStatus;\n\n        emit InvoiceStateChanged(_contractId, _invoiceId, originalStatus, _invoiceStatus);\n\n        return _invoiceId;\n    }\n\n    ///////////////////\n    // Query Methods //\n    ///////////////////\n\n    function getContractDetails(uint256 _contractId)\n    external view\n    returns (\n        uint256 creationDate,\n        uint256 startDate,\n        uint256 endDate,\n        uint256 partyA,\n        uint256 partyB,\n        State state,\n        ContractDuration duration,\n        string memory contractData\n    ) {\n        Contract memory _contract = contracts[_contractId];\n        return (\n        _contract.creationDate,\n        _contract.startDate,\n        _contract.endDate,\n        _contract.partyA,\n        _contract.partyB,\n        _contract.state,\n        _contract.duration,\n        _contract.contractData\n        );\n    }\n\n    function getContractTerms(uint256 _contractId)\n    external view\n    returns (\n        bool contractHasValue,\n        PaymentFrequency paymentFrequency,\n        uint256 paymentFrequencyValue,\n        ClientPaymentTerms clientPaymentTerms,\n        uint256 clientPaymentTermsValue\n    ) {\n        Contract memory _contract = contracts[_contractId];\n        return (\n        _contract.contractHasValue,\n        _contract.paymentFrequency,\n        _contract.paymentFrequencyValue,\n        _contract.clientPaymentTerms,\n        _contract.clientPaymentTermsValue\n        );\n    }\n\n    function getContractInvoices(uint256 _contractId)\n    external view\n    returns (uint256[] memory invoiceIds) {\n        return invoicesIds[_contractId];\n    }\n\n    function getContractInvoiceDetails(uint256 _invoiceId)\n    external view\n    returns (\n        InvoiceStatus invoiceStatus,\n        uint256 contractId\n    ) {\n        return (\n        invoiceToInvoiceStatus[_invoiceId],\n        invoiceToContractId[_invoiceId]\n        );\n    }\n\n}\n",
  "sourcePath": "/Users/jamesmorgan/Dropbox/workspace-blockrocket/digital-oracles-prototype/contracts/DigitalOracles.sol",
  "compiler": {
    "name": "solc",
    "version": "0.5.0+commit.1d4f565a.Emscripten.clang"
  },
  "schemaVersion": "3.0.1",
  "updatedAt": "2019-02-12T10:10:00.764Z",
  "devdoc": {
    "methods": {}
  },
  "userdoc": {
    "methods": {
      "constructor": "//////////////",
      "createContract(uint256,uint256,uint256,uint256,uint256,string,uint8,bool,uint8,uint256,uint8,uint256)": {
        "notice": "//////////////////"
      },
      "getContractDetails(uint256)": {
        "notice": "////////////////"
      }
    }
  }
}