{
  "contractName": "DigitalOraclesOld",
  "abi": [
    {
      "constant": false,
      "inputs": [],
      "name": "renounceOwnership",
      "outputs": [],
      "payable": false,
      "stateMutability": "nonpayable",
      "type": "function",
      "signature": "0x715018a6"
    },
    {
      "constant": true,
      "inputs": [],
      "name": "owner",
      "outputs": [
        {
          "name": "",
          "type": "address"
        }
      ],
      "payable": false,
      "stateMutability": "view",
      "type": "function",
      "signature": "0x8da5cb5b"
    },
    {
      "constant": true,
      "inputs": [],
      "name": "isOwner",
      "outputs": [
        {
          "name": "",
          "type": "bool"
        }
      ],
      "payable": false,
      "stateMutability": "view",
      "type": "function",
      "signature": "0x8f32d59b"
    },
    {
      "constant": false,
      "inputs": [
        {
          "name": "newOwner",
          "type": "address"
        }
      ],
      "name": "transferOwnership",
      "outputs": [],
      "payable": false,
      "stateMutability": "nonpayable",
      "type": "function",
      "signature": "0xf2fde38b"
    },
    {
      "anonymous": false,
      "inputs": [
        {
          "indexed": true,
          "name": "id",
          "type": "uint256"
        }
      ],
      "name": "ContractTypeAdded",
      "type": "event",
      "signature": "0x07d1a15f0cd0f5fd132dfc6e839dc743d7fc3b0853fcb6b8ff5fee288cb697c9"
    },
    {
      "anonymous": false,
      "inputs": [
        {
          "indexed": true,
          "name": "id",
          "type": "uint256"
        }
      ],
      "name": "ContractTypeUpdated",
      "type": "event",
      "signature": "0xe75d53a68b9ebd0ed00d2185f4375c51ff941eae4e3ca6ef44e66fcb18c2d0c1"
    },
    {
      "anonymous": false,
      "inputs": [
        {
          "indexed": true,
          "name": "id",
          "type": "uint256"
        }
      ],
      "name": "ContractTypeDisabled",
      "type": "event",
      "signature": "0x1bc452569759c6a51a7bd6686e1e3e6ae61831a03d293f3b3905797861458854"
    },
    {
      "anonymous": false,
      "inputs": [
        {
          "indexed": true,
          "name": "id",
          "type": "uint256"
        }
      ],
      "name": "ContractTypeEnabled",
      "type": "event",
      "signature": "0x0d9d0377f547935dd918b5cc0ef1c5ff6686b77bf1cf67e701fb631e17dfff72"
    },
    {
      "anonymous": false,
      "inputs": [
        {
          "indexed": true,
          "name": "id",
          "type": "uint256"
        }
      ],
      "name": "PartyAdded",
      "type": "event",
      "signature": "0x1036e669d40ae14bb2df60534b57ed743ca8c9e188cdf6b9eaf37b745fe8603e"
    },
    {
      "anonymous": false,
      "inputs": [
        {
          "indexed": true,
          "name": "id",
          "type": "uint256"
        }
      ],
      "name": "PartyUpdated",
      "type": "event",
      "signature": "0x3d69221ef664109e07ffc3be6c1f147f7329a9edcdb01f1212839c884068471b"
    },
    {
      "anonymous": false,
      "inputs": [
        {
          "indexed": true,
          "name": "id",
          "type": "uint256"
        }
      ],
      "name": "PartyEnabled",
      "type": "event",
      "signature": "0x0792a71a4991a6c477a4cf21d3c37b01c6e226511841394482e966aa219c3938"
    },
    {
      "anonymous": false,
      "inputs": [
        {
          "indexed": true,
          "name": "id",
          "type": "uint256"
        }
      ],
      "name": "PartyDisabled",
      "type": "event",
      "signature": "0x14887a4f34203e6d71e16e325a90f20ce6de95e1eb456b4dc50c130ec3b679b8"
    },
    {
      "anonymous": false,
      "inputs": [
        {
          "indexed": true,
          "name": "id",
          "type": "uint256"
        }
      ],
      "name": "ContractAdded",
      "type": "event",
      "signature": "0xac210b01e42cafdce02d0cd5dc41f3fe6a7245262f52a1cdf2a2eea60dada940"
    },
    {
      "anonymous": false,
      "inputs": [
        {
          "indexed": true,
          "name": "id",
          "type": "uint256"
        }
      ],
      "name": "ContractUpdated",
      "type": "event",
      "signature": "0x1d9fa56a87ca45734eb083fa91790c0e4ca990f9e3587510a93bd2a6405da100"
    },
    {
      "anonymous": false,
      "inputs": [
        {
          "indexed": true,
          "name": "id",
          "type": "uint256"
        }
      ],
      "name": "ContractEnabled",
      "type": "event",
      "signature": "0x9bc1c076886c717866cc3ab141a3c754a0958fba85d5f2d5a211418bdacdaf83"
    },
    {
      "anonymous": false,
      "inputs": [
        {
          "indexed": true,
          "name": "id",
          "type": "uint256"
        }
      ],
      "name": "ContractDisabled",
      "type": "event",
      "signature": "0xfac5fbc7faae66bf8d41f8ddc5a3c1f29ad4e2ff479e21ea004eeb5162b11c8d"
    },
    {
      "anonymous": false,
      "inputs": [
        {
          "indexed": true,
          "name": "previousOwner",
          "type": "address"
        },
        {
          "indexed": true,
          "name": "newOwner",
          "type": "address"
        }
      ],
      "name": "OwnershipTransferred",
      "type": "event",
      "signature": "0x8be0079c531659141344cd1fd0a4f28419497f9722a3daafe3b4186f6b6457e0"
    },
    {
      "constant": false,
      "inputs": [
        {
          "name": "contractTypeId",
          "type": "uint256"
        },
        {
          "name": "name",
          "type": "string"
        },
        {
          "name": "active",
          "type": "bool"
        }
      ],
      "name": "createContractType",
      "outputs": [
        {
          "name": "_id",
          "type": "uint256"
        }
      ],
      "payable": false,
      "stateMutability": "nonpayable",
      "type": "function",
      "signature": "0xd0ff81e9"
    },
    {
      "constant": false,
      "inputs": [
        {
          "name": "contractTypeId",
          "type": "uint256"
        },
        {
          "name": "name",
          "type": "string"
        }
      ],
      "name": "updateContractType",
      "outputs": [
        {
          "name": "_id",
          "type": "uint256"
        }
      ],
      "payable": false,
      "stateMutability": "nonpayable",
      "type": "function",
      "signature": "0xf9a6b8ff"
    },
    {
      "constant": false,
      "inputs": [
        {
          "name": "contractTypeId",
          "type": "uint256"
        }
      ],
      "name": "disableContractType",
      "outputs": [
        {
          "name": "_id",
          "type": "uint256"
        }
      ],
      "payable": false,
      "stateMutability": "nonpayable",
      "type": "function",
      "signature": "0x5bf6b9c1"
    },
    {
      "constant": false,
      "inputs": [
        {
          "name": "contractTypeId",
          "type": "uint256"
        }
      ],
      "name": "enableContractType",
      "outputs": [
        {
          "name": "_id",
          "type": "uint256"
        }
      ],
      "payable": false,
      "stateMutability": "nonpayable",
      "type": "function",
      "signature": "0x3274fae4"
    },
    {
      "constant": false,
      "inputs": [
        {
          "name": "partyId",
          "type": "uint256"
        },
        {
          "name": "name",
          "type": "string"
        },
        {
          "name": "active",
          "type": "bool"
        }
      ],
      "name": "createParty",
      "outputs": [
        {
          "name": "_id",
          "type": "uint256"
        }
      ],
      "payable": false,
      "stateMutability": "nonpayable",
      "type": "function",
      "signature": "0x983dbdaf"
    },
    {
      "constant": false,
      "inputs": [
        {
          "name": "partyId",
          "type": "uint256"
        },
        {
          "name": "name",
          "type": "string"
        }
      ],
      "name": "updateParty",
      "outputs": [
        {
          "name": "_id",
          "type": "uint256"
        }
      ],
      "payable": false,
      "stateMutability": "nonpayable",
      "type": "function",
      "signature": "0x0a6852a5"
    },
    {
      "constant": false,
      "inputs": [
        {
          "name": "partyId",
          "type": "uint256"
        }
      ],
      "name": "disableParty",
      "outputs": [
        {
          "name": "_id",
          "type": "uint256"
        }
      ],
      "payable": false,
      "stateMutability": "nonpayable",
      "type": "function",
      "signature": "0x2772111d"
    },
    {
      "constant": false,
      "inputs": [
        {
          "name": "partyId",
          "type": "uint256"
        }
      ],
      "name": "enableParty",
      "outputs": [
        {
          "name": "_id",
          "type": "uint256"
        }
      ],
      "payable": false,
      "stateMutability": "nonpayable",
      "type": "function",
      "signature": "0x13dd847f"
    },
    {
      "constant": false,
      "inputs": [
        {
          "name": "contractId",
          "type": "uint256"
        },
        {
          "name": "name",
          "type": "string"
        },
        {
          "name": "contractTypeId",
          "type": "uint256"
        },
        {
          "name": "partyAId",
          "type": "uint256"
        },
        {
          "name": "partyBId",
          "type": "uint256"
        }
      ],
      "name": "createContract",
      "outputs": [
        {
          "name": "_id",
          "type": "uint256"
        }
      ],
      "payable": false,
      "stateMutability": "nonpayable",
      "type": "function",
      "signature": "0xe451de99"
    },
    {
      "constant": false,
      "inputs": [
        {
          "name": "contractId",
          "type": "uint256"
        },
        {
          "name": "name",
          "type": "string"
        },
        {
          "name": "contractTypeId",
          "type": "uint256"
        },
        {
          "name": "partyAId",
          "type": "uint256"
        },
        {
          "name": "partyBId",
          "type": "uint256"
        }
      ],
      "name": "updateContract",
      "outputs": [
        {
          "name": "_id",
          "type": "uint256"
        }
      ],
      "payable": false,
      "stateMutability": "nonpayable",
      "type": "function",
      "signature": "0xe71a89e8"
    },
    {
      "constant": false,
      "inputs": [
        {
          "name": "contractId",
          "type": "uint256"
        }
      ],
      "name": "disableContract",
      "outputs": [
        {
          "name": "_id",
          "type": "uint256"
        }
      ],
      "payable": false,
      "stateMutability": "nonpayable",
      "type": "function",
      "signature": "0xccece381"
    },
    {
      "constant": false,
      "inputs": [
        {
          "name": "contractId",
          "type": "uint256"
        }
      ],
      "name": "enableContract",
      "outputs": [
        {
          "name": "_id",
          "type": "uint256"
        }
      ],
      "payable": false,
      "stateMutability": "nonpayable",
      "type": "function",
      "signature": "0x59c524da"
    },
    {
      "constant": false,
      "inputs": [
        {
          "name": "contractId",
          "type": "uint256"
        },
        {
          "name": "partyId",
          "type": "uint256"
        },
        {
          "name": "state",
          "type": "uint8"
        }
      ],
      "name": "settleContract",
      "outputs": [
        {
          "name": "_id",
          "type": "uint256"
        }
      ],
      "payable": false,
      "stateMutability": "nonpayable",
      "type": "function",
      "signature": "0x11b81fdb"
    },
    {
      "constant": true,
      "inputs": [
        {
          "name": "_id",
          "type": "uint256"
        }
      ],
      "name": "getContractType",
      "outputs": [
        {
          "name": "id",
          "type": "uint256"
        },
        {
          "name": "creationDate",
          "type": "uint256"
        },
        {
          "name": "name",
          "type": "string"
        },
        {
          "name": "active",
          "type": "bool"
        }
      ],
      "payable": false,
      "stateMutability": "view",
      "type": "function",
      "signature": "0xbdd4ae55"
    },
    {
      "constant": true,
      "inputs": [
        {
          "name": "_id",
          "type": "uint256"
        }
      ],
      "name": "getParty",
      "outputs": [
        {
          "name": "id",
          "type": "uint256"
        },
        {
          "name": "creationDate",
          "type": "uint256"
        },
        {
          "name": "name",
          "type": "string"
        },
        {
          "name": "active",
          "type": "bool"
        }
      ],
      "payable": false,
      "stateMutability": "view",
      "type": "function",
      "signature": "0x94758218"
    },
    {
      "constant": true,
      "inputs": [
        {
          "name": "_id",
          "type": "uint256"
        }
      ],
      "name": "getContract",
      "outputs": [
        {
          "name": "id",
          "type": "uint256"
        },
        {
          "name": "creationDate",
          "type": "uint256"
        },
        {
          "name": "name",
          "type": "string"
        },
        {
          "name": "contractType",
          "type": "uint256"
        },
        {
          "name": "partyA",
          "type": "uint256"
        },
        {
          "name": "partyB",
          "type": "uint256"
        },
        {
          "name": "active",
          "type": "bool"
        }
      ],
      "payable": false,
      "stateMutability": "view",
      "type": "function",
      "signature": "0x6ebc8c86"
    },
    {
      "constant": true,
      "inputs": [
        {
          "name": "_id",
          "type": "uint256"
        }
      ],
      "name": "getSettlement",
      "outputs": [
        {
          "name": "state",
          "type": "uint8"
        },
        {
          "name": "updateDatetime",
          "type": "uint256"
        },
        {
          "name": "partyA",
          "type": "uint256"
        },
        {
          "name": "partyAState",
          "type": "uint8"
        },
        {
          "name": "partyAUpdateDatetime",
          "type": "uint256"
        },
        {
          "name": "partyB",
          "type": "uint256"
        },
        {
          "name": "partyBState",
          "type": "uint8"
        },
        {
          "name": "partyBUpdateDatetime",
          "type": "uint256"
        }
      ],
      "payable": false,
      "stateMutability": "view",
      "type": "function",
      "signature": "0x4c582380"
    }
  ],
  "bytecode": "0x6080604081905260008054600160a060020a0319163317808255600160a060020a0316917f8be0079c531659141344cd1fd0a4f28419497f9722a3daafe3b4186f6b6457e0908290a3612340806100576000396000f3fe60806040526004361061011c5763ffffffff7c01000000000000000000000000000000000000000000000000000000006000350416630a6852a5811461012157806311b81fdb146101ed57806313dd847f146102265780632772111d146102505780633274fae41461027a5780634c582380146102a457806359c524da1461033f5780635bf6b9c1146103695780636ebc8c8614610393578063715018a6146104635780638da5cb5b1461047a5780638f32d59b146104ab57806394758218146104d4578063983dbdaf1461058f578063bdd4ae551461064b578063ccece38114610675578063d0ff81e91461069f578063e451de991461075b578063e71a89e814610820578063f2fde38b146108e5578063f9a6b8ff14610918575b600080fd5b34801561012d57600080fd5b506101db6004803603604081101561014457600080fd5b8135919081019060408101602082013564010000000081111561016657600080fd5b82018360208201111561017857600080fd5b8035906020019184600183028401116401000000008311171561019a57600080fd5b91908080601f0160208091040260200160405190810160405280939291908181526020018383808284376000920191909152509295506109d2945050505050565b60408051918252519081900360200190f35b3480156101f957600080fd5b506101db6004803603606081101561021057600080fd5b508035906020810135906040013560ff16610ac9565b34801561023257600080fd5b506101db6004803603602081101561024957600080fd5b5035610d9a565b34801561025c57600080fd5b506101db6004803603602081101561027357600080fd5b5035610e49565b34801561028657600080fd5b506101db6004803603602081101561029d57600080fd5b5035610ef5565b3480156102b057600080fd5b506102ce600480360360208110156102c757600080fd5b5035610fa7565b604051808960028111156102de57fe5b60ff1681526020018881526020018781526020018660028111156102fe57fe5b60ff16815260200185815260200184815260200183600281111561031e57fe5b60ff1681526020018281526020019850505050505050505060405180910390f35b34801561034b57600080fd5b506101db6004803603602081101561036257600080fd5b5035611100565b34801561037557600080fd5b506101db6004803603602081101561038c57600080fd5b50356111af565b34801561039f57600080fd5b506103bd600480360360208110156103b657600080fd5b503561125b565b604051808881526020018781526020018060200186815260200185815260200184815260200183151515158152602001828103825287818151815260200191508051906020019080838360005b8381101561042257818101518382015260200161040a565b50505050905090810190601f16801561044f5780820380516001836020036101000a031916815260200191505b509850505050505050505060405180910390f35b34801561046f57600080fd5b50610478611398565b005b34801561048657600080fd5b5061048f611402565b60408051600160a060020a039092168252519081900360200190f35b3480156104b757600080fd5b506104c0611412565b604080519115158252519081900360200190f35b3480156104e057600080fd5b506104fe600480360360208110156104f757600080fd5b5035611423565b604051808581526020018481526020018060200183151515158152602001828103825284818151815260200191508051906020019080838360005b83811015610551578181015183820152602001610539565b50505050905090810190601f16801561057e5780820380516001836020036101000a031916815260200191505b509550505050505060405180910390f35b34801561059b57600080fd5b506101db600480360360608110156105b257600080fd5b813591908101906040810160208201356401000000008111156105d457600080fd5b8201836020820111156105e657600080fd5b8035906020019184600183028401116401000000008311171561060857600080fd5b91908080601f016020809104026020016040519081016040528093929190818152602001838380828437600092019190915250929550505050351515905061151c565b34801561065757600080fd5b506104fe6004803603602081101561066e57600080fd5b50356116a2565b34801561068157600080fd5b506101db6004803603602081101561069857600080fd5b5035611734565b3480156106ab57600080fd5b506101db600480360360608110156106c257600080fd5b813591908101906040810160208201356401000000008111156106e457600080fd5b8201836020820111156106f657600080fd5b8035906020019184600183028401116401000000008311171561071857600080fd5b91908080601f01602080910402602001604051908101604052809392919081815260200183838082843760009201919091525092955050505035151590506117e0565b34801561076757600080fd5b506101db600480360360a081101561077e57600080fd5b813591908101906040810160208201356401000000008111156107a057600080fd5b8201836020820111156107b257600080fd5b803590602001918460018302840111640100000000831117156107d457600080fd5b91908080601f0160208091040260200160405190810160405280939291908181526020018383808284376000920191909152509295505082359350505060208101359060400135611969565b34801561082c57600080fd5b506101db600480360360a081101561084357600080fd5b8135919081019060408101602082013564010000000081111561086557600080fd5b82018360208201111561087757600080fd5b8035906020019184600183028401116401000000008311171561089957600080fd5b91908080601f0160208091040260200160405190810160405280939291908181526020018383808284376000920191909152509295505082359350505060208101359060400135611d1b565b3480156108f157600080fd5b506104786004803603602081101561090857600080fd5b5035600160a060020a0316612009565b34801561092457600080fd5b506101db6004803603604081101561093b57600080fd5b8135919081019060408101602082013564010000000081111561095d57600080fd5b82018360208201111561096f57600080fd5b8035906020019184600183028401116401000000008311171561099157600080fd5b91908080601f016020809104026020016040519081016040528093929190818152602001838380828437600092019190915250929550612028945050505050565b60006109dc611412565b15156109e757600080fd5b6000838152600260205260409020541515610a71576040805160e560020a62461bcd028152602060048201526024808201527f43616e742063726561746520612070617274792077697468207468652073616d60448201527f6520494400000000000000000000000000000000000000000000000000000000606482015290519081900360840190fd5b60008381526002602081815260409092208451610a969391909201919085019061219d565b5060405183907f3d69221ef664109e07ffc3be6c1f147f7329a9edcdb01f1212839c884068471b90600090a25090919050565b6000610ad3611412565b1515610ade57600080fd5b831515610b23576040805160e560020a62461bcd02815260206004820152600a60248201526000805160206122f5833981519152604482015290519081900360640190fd5b600084815260036020526040902080541515610b89576040805160e560020a62461bcd02815260206004820152601160248201527f4e6f20636f6e747261637420666f756e64000000000000000000000000000000604482015290519081900360640190fd5b600085815260046020819052604090912090820154851415610c1557606060405190810160405280868152602001856002811115610bc357fe5b815260200142815250816002016000820151816000015560208201518160010160006101000a81548160ff02191690836002811115610bfe57fe5b021790555060408201518160020155905050610ce3565b8482600501541415610c6d57606060405190810160405280868152602001856002811115610c3f57fe5b8152426020918201528151600584019081559082015160068401805460ff19166001836002811115610bfe57fe5b6040805160e560020a62461bcd02815260206004820152602c60248201527f4e6f206d617463686564207061727469657320666f72207468652070726f766960448201527f64656420636f6e74726163740000000000000000000000000000000000000000606482015290519081900360840190fd5b6001600382015460ff166002811115610cf857fe5b148015610d1757506001600682015460ff166002811115610d1557fe5b145b15610d34578054600190829060ff191682805b0217905550610d89565b6002600382015460ff166002811115610d4957fe5b148015610d6857506002600682015460ff166002811115610d6657fe5b145b15610d80578054600290829060ff1916600183610d2a565b805460ff191681555b426001919091015550929392505050565b6000610da4611412565b1515610daf57600080fd5b6000828152600260205260409020541515610e02576040805160e560020a62461bcd02815260206004820152600a60248201526000805160206122f5833981519152604482015290519081900360640190fd5b600082815260026020526040808220600301805460ff191660011790555183917f0792a71a4991a6c477a4cf21d3c37b01c6e226511841394482e966aa219c393891a25090565b6000610e53611412565b1515610e5e57600080fd5b6000828152600260205260409020541515610eb1576040805160e560020a62461bcd02815260206004820152600a60248201526000805160206122f5833981519152604482015290519081900360640190fd5b600082815260026020526040808220600301805460ff191690555183917f14887a4f34203e6d71e16e325a90f20ce6de95e1eb456b4dc50c130ec3b679b891a25090565b6000610eff611412565b1515610f0a57600080fd5b6000828152600160205260409020541515610f5d576040805160e560020a62461bcd02815260206004820152600a60248201526000805160206122f5833981519152604482015290519081900360640190fd5b6000828152600160208190526040808320600301805460ff19169092179091555183917f0d9d0377f547935dd918b5cc0ef1c5ff6686b77bf1cf67e701fb631e17dfff7291a25090565b600080600080600080600080610fbb61221b565b60008a815260046020526040908190208151608081019092528054829060ff166002811115610fe657fe5b6002811115610ff157fe5b8152602001600182015481526020016002820160606040519081016040529081600082015481526020016001820160009054906101000a900460ff16600281111561103857fe5b600281111561104357fe5b815260029182015460209182015291835260408051606081019091526005850180548252600686015494840194919390929084019160ff169081111561108557fe5b600281111561109057fe5b8152602001600282015481525050815250509050806000015181602001518260400151600001518360400151602001518460400151604001518560600151600001518660600151602001518760600151604001519850985098509850985098509850985050919395975091939597565b600061110a611412565b151561111557600080fd5b6000828152600360205260409020541515611168576040805160e560020a62461bcd02815260206004820152600a60248201526000805160206122f5833981519152604482015290519081900360640190fd5b600082815260036020526040808220600601805460ff191660011790555183917f9bc1c076886c717866cc3ab141a3c754a0958fba85d5f2d5a211418bdacdaf8391a25090565b60006111b9611412565b15156111c457600080fd5b6000828152600160205260409020541515611217576040805160e560020a62461bcd02815260206004820152600a60248201526000805160206122f5833981519152604482015290519081900360640190fd5b600082815260016020526040808220600301805460ff191690555183917f1bc452569759c6a51a7bd6686e1e3e6ae61831a03d293f3b390579786145885491a25090565b600080606060008060008061126e61224d565b600089815260036020908152604091829020825160e08101845281548152600180830154828501526002808401805487519381161561010002600019011691909104601f8101869004860283018601875280835292959394938601939192909183018282801561131f5780601f106112f45761010080835404028352916020019161131f565b820191906000526020600020905b81548152906001019060200180831161130257829003601f168201915b505050918352505060038201546020808301919091526004830154604080840191909152600584015460608085019190915260069094015460ff16151560809384015284519185015190850151938501519285015160a086015160c090960151929f919e50939c50919a50919850919650945092505050565b6113a0611412565b15156113ab57600080fd5b60008054604051600160a060020a03909116907f8be0079c531659141344cd1fd0a4f28419497f9722a3daafe3b4186f6b6457e0908390a36000805473ffffffffffffffffffffffffffffffffffffffff19169055565b600054600160a060020a03165b90565b600054600160a060020a0316331490565b6000806060600061143261228d565b60008681526002602081815260409283902083516080810185528154815260018083015482850152828501805487519281161561010002600019011695909504601f810185900485028201850187528082529195929492860193909291908301828280156114e15780601f106114b6576101008083540402835291602001916114e1565b820191906000526020600020905b8154815290600101906020018083116114c457829003601f168201915b50505091835250506003919091015460ff16151560209182015281519082015160408301516060909301519199909850919650945092505050565b6000611526611412565b151561153157600080fd5b831515611576576040805160e560020a62461bcd02815260206004820152600a60248201526000805160206122f5833981519152604482015290519081900360640190fd5b600084815260026020526040902054156115ff576040805160e560020a62461bcd028152602060048201526024808201527f43616e742063726561746520612070617274792077697468207468652073616d60448201527f6520494400000000000000000000000000000000000000000000000000000000606482015290519081900360840190fd5b6040805160808101825285815242602080830191825282840187815286151560608501526000898152600280845295902084518155925160018401555180519394929361165393850192919091019061219d565b50606091909101516003909101805460ff191691151591909117905560405184907f1036e669d40ae14bb2df60534b57ed743ca8c9e188cdf6b9eaf37b745fe8603e90600090a2509192915050565b600080606060006116b161228d565b60008681526001602081815260409283902083516080810185528154815281840154818401526002808301805487519681161561010002600019011691909104601f8101859004850286018501875280865291959294928601939091908301828280156114e15780601f106114b6576101008083540402835291602001916114e1565b600061173e611412565b151561174957600080fd5b600082815260036020526040902054151561179c576040805160e560020a62461bcd02815260206004820152600a60248201526000805160206122f5833981519152604482015290519081900360640190fd5b600082815260036020526040808220600601805460ff191690555183917ffac5fbc7faae66bf8d41f8ddc5a3c1f29ad4e2ff479e21ea004eeb5162b11c8d91a25090565b60006117ea611412565b15156117f557600080fd5b83151561183a576040805160e560020a62461bcd02815260206004820152600a60248201526000805160206122f5833981519152604482015290519081900360640190fd5b600084815260016020526040902054156118c4576040805160e560020a62461bcd02815260206004820152602360248201527f43616e7420637265617465206120747970652077697468207468652073616d6560448201527f2049440000000000000000000000000000000000000000000000000000000000606482015290519081900360840190fd5b6040805160808101825285815242602080830191825282840187815286151560608501526000898152600180845295902084518155925194830194909455925180519293919261191a926002850192019061219d565b50606091909101516003909101805460ff191691151591909117905560405184907f07d1a15f0cd0f5fd132dfc6e839dc743d7fc3b0853fcb6b8ff5fee288cb697c990600090a2509192915050565b6000611973611412565b151561197e57600080fd5b8515156119c3576040805160e560020a62461bcd02815260206004820152600a60248201526000805160206122f5833981519152604482015290519081900360640190fd5b60008681526003602052604090205415611a4d576040805160e560020a62461bcd02815260206004820152602760248201527f43616e7420637265617465206120636f6e74726163742077697468207468652060448201527f73616d6520494400000000000000000000000000000000000000000000000000606482015290519081900360840190fd5b6000838152600260205260409020541515611ab2576040805160e560020a62461bcd02815260206004820152601260248201527f496e76616c696420506172747920412049440000000000000000000000000000604482015290519081900360640190fd5b6000828152600260205260409020541515611b17576040805160e560020a62461bcd02815260206004820152601260248201527f496e76616c696420506172747920422049440000000000000000000000000000604482015290519081900360640190fd5b6000848152600160205260409020541515611b7c576040805160e560020a62461bcd02815260206004820152601860248201527f496e76616c696420636f6e747261637420747970652049440000000000000000604482015290519081900360640190fd5b6040805160e081018252878152426020808301918252828401898152606084018990526080840188905260a08401879052600160c0850181905260008c81526003845295909520845181559251948301949094559251805192939192611be8926002850192019061219d565b5060608281015160038301556080830151600483015560a0830151600583015560c0909201516006909101805460ff191691151591909117905560408051918201905283815260208101600081526000602091820181905288815260048252604090208251600280830191825592840151600390920180549193909160ff1916906001908490811115611c7757fe5b02179055506040918201516002909101558051606081019091528281526020810160008152600060209182018190528881526004825260409020825160058201908155918301516006909101805460ff19166001836002811115611cd757fe5b02179055506040918201516002909101555186907fac210b01e42cafdce02d0cd5dc41f3fe6a7245262f52a1cdf2a2eea60dada94090600090a25093949350505050565b6000611d25611412565b1515611d3057600080fd5b851515611d75576040805160e560020a62461bcd02815260206004820152600a60248201526000805160206122f5833981519152604482015290519081900360640190fd5b6000868152600360205260409020541515611e00576040805160e560020a62461bcd02815260206004820152602760248201527f43616e7420637265617465206120636f6e74726163742077697468207468652060448201527f73616d6520494400000000000000000000000000000000000000000000000000606482015290519081900360840190fd5b6000838152600260205260409020541515611e65576040805160e560020a62461bcd02815260206004820152601260248201527f496e76616c696420506172747920412049440000000000000000000000000000604482015290519081900360640190fd5b6000828152600260205260409020541515611eca576040805160e560020a62461bcd02815260206004820152601260248201527f496e76616c696420506172747920422049440000000000000000000000000000604482015290519081900360640190fd5b6000848152600160205260409020541515611f2f576040805160e560020a62461bcd02815260206004820152601860248201527f496e76616c696420636f6e747261637420747970652049440000000000000000604482015290519081900360640190fd5b6040805160e081018252878152426020808301918252828401898152606084018990526080840188905260a08401879052600160c0850181905260008c81526003845295909520845181559251948301949094559251805192939192611f9b926002850192019061219d565b50606082015160038201556080820151600482015560a0820151600582015560c0909101516006909101805460ff191691151591909117905560405186907f1d9fa56a87ca45734eb083fa91790c0e4ca990f9e3587510a93bd2a6405da10090600090a25093949350505050565b612011611412565b151561201c57600080fd5b61202581612120565b50565b6000612032611412565b151561203d57600080fd5b60008381526001602052604090205415156120c8576040805160e560020a62461bcd02815260206004820152602360248201527f43616e7420637265617465206120747970652077697468207468652073616d6560448201527f2049440000000000000000000000000000000000000000000000000000000000606482015290519081900360840190fd5b600083815260016020908152604090912083516120ed9260029092019185019061219d565b5060405183907fe75d53a68b9ebd0ed00d2185f4375c51ff941eae4e3ca6ef44e66fcb18c2d0c190600090a25090919050565b600160a060020a038116151561213557600080fd5b60008054604051600160a060020a03808516939216917f8be0079c531659141344cd1fd0a4f28419497f9722a3daafe3b4186f6b6457e091a36000805473ffffffffffffffffffffffffffffffffffffffff1916600160a060020a0392909216919091179055565b828054600181600116156101000203166002900490600052602060002090601f016020900481019282601f106121de57805160ff191683800117855561220b565b8280016001018555821561220b579182015b8281111561220b5782518255916020019190600101906121f0565b506122179291506122b8565b5090565b60408051610100810182526000808252602082015290810161223b6122d2565b81526020016122486122d2565b905290565b60e0604051908101604052806000815260200160008152602001606081526020016000815260200160008152602001600081526020016000151581525090565b6080604051908101604052806000815260200160008152602001606081526020016000151581525090565b61140f91905b8082111561221757600081556001016122be565b604080516060810190915260008082526020820190815260200160008152509056fe496e76616c696420494400000000000000000000000000000000000000000000a165627a7a72305820eec3abc023082407697197fa7efd0dcb86d27b651e8040f5fbfa59e5764d68440029",
  "source": "pragma solidity ^0.5.0;\n\nimport 'openzeppelin-solidity/contracts/ownership/Ownable.sol';\n\ncontract DigitalOraclesOld is Ownable {\n\n    struct Party {\n        uint256 id;\n        uint256 creationDate;\n        string name;\n        bool active;\n    }\n\n    struct ContractType {\n        uint256 id;\n        uint256 creationDate;\n        string name;\n        bool active;\n    }\n\n    struct Contract {\n        uint256 id;\n        uint256 creationDate;\n        string name;\n        uint256 contractType;\n        uint256 partyA;\n        uint256 partyB;\n        bool active;\n    }\n\n    struct Approval {\n        uint256 partyId;\n        ApprovalState state;\n        uint256 updateDatetime;\n    }\n\n    struct Settlement {\n        ApprovalState state;\n        uint256 updateDatetime;\n        Approval partyAApproval;\n        Approval partyBApproval;\n    }\n\n    enum ApprovalState {Pending, Approved, Rejected}\n\n    ////////////\n    // Events //\n    ////////////\n\n    event ContractTypeAdded(uint256 indexed id);\n    event ContractTypeUpdated(uint256 indexed id);\n    event ContractTypeDisabled(uint256 indexed id);\n    event ContractTypeEnabled(uint256 indexed id);\n\n    event PartyAdded(uint256 indexed id);\n    event PartyUpdated(uint256 indexed id);\n    event PartyEnabled(uint256 indexed id);\n    event PartyDisabled(uint256 indexed id);\n\n    event ContractAdded(uint256 indexed id);\n    event ContractUpdated(uint256 indexed id);\n    event ContractEnabled(uint256 indexed id);\n    event ContractDisabled(uint256 indexed id);\n\n    // type ID -> ContractType\n    mapping(uint256 => ContractType) contractTypes;\n\n    // party ID -> Party\n    mapping(uint256 => Party) parties;\n\n    // contract ID -> Contract\n    mapping(uint256 => Contract) contractToContract;\n\n    // contract ID -> Settlement\n    mapping(uint256 => Settlement) contractToSettlement;\n\n    ///////////////////////////\n    // Contract Types Setup //\n    ///////////////////////////\n\n    function createContractType(uint256 contractTypeId, string memory name, bool active) public onlyOwner returns (uint256 _id) {\n        require(contractTypeId != 0, \"Invalid ID\");\n        require(contractTypes[contractTypeId].id == 0, \"Cant create a type with the same ID\");\n\n        contractTypes[contractTypeId] = ContractType(contractTypeId, now, name, active);\n\n        emit ContractTypeAdded(contractTypeId);\n\n        return contractTypeId;\n    }\n\n    function updateContractType(uint256 contractTypeId, string memory name) public onlyOwner returns (uint256 _id) {\n        require(contractTypes[contractTypeId].id != 0, \"Cant create a type with the same ID\");\n\n        contractTypes[contractTypeId].name = name;\n\n        emit ContractTypeUpdated(contractTypeId);\n\n        return contractTypeId;\n    }\n\n    function disableContractType(uint256 contractTypeId) public onlyOwner returns (uint256 _id)  {\n        require(contractTypes[contractTypeId].id != 0, \"Invalid ID\");\n\n        contractTypes[contractTypeId].active = false;\n\n        emit ContractTypeDisabled(contractTypeId);\n\n        return contractTypeId;\n    }\n\n    function enableContractType(uint256 contractTypeId) public onlyOwner returns (uint256 _id)  {\n        require(contractTypes[contractTypeId].id != 0, \"Invalid ID\");\n\n        contractTypes[contractTypeId].active = true;\n\n        emit ContractTypeEnabled(contractTypeId);\n\n        return contractTypeId;\n    }\n\n    /////////////////\n    // Party Setup //\n    /////////////////\n\n    function createParty(uint256 partyId, string memory name, bool active) public onlyOwner returns (uint256 _id) {\n        require(partyId != 0, \"Invalid ID\");\n        require(parties[partyId].id == 0, \"Cant create a party with the same ID\");\n\n        parties[partyId] = Party(partyId, now, name, active);\n\n        emit PartyAdded(partyId);\n\n        return partyId;\n    }\n\n    function updateParty(uint256 partyId, string memory name) public onlyOwner returns (uint256 _id) {\n        require(parties[partyId].id != 0, \"Cant create a party with the same ID\");\n\n        parties[partyId].name = name;\n\n        emit PartyUpdated(partyId);\n\n        return partyId;\n    }\n\n    function disableParty(uint256 partyId) public onlyOwner returns (uint256 _id) {\n        require(parties[partyId].id != 0, \"Invalid ID\");\n\n        parties[partyId].active = false;\n\n        emit PartyDisabled(partyId);\n\n        return partyId;\n    }\n\n    function enableParty(uint256 partyId) public onlyOwner returns (uint256 _id) {\n        require(parties[partyId].id != 0, \"Invalid ID\");\n\n        parties[partyId].active = true;\n\n        emit PartyEnabled(partyId);\n\n        return partyId;\n    }\n\n    /////////////////////\n    // Contract Setup //\n    /////////////////////\n\n    function createContract(uint256 contractId, string memory name, uint256 contractTypeId, uint256 partyAId, uint256 partyBId) public onlyOwner returns (uint256 _id) {\n        require(contractId != 0, \"Invalid ID\");\n        require(contractToContract[contractId].id == 0, \"Cant create a contract with the same ID\");\n        require(parties[partyAId].id != 0, \"Invalid Party A ID\");\n        require(parties[partyBId].id != 0, \"Invalid Party B ID\");\n        require(contractTypes[contractTypeId].id != 0, \"Invalid contract type ID\");\n\n        // Create Contract\n        contractToContract[contractId] = Contract(contractId, now, name, contractTypeId, partyAId, partyBId, true);\n\n        // Default settlement\n        contractToSettlement[contractId].partyAApproval = Approval(partyAId, ApprovalState.Pending, 0);\n        contractToSettlement[contractId].partyBApproval = Approval(partyBId, ApprovalState.Pending, 0);\n\n        emit ContractAdded(contractId);\n\n        return contractId;\n    }\n\n    // FIXME this is really a reset?\n    function updateContract(uint256 contractId, string memory name, uint256 contractTypeId, uint256 partyAId, uint256 partyBId) public onlyOwner returns (uint256 _id) {\n        require(contractId != 0, \"Invalid ID\");\n        require(contractToContract[contractId].id != 0, \"Cant create a contract with the same ID\");\n        require(parties[partyAId].id != 0, \"Invalid Party A ID\");\n        require(parties[partyBId].id != 0, \"Invalid Party B ID\");\n        require(contractTypes[contractTypeId].id != 0, \"Invalid contract type ID\");\n\n        contractToContract[contractId] = Contract(contractId, now, name, contractTypeId, partyAId, partyBId, true);\n\n        emit ContractUpdated(contractId);\n\n        return contractId;\n    }\n\n    function disableContract(uint256 contractId) public onlyOwner returns (uint256 _id) {\n        require(contractToContract[contractId].id != 0, \"Invalid ID\");\n\n        contractToContract[contractId].active = false;\n\n        emit ContractDisabled(contractId);\n\n        return contractId;\n    }\n\n    function enableContract(uint256 contractId) public onlyOwner returns (uint256 _id) {\n        require(contractToContract[contractId].id != 0, \"Invalid ID\");\n\n        contractToContract[contractId].active = true;\n\n        emit ContractEnabled(contractId);\n\n        return contractId;\n    }\n\n    /////////////////////////\n    // Contract Settlement //\n    /////////////////////////\n\n    function settleContract(uint256 contractId, uint256 partyId, ApprovalState state) public onlyOwner returns (uint256 _id) {\n        require(contractId != 0, \"Invalid ID\");\n\n        Contract storage con = contractToContract[contractId];\n        require(con.id != 0, \"No contract found\");\n\n        Settlement storage settlement = contractToSettlement[contractId];\n\n        if (con.partyA == partyId) {\n            settlement.partyAApproval = Approval(partyId, state, now);\n        }\n        else if (con.partyB == partyId) {\n            settlement.partyBApproval = Approval(partyId, state, now);\n        }\n        else {\n            // throw error if no parties found to match for the provided party\n            revert(\"No matched parties for the provided contract\");\n        }\n\n        // Update to fully approved if match\n        if (settlement.partyAApproval.state == ApprovalState.Approved && settlement.partyBApproval.state == ApprovalState.Approved) {\n            settlement.state = ApprovalState.Approved;\n        }\n        // Update to fully rejected if match\n        else if (settlement.partyAApproval.state == ApprovalState.Rejected && settlement.partyBApproval.state == ApprovalState.Rejected) {\n            settlement.state = ApprovalState.Rejected;\n        }\n        else {\n            settlement.state = ApprovalState.Pending;\n        }\n\n        // Always save last updated\n        settlement.updateDatetime = now;\n\n        return contractId;\n    }\n\n    ///////////////////\n    // Query Methods //\n    ///////////////////\n\n    function getContractType(uint256 _id)\n    public view\n    returns (uint256 id, uint256 creationDate, string memory name, bool active) {\n        ContractType memory _contractType = contractTypes[_id];\n        return (\n        _contractType.id,\n        _contractType.creationDate,\n        _contractType.name,\n        _contractType.active\n        );\n    }\n\n    function getParty(uint256 _id)\n    public view\n    returns (uint256 id, uint256 creationDate, string memory name, bool active) {\n        Party memory _party = parties[_id];\n        return (\n        _party.id,\n        _party.creationDate,\n        _party.name,\n        _party.active\n        );\n    }\n\n    function getContract(uint256 _id)\n    public view\n    returns (uint256 id, uint256 creationDate, string memory name, uint256 contractType, uint256 partyA, uint256 partyB, bool active) {\n        Contract memory _contract = contractToContract[_id];\n        return (\n        _contract.id,\n        _contract.creationDate,\n        _contract.name,\n        _contract.contractType,\n        _contract.partyA,\n        _contract.partyB,\n        _contract.active\n        );\n    }\n\n    function getSettlement(uint256 _id)\n    public view\n    returns (\n        ApprovalState state,\n        uint256 updateDatetime,\n        uint256 partyA,\n        ApprovalState partyAState,\n        uint256 partyAUpdateDatetime,\n        uint256 partyB,\n        ApprovalState partyBState,\n        uint256 partyBUpdateDatetime\n    ) {\n        Settlement memory _settlement = contractToSettlement[_id];\n        return (\n        _settlement.state,\n        _settlement.updateDatetime,\n        _settlement.partyAApproval.partyId,\n        _settlement.partyAApproval.state,\n        _settlement.partyAApproval.updateDatetime,\n        _settlement.partyBApproval.partyId,\n        _settlement.partyBApproval.state,\n        _settlement.partyBApproval.updateDatetime\n        );\n    }\n\n}\n",
  "sourcePath": "/Users/jamesmorgan/Dropbox/workspace-blockrocket/digital-oracles-prototype/contracts/DigitalOraclesOld.sol",
  "compiler": {
    "name": "solc",
    "version": "0.5.0+commit.1d4f565a.Emscripten.clang"
  },
  "schemaVersion": "3.0.1",
  "updatedAt": "2019-02-06T16:25:22.217Z",
  "devdoc": {
    "methods": {
      "isOwner()": {
        "return": "true if `msg.sender` is the owner of the contract."
      },
      "owner()": {
        "return": "the address of the owner."
      },
      "renounceOwnership()": {
        "details": "Allows the current owner to relinquish control of the contract."
      },
      "transferOwnership(address)": {
        "details": "Allows the current owner to transfer control of the contract to a newOwner.",
        "params": {
          "newOwner": "The address to transfer ownership to."
        }
      }
    }
  },
  "userdoc": {
    "methods": {
      "createContract(uint256,string,uint256,uint256,uint256)": {
        "notice": "//////////////////"
      },
      "createContractType(uint256,string,bool)": {
        "notice": "////////////////////////"
      },
      "createParty(uint256,string,bool)": {
        "notice": "//////////////"
      },
      "getContractType(uint256)": {
        "notice": "////////////////"
      },
      "renounceOwnership()": {
        "notice": "Renouncing to ownership will leave the contract without an owner. It will not be possible to call the functions with the `onlyOwner` modifier anymore."
      },
      "settleContract(uint256,uint256,uint8)": {
        "notice": "//////////////////////"
      }
    }
  }
}