{
  "contractName": "DigitalOracles",
  "abi": [
    {
      "constant": false,
      "inputs": [
        {
          "name": "account",
          "type": "address"
        }
      ],
      "name": "addWhitelisted",
      "outputs": [],
      "payable": false,
      "stateMutability": "nonpayable",
      "type": "function",
      "signature": "0x10154bad"
    },
    {
      "constant": false,
      "inputs": [
        {
          "name": "account",
          "type": "address"
        }
      ],
      "name": "removeWhitelisted",
      "outputs": [],
      "payable": false,
      "stateMutability": "nonpayable",
      "type": "function",
      "signature": "0x291d9549"
    },
    {
      "constant": true,
      "inputs": [
        {
          "name": "account",
          "type": "address"
        }
      ],
      "name": "isWhitelisted",
      "outputs": [
        {
          "name": "",
          "type": "bool"
        }
      ],
      "payable": false,
      "stateMutability": "view",
      "type": "function",
      "signature": "0x3af32abf"
    },
    {
      "constant": false,
      "inputs": [],
      "name": "renounceWhitelistAdmin",
      "outputs": [],
      "payable": false,
      "stateMutability": "nonpayable",
      "type": "function",
      "signature": "0x4c5a628c"
    },
    {
      "constant": false,
      "inputs": [
        {
          "name": "account",
          "type": "address"
        }
      ],
      "name": "addWhitelistAdmin",
      "outputs": [],
      "payable": false,
      "stateMutability": "nonpayable",
      "type": "function",
      "signature": "0x7362d9c8"
    },
    {
      "constant": true,
      "inputs": [
        {
          "name": "account",
          "type": "address"
        }
      ],
      "name": "isWhitelistAdmin",
      "outputs": [
        {
          "name": "",
          "type": "bool"
        }
      ],
      "payable": false,
      "stateMutability": "view",
      "type": "function",
      "signature": "0xbb5f747b"
    },
    {
      "constant": false,
      "inputs": [],
      "name": "renounceWhitelisted",
      "outputs": [],
      "payable": false,
      "stateMutability": "nonpayable",
      "type": "function",
      "signature": "0xd6cd9473"
    },
    {
      "inputs": [],
      "payable": false,
      "stateMutability": "nonpayable",
      "type": "constructor",
      "signature": "constructor"
    },
    {
      "anonymous": false,
      "inputs": [
        {
          "indexed": true,
          "name": "contractId",
          "type": "uint256"
        },
        {
          "indexed": true,
          "name": "partyA",
          "type": "uint256"
        },
        {
          "indexed": true,
          "name": "partyB",
          "type": "uint256"
        },
        {
          "indexed": false,
          "name": "contractData",
          "type": "string"
        }
      ],
      "name": "ContractCreated",
      "type": "event",
      "signature": "0xc2ac6aa92d8f896141b5a8ecb40b8b5124ea7fef469ed8e85fce90a2a70aaafd"
    },
    {
      "anonymous": false,
      "inputs": [
        {
          "indexed": true,
          "name": "contractId",
          "type": "uint256"
        }
      ],
      "name": "ContractApproved",
      "type": "event",
      "signature": "0xd197ef70dfa5d30c3e023138d4396103a72967d6a6ab897fdd1eecb9427e7e4c"
    },
    {
      "anonymous": false,
      "inputs": [
        {
          "indexed": true,
          "name": "contractId",
          "type": "uint256"
        }
      ],
      "name": "ContractTerminated",
      "type": "event",
      "signature": "0x5760684a9ae00ee4a9ccadd1b4cc0c9bc48ff36d7c91399445204ca23ec18857"
    },
    {
      "anonymous": false,
      "inputs": [
        {
          "indexed": true,
          "name": "contractId",
          "type": "uint256"
        },
        {
          "indexed": true,
          "name": "replacementContractId",
          "type": "uint256"
        }
      ],
      "name": "ContractReplaced",
      "type": "event",
      "signature": "0xac5a4dd5bfca5fea47b1d5861065a9c55c252b3464443b299207430c2bd9bd70"
    },
    {
      "anonymous": false,
      "inputs": [
        {
          "indexed": true,
          "name": "contractId",
          "type": "uint256"
        },
        {
          "indexed": false,
          "name": "originalValue",
          "type": "uint8"
        },
        {
          "indexed": false,
          "name": "newValue",
          "type": "uint8"
        }
      ],
      "name": "ContractStateChanged",
      "type": "event",
      "signature": "0xc440e03d4d90d134cb8debb8402e5978e150052e37d6c52c9bcac61133121383"
    },
    {
      "anonymous": false,
      "inputs": [
        {
          "indexed": true,
          "name": "contractId",
          "type": "uint256"
        },
        {
          "indexed": false,
          "name": "originalValue",
          "type": "uint256"
        },
        {
          "indexed": false,
          "name": "newValue",
          "type": "uint256"
        }
      ],
      "name": "ContractStartDateChanged",
      "type": "event",
      "signature": "0xa96eb0b82d97162d1bf017956555e2bd3b1a28557dadc2541a3a606f3106c4ac"
    },
    {
      "anonymous": false,
      "inputs": [
        {
          "indexed": true,
          "name": "contractId",
          "type": "uint256"
        },
        {
          "indexed": false,
          "name": "originalValue",
          "type": "uint256"
        },
        {
          "indexed": false,
          "name": "newValue",
          "type": "uint256"
        }
      ],
      "name": "ContractEndDateChanged",
      "type": "event",
      "signature": "0xb06e31a918d358ca5f0a9e0a1331a235316bea41996aab23b54c0bd24c3fd29d"
    },
    {
      "anonymous": false,
      "inputs": [
        {
          "indexed": true,
          "name": "contractId",
          "type": "uint256"
        },
        {
          "indexed": false,
          "name": "originalValue",
          "type": "bool"
        },
        {
          "indexed": false,
          "name": "newValue",
          "type": "bool"
        }
      ],
      "name": "ContractHasValueChanged",
      "type": "event",
      "signature": "0x70c309928445c4f3e3138ffaf444beb67b68725824195cef375ec725f603bdb1"
    },
    {
      "anonymous": false,
      "inputs": [
        {
          "indexed": true,
          "name": "contractId",
          "type": "uint256"
        },
        {
          "indexed": true,
          "name": "invoiceId",
          "type": "uint256"
        },
        {
          "indexed": true,
          "name": "invoiceStatus",
          "type": "uint8"
        }
      ],
      "name": "InvoiceAdded",
      "type": "event",
      "signature": "0xf641e196cd8402aad8ef015c33100d57f636908e91058db02561590d48d253bd"
    },
    {
      "anonymous": false,
      "inputs": [
        {
          "indexed": true,
          "name": "contractId",
          "type": "uint256"
        },
        {
          "indexed": true,
          "name": "invoiceId",
          "type": "uint256"
        },
        {
          "indexed": false,
          "name": "originalState",
          "type": "uint8"
        },
        {
          "indexed": false,
          "name": "newStatus",
          "type": "uint8"
        }
      ],
      "name": "InvoiceStateChanged",
      "type": "event",
      "signature": "0x40546da51610fcef64a3a9b7cdd0b269fdda56d71ce874390150b52e829b4c09"
    },
    {
      "anonymous": false,
      "inputs": [
        {
          "indexed": true,
          "name": "account",
          "type": "address"
        }
      ],
      "name": "WhitelistedAdded",
      "type": "event",
      "signature": "0xee1504a83b6d4a361f4c1dc78ab59bfa30d6a3b6612c403e86bb01ef2984295f"
    },
    {
      "anonymous": false,
      "inputs": [
        {
          "indexed": true,
          "name": "account",
          "type": "address"
        }
      ],
      "name": "WhitelistedRemoved",
      "type": "event",
      "signature": "0x270d9b30cf5b0793bbfd54c9d5b94aeb49462b8148399000265144a8722da6b6"
    },
    {
      "anonymous": false,
      "inputs": [
        {
          "indexed": true,
          "name": "account",
          "type": "address"
        }
      ],
      "name": "WhitelistAdminAdded",
      "type": "event",
      "signature": "0x22380c05984257a1cb900161c713dd71d39e74820f1aea43bd3f1bdd20961299"
    },
    {
      "anonymous": false,
      "inputs": [
        {
          "indexed": true,
          "name": "account",
          "type": "address"
        }
      ],
      "name": "WhitelistAdminRemoved",
      "type": "event",
      "signature": "0x0a8eb35e5ca14b3d6f28e4abf2f128dbab231a58b56e89beb5d636115001e165"
    },
    {
      "constant": false,
      "inputs": [
        {
          "name": "_contractId",
          "type": "uint256"
        },
        {
          "name": "_startDate",
          "type": "uint256"
        },
        {
          "name": "_endDate",
          "type": "uint256"
        },
        {
          "name": "_partyA",
          "type": "uint256"
        },
        {
          "name": "_partyB",
          "type": "uint256"
        },
        {
          "name": "_contractData",
          "type": "string"
        },
        {
          "name": "_duration",
          "type": "uint8"
        },
        {
          "name": "_contractHasValue",
          "type": "bool"
        },
        {
          "name": "_paymentFrequency",
          "type": "uint8"
        },
        {
          "name": "_paymentFrequencyValue",
          "type": "uint256"
        },
        {
          "name": "_clientPaymentTerms",
          "type": "uint8"
        },
        {
          "name": "_clientPaymentTermsValue",
          "type": "uint256"
        }
      ],
      "name": "createContract",
      "outputs": [
        {
          "name": "_id",
          "type": "uint256"
        }
      ],
      "payable": false,
      "stateMutability": "nonpayable",
      "type": "function",
      "signature": "0x73b732b1"
    },
    {
      "constant": false,
      "inputs": [
        {
          "name": "_contractId",
          "type": "uint256"
        },
        {
          "name": "_state",
          "type": "uint8"
        }
      ],
      "name": "updateContractState",
      "outputs": [
        {
          "name": "_id",
          "type": "uint256"
        }
      ],
      "payable": false,
      "stateMutability": "nonpayable",
      "type": "function",
      "signature": "0x1187497e"
    },
    {
      "constant": false,
      "inputs": [
        {
          "name": "_contractId",
          "type": "uint256"
        },
        {
          "name": "_startDate",
          "type": "uint256"
        }
      ],
      "name": "updateContractStartDate",
      "outputs": [
        {
          "name": "_id",
          "type": "uint256"
        }
      ],
      "payable": false,
      "stateMutability": "nonpayable",
      "type": "function",
      "signature": "0xc9a05fa0"
    },
    {
      "constant": false,
      "inputs": [
        {
          "name": "_contractId",
          "type": "uint256"
        },
        {
          "name": "_endDate",
          "type": "uint256"
        }
      ],
      "name": "updateContractEndDate",
      "outputs": [
        {
          "name": "_id",
          "type": "uint256"
        }
      ],
      "payable": false,
      "stateMutability": "nonpayable",
      "type": "function",
      "signature": "0xa20b8d14"
    },
    {
      "constant": false,
      "inputs": [
        {
          "name": "_contractId",
          "type": "uint256"
        },
        {
          "name": "_contractHasValue",
          "type": "bool"
        }
      ],
      "name": "updateContractHasValue",
      "outputs": [
        {
          "name": "_id",
          "type": "uint256"
        }
      ],
      "payable": false,
      "stateMutability": "nonpayable",
      "type": "function",
      "signature": "0x776fba7e"
    },
    {
      "constant": false,
      "inputs": [
        {
          "name": "_contractId",
          "type": "uint256"
        },
        {
          "name": "_replacementContractId",
          "type": "uint256"
        }
      ],
      "name": "replaceContract",
      "outputs": [
        {
          "name": "_id",
          "type": "uint256"
        }
      ],
      "payable": false,
      "stateMutability": "nonpayable",
      "type": "function",
      "signature": "0x40757f38"
    },
    {
      "constant": false,
      "inputs": [
        {
          "name": "_contractId",
          "type": "uint256"
        }
      ],
      "name": "approveContract",
      "outputs": [
        {
          "name": "_id",
          "type": "uint256"
        }
      ],
      "payable": false,
      "stateMutability": "nonpayable",
      "type": "function",
      "signature": "0x62c35c01"
    },
    {
      "constant": false,
      "inputs": [
        {
          "name": "_contractId",
          "type": "uint256"
        }
      ],
      "name": "terminateContract",
      "outputs": [
        {
          "name": "_id",
          "type": "uint256"
        }
      ],
      "payable": false,
      "stateMutability": "nonpayable",
      "type": "function",
      "signature": "0x263e3d5d"
    },
    {
      "constant": false,
      "inputs": [
        {
          "name": "_contractId",
          "type": "uint256"
        },
        {
          "name": "_invoiceId",
          "type": "uint256"
        },
        {
          "name": "_invoiceStatus",
          "type": "uint8"
        }
      ],
      "name": "addInvoiceToContract",
      "outputs": [
        {
          "name": "_id",
          "type": "uint256"
        }
      ],
      "payable": false,
      "stateMutability": "nonpayable",
      "type": "function",
      "signature": "0x33ca0e9b"
    },
    {
      "constant": false,
      "inputs": [
        {
          "name": "_contractId",
          "type": "uint256"
        },
        {
          "name": "_invoiceId",
          "type": "uint256"
        },
        {
          "name": "_invoiceStatus",
          "type": "uint8"
        }
      ],
      "name": "updateInvoiceState",
      "outputs": [
        {
          "name": "_id",
          "type": "uint256"
        }
      ],
      "payable": false,
      "stateMutability": "nonpayable",
      "type": "function",
      "signature": "0x6ff42c38"
    },
    {
      "constant": true,
      "inputs": [
        {
          "name": "_contractId",
          "type": "uint256"
        }
      ],
      "name": "getContractDetails",
      "outputs": [
        {
          "name": "creationDate",
          "type": "uint256"
        },
        {
          "name": "startDate",
          "type": "uint256"
        },
        {
          "name": "endDate",
          "type": "uint256"
        },
        {
          "name": "partyA",
          "type": "uint256"
        },
        {
          "name": "partyB",
          "type": "uint256"
        },
        {
          "name": "state",
          "type": "uint8"
        },
        {
          "name": "duration",
          "type": "uint8"
        },
        {
          "name": "contractData",
          "type": "string"
        }
      ],
      "payable": false,
      "stateMutability": "view",
      "type": "function",
      "signature": "0x4d6d6a9c"
    },
    {
      "constant": true,
      "inputs": [
        {
          "name": "_contractId",
          "type": "uint256"
        }
      ],
      "name": "getContractTerms",
      "outputs": [
        {
          "name": "contractHasValue",
          "type": "bool"
        },
        {
          "name": "paymentFrequency",
          "type": "uint8"
        },
        {
          "name": "paymentFrequencyValue",
          "type": "uint256"
        },
        {
          "name": "clientPaymentTerms",
          "type": "uint8"
        },
        {
          "name": "clientPaymentTermsValue",
          "type": "uint256"
        }
      ],
      "payable": false,
      "stateMutability": "view",
      "type": "function",
      "signature": "0x8247a190"
    },
    {
      "constant": true,
      "inputs": [
        {
          "name": "_contractId",
          "type": "uint256"
        }
      ],
      "name": "getContractInvoices",
      "outputs": [
        {
          "name": "invoiceIds",
          "type": "uint256[]"
        }
      ],
      "payable": false,
      "stateMutability": "view",
      "type": "function",
      "signature": "0xe5c945cc"
    },
    {
      "constant": true,
      "inputs": [
        {
          "name": "_invoiceId",
          "type": "uint256"
        }
      ],
      "name": "getContractInvoiceDetails",
      "outputs": [
        {
          "name": "invoiceStatus",
          "type": "uint8"
        },
        {
          "name": "contractId",
          "type": "uint256"
        }
      ],
      "payable": false,
      "stateMutability": "view",
      "type": "function",
      "signature": "0xc5cb4e7a"
    }
  ],
  "bytecode": "0x60806040523480156200001157600080fd5b50620000263364010000000062000045810204565b6200003f336401000000006200075f6200009782021704565b620001d5565b6200006060008264010000000062002311620000ce82021704565b604051600160a060020a038216907f22380c05984257a1cb900161c713dd71d39e74820f1aea43bd3f1bdd2096129990600090a250565b620000ab3364010000000062000129810204565b1515620000b757600080fd5b620000cb816401000000006200014b810204565b50565b600160a060020a0381161515620000e457600080fd5b620000f982826401000000006200019d810204565b156200010457600080fd5b600160a060020a0316600090815260209190915260409020805460ff19166001179055565b60006200014581836401000000006200224a6200019d82021704565b92915050565b6200016660018264010000000062002311620000ce82021704565b604051600160a060020a038216907fee1504a83b6d4a361f4c1dc78ab59bfa30d6a3b6612c403e86bb01ef2984295f90600090a250565b6000600160a060020a0382161515620001b557600080fd5b50600160a060020a03166000908152602091909152604090205460ff1690565b61253f80620001e56000396000f3fe60806040526004361061011c5763ffffffff7c010000000000000000000000000000000000000000000000000000000060003504166310154bad81146101215780631187497e14610156578063263e3d5d1461019b578063291d9549146101c557806333ca0e9b146101f85780633af32abf1461023157806340757f38146102785780634c5a628c146102a85780634d6d6a9c146102bd57806362c35c01146103ac5780636ff42c38146103d65780637362d9c81461040f57806373b732b114610442578063776fba7e1461053c5780638247a1901461056e578063a20b8d14146105e8578063bb5f747b14610618578063c5cb4e7a1461064b578063c9a05fa0146106a0578063d6cd9473146106d0578063e5c945cc146106e5575b600080fd5b34801561012d57600080fd5b506101546004803603602081101561014457600080fd5b5035600160a060020a031661075f565b005b34801561016257600080fd5b506101896004803603604081101561017957600080fd5b508035906020013560ff1661077f565b60408051918252519081900360200190f35b3480156101a757600080fd5b50610189600480360360208110156101be57600080fd5b50356108d3565b3480156101d157600080fd5b50610154600480360360208110156101e857600080fd5b5035600160a060020a0316610a3e565b34801561020457600080fd5b506101896004803603606081101561021b57600080fd5b508035906020810135906040013560ff16610a5b565b34801561023d57600080fd5b506102646004803603602081101561025457600080fd5b5035600160a060020a0316610e1b565b604080519115158252519081900360200190f35b34801561028457600080fd5b506101896004803603604081101561029b57600080fd5b5080359060200135610e34565b3480156102b457600080fd5b50610154610fd1565b3480156102c957600080fd5b506102e7600480360360208110156102e057600080fd5b5035610fdc565b6040518089815260200188815260200187815260200186815260200185815260200184600481111561031557fe5b60ff16815260200183600281111561032957fe5b60ff16815260200180602001828103825283818151815260200191508051906020019080838360005b8381101561036a578181015183820152602001610352565b50505050905090810190601f1680156103975780820380516001836020036101000a031916815260200191505b50995050505050505050505060405180910390f35b3480156103b857600080fd5b50610189600480360360208110156103cf57600080fd5b50356111ea565b3480156103e257600080fd5b50610189600480360360608110156103f957600080fd5b508035906020810135906040013560ff16611306565b34801561041b57600080fd5b506101546004803603602081101561043257600080fd5b5035600160a060020a0316611707565b34801561044e57600080fd5b50610189600480360361018081101561046657600080fd5b8135916020810135916040820135916060810135916080820135919081019060c0810160a08201356401000000008111156104a057600080fd5b8201836020820111156104b257600080fd5b803590602001918460018302840111640100000000831117156104d457600080fd5b91908080601f0160208091040260200160405190810160405280939291908181526020018383808284376000920191909152509295505050813560ff908116935060208301351515926040810135821692506060810135916080820135169060a00135611724565b34801561054857600080fd5b506101896004803603604081101561055f57600080fd5b50803590602001351515611b0a565b34801561057a57600080fd5b506105986004803603602081101561059157600080fd5b5035611c40565b6040518515158152602081018560088111156105b057fe5b60ff1681526020018481526020018360028111156105ca57fe5b60ff1681526020018281526020019550505050505060405180910390f35b3480156105f457600080fd5b506101896004803603604081101561060b57600080fd5b5080359060200135611e30565b34801561062457600080fd5b506102646004803603602081101561063b57600080fd5b5035600160a060020a0316611fa5565b34801561065757600080fd5b506106756004803603602081101561066e57600080fd5b5035611fb7565b6040518083600481111561068557fe5b60ff1681526020018281526020019250505060405180910390f35b3480156106ac57600080fd5b50610189600480360360408110156106c357600080fd5b5080359060200135611fda565b3480156106dc57600080fd5b5061015461214f565b3480156106f157600080fd5b5061070f6004803603602081101561070857600080fd5b5035612158565b60408051602080825283518183015283519192839290830191858101910280838360005b8381101561074b578181015183820152602001610733565b505050509050019250505060405180910390f35b61076833611fa5565b151561077357600080fd5b61077c816121ba565b50565b600061078a33610e1b565b151561079557600080fd5b8215156107da576040805160e560020a62461bcd02815260206004820152601360248201526000805160206124d4833981519152604482015290519081900360640190fd5b60008381526002602052604081206005015460ff1660048111156107fa57fe5b141561083e576040805160e560020a62461bcd02815260206004820152601460248201526000805160206124f4833981519152604482015290519081900360640190fd5b6000838152600260205260409020600501805460ff811691849160ff1916600183600481111561086a57fe5b0217905550837fc440e03d4d90d134cb8debb8402e5978e150052e37d6c52c9bcac611331213838285604051808360048111156108a357fe5b60ff1681526020018260048111156108b757fe5b60ff1681526020019250505060405180910390a2509192915050565b60006108de33610e1b565b15156108e957600080fd5b81151561092e576040805160e560020a62461bcd02815260206004820152601360248201526000805160206124d4833981519152604482015290519081900360640190fd5b600160008381526002602052604090206005015460ff16600481111561095057fe5b148061097b5750600260008381526002602052604090206005015460ff16600481111561097957fe5b145b15156109f7576040805160e560020a62461bcd02815260206004820152602960248201527f436f6e7472616374206e6f7420696e2070656e64696e67206f7220617070726f60448201527f7665642073746174650000000000000000000000000000000000000000000000606482015290519081900360840190fd5b600082815260026020526040808220600501805460ff191660031790555183917f5760684a9ae00ee4a9ccadd1b4cc0c9bc48ff36d7c91399445204ca23ec1885791a25090565b610a4733611fa5565b1515610a5257600080fd5b61077c81612202565b6000610a6633610e1b565b1515610a7157600080fd5b831515610ab6576040805160e560020a62461bcd02815260206004820152601360248201526000805160206124d4833981519152604482015290519081900360640190fd5b821515610b0d576040805160e560020a62461bcd02815260206004820152601260248201527f496e76616c696420696e766f6963652049440000000000000000000000000000604482015290519081900360640190fd5b6000826004811115610b1b57fe5b1415610b97576040805160e560020a62461bcd02815260206004820152602760248201527f43616e6e6f7420616464206120696e766f69636520696e20746865207374617460448201527f6520626c616e6b00000000000000000000000000000000000000000000000000606482015290519081900360840190fd5b600160008581526002602052604090206005015460ff166004811115610bb957fe5b1480610be45750600260008581526002602052604090206005015460ff166004811115610be257fe5b145b1515610c60576040805160e560020a62461bcd02815260206004820152602960248201527f436f6e7472616374206e6f7420696e2070656e64696e67206f7220617070726f60448201527f7665642073746174650000000000000000000000000000000000000000000000606482015290519081900360840190fd5b60008381526005602052604090205415610cea576040805160e560020a62461bcd02815260206004820152602860248201527f43616e6e6f742061646420696e766f69636520746f206d756c7469706c65206360448201527f6f6e747261637473000000000000000000000000000000000000000000000000606482015290519081900360840190fd5b600083815260046020819052604082205460ff1690811115610d0857fe5b14610d83576040805160e560020a62461bcd02815260206004820152602760248201527f43616e6e6f7420616464206120696e766f69636520617320616c72656164792060448201527f6372656174656400000000000000000000000000000000000000000000000000606482015290519081900360840190fd5b60008481526003602090815260408083208054600181810183559185528385200187905586845260058352818420889055600492839052922080548593919260ff1990911691908490811115610dd557fe5b0217905550816004811115610de657fe5b604051849086907ff641e196cd8402aad8ef015c33100d57f636908e91058db02561590d48d253bd90600090a4509092915050565b6000610e2e60018363ffffffff61224a16565b92915050565b6000610e3f33610e1b565b1515610e4a57600080fd5b821515610e8f576040805160e560020a62461bcd02815260206004820152601360248201526000805160206124d4833981519152604482015290519081900360640190fd5b600360008481526002602052604090206005015460ff166004811115610eb157fe5b1415610f07576040805160e560020a62461bcd02815260206004820152601e60248201527f436f6e747261637420697320616c7265616479207465726d696e617465640000604482015290519081900360640190fd5b60008281526002602052604081206005015460ff166004811115610f2757fe5b1415610f7d576040805160e560020a62461bcd02815260206004820181905260248201527f5265706c6163656d656e7420636f6e7472616374206e6f742063726561746564604482015290519081900360640190fd5b60008381526002602052604080822060058101805460ff1916600417905560060184905551839185917fac5a4dd5bfca5fea47b1d5861065a9c55c252b3464443b299207430c2bd9bd709190a35090919050565b610fda33612281565b565b60008060008060008060006060610ff16123ab565b60008a81526002602081815260409283902083516101e081018552815481526001808301548285015282850154828701526003830154606083015260048301805487519281161561010002600019011695909504601f8101859004850282018501909652858152909491936080860193919290918301828280156110b65780601f1061108b576101008083540402835291602001916110b6565b820191906000526020600020905b81548152906001019060200180831161109957829003601f168201915b5050509183525050600582015460209091019060ff1660048111156110d757fe5b60048111156110e257fe5b8152600682015460208201526007820154604082015260088201546060820152600982015460809091019060ff16600281111561111b57fe5b600281111561112657fe5b8152600982015460ff61010082048116151560208401526040909201916201000090910416600881111561115657fe5b600881111561116157fe5b8152600a8201546020820152600b82015460409091019060ff16600281111561118657fe5b600281111561119157fe5b8152602001600c82015481525050905080602001518160e00151826101000151836040015184606001518560a0015186610120015187608001518090509850985098509850985098509850985050919395975091939597565b60006111f533610e1b565b151561120057600080fd5b811515611245576040805160e560020a62461bcd02815260206004820152601360248201526000805160206124d4833981519152604482015290519081900360640190fd5b600160008381526002602052604090206005015460ff16600481111561126757fe5b146112bc576040805160e560020a62461bcd02815260206004820152601d60248201527f436f6e7472616374206e6f7420696e2070656e64696e67207374617465000000604482015290519081900360640190fd5b6000828152600260208190526040808320600501805460ff19169092179091555183917fd197ef70dfa5d30c3e023138d4396103a72967d6a6ab897fdd1eecb9427e7e4c91a25090565b600061131133610e1b565b151561131c57600080fd5b831515611361576040805160e560020a62461bcd02815260206004820152601360248201526000805160206124d4833981519152604482015290519081900360640190fd5b8215156113b8576040805160e560020a62461bcd02815260206004820152601260248201527f496e76616c696420696e766f6963652049440000000000000000000000000000604482015290519081900360640190fd5b60008260048111156113c657fe5b1415611442576040805160e560020a62461bcd02815260206004820152602760248201527f43616e6e6f7420616464206120696e766f69636520696e20746865207374617460448201527f6520626c616e6b00000000000000000000000000000000000000000000000000606482015290519081900360840190fd5b600182600481111561145057fe5b14156114a6576040805160e560020a62461bcd02815260206004820152601b60248201527f43616e6e6f74206d6f7665206261636b20746f2070656e64696e670000000000604482015290519081900360640190fd5b600160008581526002602052604090206005015460ff1660048111156114c857fe5b14806114f35750600260008581526002602052604090206005015460ff1660048111156114f157fe5b145b151561156f576040805160e560020a62461bcd02815260206004820152602960248201527f436f6e7472616374206e6f7420696e2070656e64696e67206f7220617070726f60448201527f7665642073746174650000000000000000000000000000000000000000000000606482015290519081900360840190fd5b60008381526005602052604090205484146115fa576040805160e560020a62461bcd02815260206004820152602260248201527f436f6e7472616374206e6f74206173736f63696174656420746f20696e766f6960448201527f6365000000000000000000000000000000000000000000000000000000000000606482015290519081900360840190fd5b600083815260046020819052604082205460ff169081111561161857fe5b141561166e576040805160e560020a62461bcd02815260206004820152601760248201527f496e766f696365206e6f74206372656174656420796574000000000000000000604482015290519081900360640190fd5b6000838152600460208190526040909120805460ff81169285929160ff191690600190849081111561169c57fe5b021790555083857f40546da51610fcef64a3a9b7cdd0b269fdda56d71ce874390150b52e829b4c098386604051808360048111156116d657fe5b60ff1681526020018260048111156116ea57fe5b60ff1681526020019250505060405180910390a350919392505050565b61171033611fa5565b151561171b57600080fd5b61077c816122c9565b600061172f33610e1b565b151561173a57600080fd5b8c151561177f576040805160e560020a62461bcd02815260206004820152601360248201526000805160206124d4833981519152604482015290519081900360640190fd5b8915156117d6576040805160e560020a62461bcd02815260206004820152601060248201527f496e76616c696420706172747920494400000000000000000000000000000000604482015290519081900360640190fd5b88151561182d576040805160e560020a62461bcd02815260206004820152601060248201527f496e76616c696420706172747920494400000000000000000000000000000000604482015290519081900360640190fd5b60008d81526002602052604081206005015460ff16600481111561184d57fe5b146118a2576040805160e560020a62461bcd02815260206004820152601860248201527f436f6e747261637420616c726561647920637265617465640000000000000000604482015290519081900360640190fd5b604080516101e0810182528e81524260208201529081018b9052606081018a90526080810189905260a0810160018152602001600081526020018d81526020018c81526020018860028111156118f457fe5b8152602001871515815260200186600881111561190d57fe5b815260200185815260200184600281111561192457fe5b8152602090810184905260008f815260028083526040918290208451815584840151600182015591840151908201556060830151600382015560808301518051919261197892600485019290910190612438565b5060a082015160058201805460ff1916600183600481111561199657fe5b021790555060c0820151600682015560e08201516007820155610100820151600882015561012082015160098201805460ff191660018360028111156119d857fe5b02179055506101408201516009820180549115156101000261ff001990921691909117808255610160840151919062ff0000191662010000836008811115611a1c57fe5b0217905550610180820151600a8201556101a0820151600b8201805460ff19166001836002811115611a4a57fe5b02179055506101c082015181600c0155905050888a8e7fc2ac6aa92d8f896141b5a8ecb40b8b5124ea7fef469ed8e85fce90a2a70aaafd8b6040518080602001828103825283818151815260200191508051906020019080838360005b83811015611abf578181015183820152602001611aa7565b50505050905090810190601f168015611aec5780820380516001836020036101000a031916815260200191505b509250505060405180910390a4509a9b9a5050505050505050505050565b6000611b1533610e1b565b1515611b2057600080fd5b821515611b65576040805160e560020a62461bcd02815260206004820152601360248201526000805160206124d4833981519152604482015290519081900360640190fd5b60008381526002602052604081206005015460ff166004811115611b8557fe5b1415611bc9576040805160e560020a62461bcd02815260206004820152601460248201526000805160206124f4833981519152604482015290519081900360640190fd5b600083815260026020908152604091829020600901805461ff001981166101008715158181029290921790935584519290910460ff168015158352928201528251919286927f70c309928445c4f3e3138ffaf444beb67b68725824195cef375ec725f603bdb19281900390910190a2509192915050565b6000806000806000611c506123ab565b60008781526002602081815260409283902083516101e081018552815481526001808301548285015282850154828701526003830154606083015260048301805487519281161561010002600019011695909504601f810185900485028201850190965285815290949193608086019391929091830182828015611d155780601f10611cea57610100808354040283529160200191611d15565b820191906000526020600020905b815481529060010190602001808311611cf857829003601f168201915b5050509183525050600582015460209091019060ff166004811115611d3657fe5b6004811115611d4157fe5b8152600682015460208201526007820154604082015260088201546060820152600982015460809091019060ff166002811115611d7a57fe5b6002811115611d8557fe5b8152600982015460ff610100820481161515602084015260409092019162010000909104166008811115611db557fe5b6008811115611dc057fe5b8152600a8201546020820152600b82015460409091019060ff166002811115611de557fe5b6002811115611df057fe5b8152600c91909101546020909101526101408101516101608201516101808301516101a08401516101c090940151929b919a509850919650945092505050565b6000611e3b33610e1b565b1515611e4657600080fd5b821515611e8b576040805160e560020a62461bcd02815260206004820152601360248201526000805160206124d4833981519152604482015290519081900360640190fd5b811515611ee2576040805160e560020a62461bcd02815260206004820152601260248201527f456e642064617465206e6f742076616c69640000000000000000000000000000604482015290519081900360640190fd5b60008381526002602052604081206005015460ff166004811115611f0257fe5b1415611f46576040805160e560020a62461bcd02815260206004820152601460248201526000805160206124f4833981519152604482015290519081900360640190fd5b60008381526002602090815260409182902060080180549085905582518181529182018590528251909286927fb06e31a918d358ca5f0a9e0a1331a235316bea41996aab23b54c0bd24c3fd29d929081900390910190a2509192915050565b6000610e2e818363ffffffff61224a16565b60009081526004602090815260408083205460059092529091205460ff90911691565b6000611fe533610e1b565b1515611ff057600080fd5b821515612035576040805160e560020a62461bcd02815260206004820152601360248201526000805160206124d4833981519152604482015290519081900360640190fd5b81151561208c576040805160e560020a62461bcd02815260206004820152601460248201527f53746172742064617465206e6f742076616c6964000000000000000000000000604482015290519081900360640190fd5b60008381526002602052604081206005015460ff1660048111156120ac57fe5b14156120f0576040805160e560020a62461bcd02815260206004820152601460248201526000805160206124f4833981519152604482015290519081900360640190fd5b60008381526002602090815260409182902060070180549085905582518181529182018590528251909286927fa96eb0b82d97162d1bf017956555e2bd3b1a28557dadc2541a3a606f3106c4ac929081900390910190a2509192915050565b610fda33612202565b6000818152600360209081526040918290208054835181840281018401909452808452606093928301828280156121ae57602002820191906000526020600020905b81548152602001906001019080831161219a575b50505050509050919050565b6121cb60018263ffffffff61231116565b604051600160a060020a038216907fee1504a83b6d4a361f4c1dc78ab59bfa30d6a3b6612c403e86bb01ef2984295f90600090a250565b61221360018263ffffffff61235f16565b604051600160a060020a038216907f270d9b30cf5b0793bbfd54c9d5b94aeb49462b8148399000265144a8722da6b690600090a250565b6000600160a060020a038216151561226157600080fd5b50600160a060020a03166000908152602091909152604090205460ff1690565b61229260008263ffffffff61235f16565b604051600160a060020a038216907f0a8eb35e5ca14b3d6f28e4abf2f128dbab231a58b56e89beb5d636115001e16590600090a250565b6122da60008263ffffffff61231116565b604051600160a060020a038216907f22380c05984257a1cb900161c713dd71d39e74820f1aea43bd3f1bdd2096129990600090a250565b600160a060020a038116151561232657600080fd5b612330828261224a565b1561233a57600080fd5b600160a060020a0316600090815260209190915260409020805460ff19166001179055565b600160a060020a038116151561237457600080fd5b61237e828261224a565b151561238957600080fd5b600160a060020a0316600090815260209190915260409020805460ff19169055565b6101e0604051908101604052806000815260200160008152602001600081526020016000815260200160608152602001600060048111156123e857fe5b81526020016000815260200160008152602001600081526020016000600281111561240f57fe5b815260006020820181905260408201819052606082018190526080820181905260a09091015290565b828054600181600116156101000203166002900490600052602060002090601f016020900481019282601f1061247957805160ff19168380011785556124a6565b828001600101855582156124a6579182015b828111156124a657825182559160200191906001019061248b565b506124b29291506124b6565b5090565b6124d091905b808211156124b257600081556001016124bc565b9056fe496e76616c696420636f6e747261637420494400000000000000000000000000436f6e7472616374206e6f742063726561746564000000000000000000000000a165627a7a72305820fda8d9f573e4039e7eeec7873e8d36c46c2d38b3b9a6d02b192b95341d912f050029",
  "source": "pragma solidity ^0.5.0;\n\nimport \"openzeppelin-solidity/contracts/access/roles/WhitelistedRole.sol\";\n\ncontract DigitalOracles is WhitelistedRole {\n\n    struct Contract {\n        uint256 contractId;          // The contract ID\n        uint256 creationDate;        // When the contract was created\n        uint256 partyA;              // Party B ID\n        uint256 partyB;              // Party A ID\n        string contractData;         // The IPFS hash of the approved contract\n        State state;                 // The contract state\n\n        uint256 replacementContractId; // This ID will be set when the contract moves into the state\n\n        uint256 startDate;           // Project start date\n        uint256 endDate;             // Project end date\n\n        ContractDuration duration;  // Duration of the project (indefinitely or fixed term)\n        bool contractHasValue;      // Will the Parties receive remuneration for work done?\n\n        PaymentFrequency paymentFrequency;  // When will the client be paid?\n        uint256 paymentFrequencyValue;      // The corresponding payment terms value e.g. a percentage, a date or a monetary value\n\n        ClientPaymentTerms clientPaymentTerms;  // The client will pay the invoice\n        uint256 clientPaymentTermsValue;        // The corresponding client payment terms value e.g. a number of dates\n    }\n\n    enum State {\n        Blank, // not set\n        Pending, // pending awaiting details\n        Approved, // approved, details received\n        Terminated, // terminated the contract\n        Replaced    // replaced by new contract\n    }\n\n    enum ContractDuration {\n        Blank, // not set\n        Indefinite, // indefinitely until termination\n        FixedTerm // based on project start/end\n    }\n\n    enum PaymentFrequency {\n        Blank, // not set\n        HourlyRate, // A set hourly rate\n        Daily, // invoiceable daily\n        Weekly, // invoiceable weekly\n        Monthly, // invoiceable monthly\n        Yearly, // invoiceable yearly\n        OnCompletion, // when work is complete\n        PercentageUpFront, // a percentage upfront, remaining on completion\n        OnDate // On a specific date\n    }\n\n    enum ClientPaymentTerms {\n        Blank, // not set\n        UponReceipt, // when receipt is received\n        WithXDays // within a certain number of days\n    }\n\n    enum InvoiceStatus {\n        Blank,\n        Pending,\n        Paid,\n        Refunded,\n        Delayed\n    }\n\n    ////////////\n    // Events //\n    ////////////\n\n    // Contract created - fired only one per contract\n    event ContractCreated(uint256 indexed contractId, uint256 indexed partyA, uint256 indexed partyB, string contractData);\n\n    // Contract state updates\n    event ContractApproved(uint256 indexed contractId);\n    event ContractTerminated(uint256 indexed contractId);\n    event ContractReplaced(uint256 indexed contractId, uint256 indexed replacementContractId);\n\n    // Contract property update events\n    event ContractStateChanged(uint256 indexed contractId, State originalValue, State newValue);\n    event ContractStartDateChanged(uint256 indexed contractId, uint256 originalValue, uint256 newValue);\n    event ContractEndDateChanged(uint256 indexed contractId, uint256 originalValue, uint256 newValue);\n    event ContractHasValueChanged(uint256 indexed contractId, bool originalValue, bool newValue);\n\n    // Invoice events\n    event InvoiceAdded(uint256 indexed contractId, uint256 indexed invoiceId, InvoiceStatus indexed invoiceStatus);\n    event InvoiceStateChanged(uint256 indexed contractId, uint256 indexed invoiceId, InvoiceStatus originalState, InvoiceStatus newStatus);\n\n    // Contract ID -> Contract\n    mapping(uint256 => Contract) contracts;\n\n    // Contract ID -> Invoice IDs\n    mapping(uint256 => uint256[]) invoicesIds;\n\n    // Invoice ID -> Invoice\n    mapping(uint256 => InvoiceStatus) invoiceToInvoiceStatus; // once in state Pending, dont allow to move back to this state\n\n    // Invoice ID => Contract ID\n    mapping(uint256 => uint256) invoiceToContractId; // reverse lookups and checking if invoice is attached to another contract\n\n    /////////////////\n    // Constructor //\n    /////////////////\n\n    constructor () public{\n        super.addWhitelisted(msg.sender);\n    }\n\n    /////////////////////\n    // Contract Setup //\n    /////////////////////\n\n    function createContract(\n        uint256 _contractId,\n        uint256 _startDate,\n        uint256 _endDate,\n        uint256 _partyA,\n        uint256 _partyB,\n        string memory _contractData,\n        ContractDuration _duration,\n        bool _contractHasValue,\n        PaymentFrequency _paymentFrequency,\n        uint256 _paymentFrequencyValue,\n        ClientPaymentTerms _clientPaymentTerms,\n        uint256 _clientPaymentTermsValue\n    )\n    onlyWhitelisted\n    public returns (uint256 _id) {\n        require(_contractId != 0, \"Invalid contract ID\");\n        require(_partyA != 0, \"Invalid party ID\");\n        require(_partyB != 0, \"Invalid party ID\");\n        require(contracts[_contractId].state == State.Blank, \"Contract already created\");\n\n        // Create Contract\n        contracts[_contractId] = Contract(\n            _contractId,\n            now, // creation date\n            _partyA,\n            _partyB,\n            _contractData,\n            State.Pending,\n            0, // set replacement ID to blank on creation\n            _startDate,\n            _endDate,\n            _duration,\n            _contractHasValue,\n            _paymentFrequency,\n            _paymentFrequencyValue,\n            _clientPaymentTerms,\n            _clientPaymentTermsValue\n        );\n\n        emit ContractCreated(_contractId, _partyA, _partyB, _contractData);\n\n        return _contractId;\n    }\n\n    function updateContractState(uint256 _contractId, State _state)\n    onlyWhitelisted\n    public returns (uint256 _id) {\n        require(_contractId != 0, \"Invalid contract ID\");\n        require(contracts[_contractId].state != State.Blank, \"Contract not created\");\n\n        State originalState = contracts[_contractId].state;\n\n        contracts[_contractId].state = _state;\n\n        emit ContractStateChanged(_contractId, originalState, _state);\n\n        return _contractId;\n    }\n\n    function updateContractStartDate(uint256 _contractId, uint256 _startDate)\n    onlyWhitelisted\n    public returns (uint256 _id) {\n        require(_contractId != 0, \"Invalid contract ID\");\n        require(_startDate != 0, \"Start date not valid\");\n        require(contracts[_contractId].state != State.Blank, \"Contract not created\");\n\n        uint256 originalStartDate = contracts[_contractId].startDate;\n\n        contracts[_contractId].startDate = _startDate;\n\n        emit ContractStartDateChanged(_contractId, originalStartDate, _startDate);\n\n        return _contractId;\n    }\n\n    function updateContractEndDate(uint256 _contractId, uint256 _endDate)\n    onlyWhitelisted\n    public returns (uint256 _id) {\n        require(_contractId != 0, \"Invalid contract ID\");\n        require(_endDate != 0, \"End date not valid\");\n        require(contracts[_contractId].state != State.Blank, \"Contract not created\");\n\n        uint256 originalEndDate = contracts[_contractId].endDate;\n\n        contracts[_contractId].endDate = _endDate;\n\n        emit ContractEndDateChanged(_contractId, originalEndDate, _endDate);\n\n        return _contractId;\n    }\n\n    function updateContractHasValue(uint256 _contractId, bool _contractHasValue)\n    onlyWhitelisted\n    public returns (uint256 _id) {\n        require(_contractId != 0, \"Invalid contract ID\");\n        require(contracts[_contractId].state != State.Blank, \"Contract not created\");\n\n        bool originalContractHasValue = contracts[_contractId].contractHasValue;\n\n        contracts[_contractId].contractHasValue = _contractHasValue;\n\n        emit ContractHasValueChanged(_contractId, originalContractHasValue, _contractHasValue);\n\n        return _contractId;\n    }\n\n    function replaceContract(uint256 _contractId, uint256 _replacementContractId)\n    onlyWhitelisted\n    public returns (uint256 _id) {\n        require(_contractId != 0, \"Invalid contract ID\");\n        require(contracts[_contractId].state != State.Terminated, \"Contract is already terminated\");\n        require(contracts[_replacementContractId].state != State.Blank, \"Replacement contract not created\");\n\n        contracts[_contractId].state = State.Replaced;\n        contracts[_contractId].replacementContractId = _replacementContractId;\n\n        emit ContractReplaced(_contractId, _replacementContractId);\n\n        return _contractId;\n    }\n\n    function approveContract(uint256 _contractId)\n    onlyWhitelisted\n    public returns (uint256 _id) {\n        require(_contractId != 0, \"Invalid contract ID\");\n        require(contracts[_contractId].state == State.Pending, \"Contract not in pending state\");\n\n        contracts[_contractId].state = State.Approved;\n\n        emit ContractApproved(_contractId);\n\n        return _contractId;\n    }\n\n    function terminateContract(uint256 _contractId)\n    onlyWhitelisted\n    public returns (uint256 _id) {\n        require(_contractId != 0, \"Invalid contract ID\");\n        require(contracts[_contractId].state == State.Pending || contracts[_contractId].state == State.Approved, \"Contract not in pending or approved state\");\n\n        contracts[_contractId].state = State.Terminated;\n\n        emit ContractTerminated(_contractId);\n\n        return _contractId;\n    }\n\n    function addInvoiceToContract(uint256 _contractId, uint256 _invoiceId, InvoiceStatus _invoiceStatus)\n    onlyWhitelisted\n    public returns (uint256 _id) {\n        // Method arg validation\n        require(_contractId != 0, \"Invalid contract ID\");\n        require(_invoiceId != 0, \"Invalid invoice ID\");\n        require(_invoiceStatus != InvoiceStatus.Blank, \"Cannot add a invoice in the state blank\");\n\n        // Invoice mapping validation\n        require(contracts[_contractId].state == State.Pending || contracts[_contractId].state == State.Approved, \"Contract not in pending or approved state\");\n        require(invoiceToContractId[_invoiceId] == 0, \"Cannot add invoice to multiple contracts\");\n        require(invoiceToInvoiceStatus[_invoiceId] == InvoiceStatus.Blank, \"Cannot add a invoice as already created\");\n\n        // TODO the below is GAS expensive (check for optimisations)\n\n        // Update contract to invoice mapping\n        invoicesIds[_contractId].push(_invoiceId);\n\n        // Update invoice to contract mapping\n        invoiceToContractId[_invoiceId] = _contractId;\n\n        // Update invoice state\n        invoiceToInvoiceStatus[_invoiceId] = _invoiceStatus;\n\n        emit InvoiceAdded(_contractId, _invoiceId, _invoiceStatus);\n\n        return _invoiceId;\n    }\n\n    function updateInvoiceState(uint256 _contractId, uint256 _invoiceId, InvoiceStatus _invoiceStatus)\n    onlyWhitelisted\n    public returns (uint256 _id) {\n        // Method arg validation\n        require(_contractId != 0, \"Invalid contract ID\");\n        require(_invoiceId != 0, \"Invalid invoice ID\");\n        require(_invoiceStatus != InvoiceStatus.Blank, \"Cannot add a invoice in the state blank\");\n        require(_invoiceStatus != InvoiceStatus.Pending, \"Cannot move back to pending\");\n\n        // Invoice mapping validation\n        require(contracts[_contractId].state == State.Pending || contracts[_contractId].state == State.Approved, \"Contract not in pending or approved state\");\n        require(invoiceToContractId[_invoiceId] == _contractId, \"Contract not associated to invoice\");\n        require(invoiceToInvoiceStatus[_invoiceId] != InvoiceStatus.Blank, \"Invoice not created yet\");\n\n        InvoiceStatus originalStatus = invoiceToInvoiceStatus[_invoiceId];\n\n        // Update invoice state\n        invoiceToInvoiceStatus[_invoiceId] = _invoiceStatus;\n\n        emit InvoiceStateChanged(_contractId, _invoiceId, originalStatus, _invoiceStatus);\n\n        return _invoiceId;\n    }\n\n    ///////////////////\n    // Query Methods //\n    ///////////////////\n\n    function getContractDetails(uint256 _contractId)\n    external view\n    returns (\n        uint256 creationDate,\n        uint256 startDate,\n        uint256 endDate,\n        uint256 partyA,\n        uint256 partyB,\n        State state,\n        ContractDuration duration,\n        string memory contractData\n    ) {\n        Contract memory _contract = contracts[_contractId];\n        return (\n        _contract.creationDate,\n        _contract.startDate,\n        _contract.endDate,\n        _contract.partyA,\n        _contract.partyB,\n        _contract.state,\n        _contract.duration,\n        _contract.contractData\n        );\n    }\n\n    function getContractTerms(uint256 _contractId)\n    external view\n    returns (\n        bool contractHasValue,\n        PaymentFrequency paymentFrequency,\n        uint256 paymentFrequencyValue,\n        ClientPaymentTerms clientPaymentTerms,\n        uint256 clientPaymentTermsValue\n    ) {\n        Contract memory _contract = contracts[_contractId];\n        return (\n        _contract.contractHasValue,\n        _contract.paymentFrequency,\n        _contract.paymentFrequencyValue,\n        _contract.clientPaymentTerms,\n        _contract.clientPaymentTermsValue\n        );\n    }\n\n    function getContractInvoices(uint256 _contractId)\n    external view\n    returns (uint256[] memory invoiceIds) {\n        return invoicesIds[_contractId];\n    }\n\n    function getContractInvoiceDetails(uint256 _invoiceId)\n    external view\n    returns (\n        InvoiceStatus invoiceStatus,\n        uint256 contractId\n    ) {\n        return (\n        invoiceToInvoiceStatus[_invoiceId],\n        invoiceToContractId[_invoiceId]\n        );\n    }\n\n}\n",
  "sourcePath": "/Users/jamesmorgan/Dropbox/workspace-blockrocket/digital-oracles-prototype/contracts/DigitalOracles.sol",
  "compiler": {
    "name": "solc",
    "version": "0.5.0+commit.1d4f565a.Emscripten.clang"
  },
  "schemaVersion": "3.0.1",
  "updatedAt": "2019-02-12T15:45:13.363Z",
  "devdoc": {
    "methods": {}
  },
  "userdoc": {
    "methods": {
      "constructor": "//////////////",
      "createContract(uint256,uint256,uint256,uint256,uint256,string,uint8,bool,uint8,uint256,uint8,uint256)": {
        "notice": "//////////////////"
      },
      "getContractDetails(uint256)": {
        "notice": "////////////////"
      }
    }
  }
}